{"abi":[{"inputs":[{"internalType":"uint256","name":"_biddingTime","type":"uint256"},{"internalType":"address","name":"_owner","type":"address"},{"internalType":"string","name":"_brand","type":"string"},{"internalType":"string","name":"_Rnumber","type":"string"}],"stateMutability":"nonpayable","type":"constructor"},{"anonymous":false,"inputs":[{"indexed":true,"internalType":"address","name":"highestBidder","type":"address"},{"indexed":false,"internalType":"uint256","name":"highestBid","type":"uint256"}],"name":"BidEvent","type":"event"},{"anonymous":false,"inputs":[{"indexed":false,"internalType":"string","name":"message","type":"string"},{"indexed":false,"internalType":"uint256","name":"time","type":"uint256"}],"name":"CanceledEvent","type":"event"},{"anonymous":false,"inputs":[{"indexed":false,"internalType":"address","name":"withdrawer","type":"address"},{"indexed":false,"internalType":"uint256","name":"amount","type":"uint256"}],"name":"WithdrawalEvent","type":"event"},{"inputs":[],"name":"Mycar","outputs":[{"internalType":"string","name":"Brand","type":"string"},{"internalType":"string","name":"Rnumber","type":"string"}],"stateMutability":"view","type":"function"},{"inputs":[],"name":"STATE","outputs":[{"internalType":"enum Auction.AuctionState","name":"","type":"uint8"}],"stateMutability":"view","type":"function"},{"inputs":[],"name":"auction_end","outputs":[{"internalType":"uint256","name":"","type":"uint256"}],"stateMutability":"view","type":"function"},{"inputs":[],"name":"auction_start","outputs":[{"internalType":"uint256","name":"","type":"uint256"}],"stateMutability":"view","type":"function"},{"inputs":[],"name":"bid","outputs":[{"internalType":"bool","name":"","type":"bool"}],"stateMutability":"payable","type":"function"},{"inputs":[{"internalType":"uint256","name":"","type":"uint256"}],"name":"bidders","outputs":[{"internalType":"address","name":"","type":"address"}],"stateMutability":"view","type":"function"},{"inputs":[{"internalType":"address","name":"","type":"address"}],"name":"bids","outputs":[{"internalType":"uint256","name":"","type":"uint256"}],"stateMutability":"view","type":"function"},{"inputs":[],"name":"cancelAuction","outputs":[{"internalType":"bool","name":"","type":"bool"}],"stateMutability":"nonpayable","type":"function"},{"inputs":[],"name":"destructAuction","outputs":[{"internalType":"bool","name":"","type":"bool"}],"stateMutability":"nonpayable","type":"function"},{"inputs":[],"name":"getOwner","outputs":[{"internalType":"address","name":"","type":"address"}],"stateMutability":"view","type":"function"},{"inputs":[],"name":"highestBid","outputs":[{"internalType":"uint256","name":"","type":"uint256"}],"stateMutability":"view","type":"function"},{"inputs":[],"name":"highestBidder","outputs":[{"internalType":"address","name":"","type":"address"}],"stateMutability":"view","type":"function"},{"inputs":[],"name":"withdraw","outputs":[{"internalType":"bool","name":"","type":"bool"}],"stateMutability":"nonpayable","type":"function"}],"devdoc":{"kind":"dev","methods":{},"version":1},"evm":{"assembly":"    /* \"Auction.sol\":1221:3190  contract MyAuction is Auction {... */\n  mstore(0x40, 0x80)\n    /* \"Auction.sol\":1258:1607  constructor(uint256 _biddingTime, address _owner, string memory _brand, string memory _Rnumber) {... */\n  callvalue\n  dup1\n  iszero\n  tag_1\n  jumpi\n  0x00\n  dup1\n  revert\ntag_1:\n  pop\n  mload(0x40)\n  sub(codesize, bytecodeSize)\n  dup1\n  bytecodeSize\n  dup4\n  codecopy\n  dup2\n  dup2\n  add\n  0x40\n  mstore\n  dup2\n  add\n  swap1\n  tag_2\n  swap2\n  swap1\n  tag_3\n  jump\t// in\ntag_2:\n    /* \"Auction.sol\":1381:1387  _owner */\n  dup3\n    /* \"Auction.sol\":1365:1378  auction_owner */\n  0x00\n  dup1\n    /* \"Auction.sol\":1365:1387  auction_owner = _owner */\n  0x0100\n  exp\n  dup2\n  sload\n  dup2\n  0xffffffffffffffffffffffffffffffffffffffff\n  mul\n  not\n  and\n  swap1\n  dup4\n  0xffffffffffffffffffffffffffffffffffffffff\n  and\n  mul\n  or\n  swap1\n  sstore\n  pop\n    /* \"Auction.sol\":1414:1429  block.timestamp */\n  timestamp\n    /* \"Auction.sol\":1398:1411  auction_start */\n  0x01\n    /* \"Auction.sol\":1398:1429  auction_start = block.timestamp */\n  dup2\n  swap1\n  sstore\n  pop\n    /* \"Auction.sol\":1485:1494  1 minutes */\n  0x3c\n    /* \"Auction.sol\":1470:1482  _biddingTime */\n  dup5\n    /* \"Auction.sol\":1470:1494  _biddingTime * 1 minutes */\n  tag_6\n  swap2\n  swap1\n  tag_7\n  jump\t// in\ntag_6:\n    /* \"Auction.sol\":1454:1467  auction_start */\n  sload(0x01)\n    /* \"Auction.sol\":1454:1494  auction_start + _biddingTime * 1 minutes */\n  tag_8\n  swap2\n  swap1\n  tag_9\n  jump\t// in\ntag_8:\n    /* \"Auction.sol\":1440:1451  auction_end */\n  0x02\n    /* \"Auction.sol\":1440:1494  auction_end = auction_start + _biddingTime * 1 minutes */\n  dup2\n  swap1\n  sstore\n  pop\n    /* \"Auction.sol\":1513:1533  AuctionState.STARTED */\n  0x01\n    /* \"Auction.sol\":1505:1510  STATE */\n  0x09\n  0x00\n    /* \"Auction.sol\":1505:1533  STATE = AuctionState.STARTED */\n  0x0100\n  exp\n  dup2\n  sload\n  dup2\n  0xff\n  mul\n  not\n  and\n  swap1\n  dup4\n  0x01\n  dup2\n  gt\n  iszero\n  tag_10\n  jumpi\n  tag_11\n  tag_12\n  jump\t// in\ntag_11:\ntag_10:\n  mul\n  or\n  swap1\n  sstore\n  pop\n    /* \"Auction.sol\":1558:1564  _brand */\n  dup2\n    /* \"Auction.sol\":1544:1549  Mycar */\n  0x05\n    /* \"Auction.sol\":1544:1555  Mycar.Brand */\n  0x00\n  add\n    /* \"Auction.sol\":1544:1564  Mycar.Brand = _brand */\n  swap1\n  dup2\n  tag_13\n  swap2\n  swap1\n  tag_14\n  jump\t// in\ntag_13:\n  pop\n    /* \"Auction.sol\":1591:1599  _Rnumber */\n  dup1\n    /* \"Auction.sol\":1575:1580  Mycar */\n  0x05\n    /* \"Auction.sol\":1575:1588  Mycar.Rnumber */\n  0x01\n  add\n    /* \"Auction.sol\":1575:1599  Mycar.Rnumber = _Rnumber */\n  swap1\n  dup2\n  tag_15\n  swap2\n  swap1\n  tag_14\n  jump\t// in\ntag_15:\n  pop\n    /* \"Auction.sol\":1258:1607  constructor(uint256 _biddingTime, address _owner, string memory _brand, string memory _Rnumber) {... */\n  pop\n  pop\n  pop\n  pop\n    /* \"Auction.sol\":1221:3190  contract MyAuction is Auction {... */\n  jump(tag_16)\n    /* \"#utility.yul\":7:82   */\ntag_17:\n    /* \"#utility.yul\":40:46   */\n  0x00\n    /* \"#utility.yul\":73:75   */\n  0x40\n    /* \"#utility.yul\":67:76   */\n  mload\n    /* \"#utility.yul\":57:76   */\n  swap1\n  pop\n    /* \"#utility.yul\":7:82   */\n  swap1\n  jump\t// out\n    /* \"#utility.yul\":88:205   */\ntag_18:\n    /* \"#utility.yul\":197:198   */\n  0x00\n    /* \"#utility.yul\":194:195   */\n  dup1\n    /* \"#utility.yul\":187:199   */\n  revert\n    /* \"#utility.yul\":211:328   */\ntag_19:\n    /* \"#utility.yul\":320:321   */\n  0x00\n    /* \"#utility.yul\":317:318   */\n  dup1\n    /* \"#utility.yul\":310:322   */\n  revert\n    /* \"#utility.yul\":334:411   */\ntag_20:\n    /* \"#utility.yul\":371:378   */\n  0x00\n    /* \"#utility.yul\":400:405   */\n  dup2\n    /* \"#utility.yul\":389:405   */\n  swap1\n  pop\n    /* \"#utility.yul\":334:411   */\n  swap2\n  swap1\n  pop\n  jump\t// out\n    /* \"#utility.yul\":417:539   */\ntag_21:\n    /* \"#utility.yul\":490:514   */\n  tag_62\n    /* \"#utility.yul\":508:513   */\n  dup2\n    /* \"#utility.yul\":490:514   */\n  tag_20\n  jump\t// in\ntag_62:\n    /* \"#utility.yul\":483:488   */\n  dup2\n    /* \"#utility.yul\":480:515   */\n  eq\n    /* \"#utility.yul\":470:533   */\n  tag_63\n  jumpi\n    /* \"#utility.yul\":529:530   */\n  0x00\n    /* \"#utility.yul\":526:527   */\n  dup1\n    /* \"#utility.yul\":519:531   */\n  revert\n    /* \"#utility.yul\":470:533   */\ntag_63:\n    /* \"#utility.yul\":417:539   */\n  pop\n  jump\t// out\n    /* \"#utility.yul\":545:688   */\ntag_22:\n    /* \"#utility.yul\":602:607   */\n  0x00\n    /* \"#utility.yul\":633:639   */\n  dup2\n    /* \"#utility.yul\":627:640   */\n  mload\n    /* \"#utility.yul\":618:640   */\n  swap1\n  pop\n    /* \"#utility.yul\":649:682   */\n  tag_65\n    /* \"#utility.yul\":676:681   */\n  dup2\n    /* \"#utility.yul\":649:682   */\n  tag_21\n  jump\t// in\ntag_65:\n    /* \"#utility.yul\":545:688   */\n  swap3\n  swap2\n  pop\n  pop\n  jump\t// out\n    /* \"#utility.yul\":694:820   */\ntag_23:\n    /* \"#utility.yul\":731:738   */\n  0x00\n    /* \"#utility.yul\":771:813   */\n  0xffffffffffffffffffffffffffffffffffffffff\n    /* \"#utility.yul\":764:769   */\n  dup3\n    /* \"#utility.yul\":760:814   */\n  and\n    /* \"#utility.yul\":749:814   */\n  swap1\n  pop\n    /* \"#utility.yul\":694:820   */\n  swap2\n  swap1\n  pop\n  jump\t// out\n    /* \"#utility.yul\":826:922   */\ntag_24:\n    /* \"#utility.yul\":863:870   */\n  0x00\n    /* \"#utility.yul\":892:916   */\n  tag_68\n    /* \"#utility.yul\":910:915   */\n  dup3\n    /* \"#utility.yul\":892:916   */\n  tag_23\n  jump\t// in\ntag_68:\n    /* \"#utility.yul\":881:916   */\n  swap1\n  pop\n    /* \"#utility.yul\":826:922   */\n  swap2\n  swap1\n  pop\n  jump\t// out\n    /* \"#utility.yul\":928:1050   */\ntag_25:\n    /* \"#utility.yul\":1001:1025   */\n  tag_70\n    /* \"#utility.yul\":1019:1024   */\n  dup2\n    /* \"#utility.yul\":1001:1025   */\n  tag_24\n  jump\t// in\ntag_70:\n    /* \"#utility.yul\":994:999   */\n  dup2\n    /* \"#utility.yul\":991:1026   */\n  eq\n    /* \"#utility.yul\":981:1044   */\n  tag_71\n  jumpi\n    /* \"#utility.yul\":1040:1041   */\n  0x00\n    /* \"#utility.yul\":1037:1038   */\n  dup1\n    /* \"#utility.yul\":1030:1042   */\n  revert\n    /* \"#utility.yul\":981:1044   */\ntag_71:\n    /* \"#utility.yul\":928:1050   */\n  pop\n  jump\t// out\n    /* \"#utility.yul\":1056:1199   */\ntag_26:\n    /* \"#utility.yul\":1113:1118   */\n  0x00\n    /* \"#utility.yul\":1144:1150   */\n  dup2\n    /* \"#utility.yul\":1138:1151   */\n  mload\n    /* \"#utility.yul\":1129:1151   */\n  swap1\n  pop\n    /* \"#utility.yul\":1160:1193   */\n  tag_73\n    /* \"#utility.yul\":1187:1192   */\n  dup2\n    /* \"#utility.yul\":1160:1193   */\n  tag_25\n  jump\t// in\ntag_73:\n    /* \"#utility.yul\":1056:1199   */\n  swap3\n  swap2\n  pop\n  pop\n  jump\t// out\n    /* \"#utility.yul\":1205:1322   */\ntag_27:\n    /* \"#utility.yul\":1314:1315   */\n  0x00\n    /* \"#utility.yul\":1311:1312   */\n  dup1\n    /* \"#utility.yul\":1304:1316   */\n  revert\n    /* \"#utility.yul\":1328:1445   */\ntag_28:\n    /* \"#utility.yul\":1437:1438   */\n  0x00\n    /* \"#utility.yul\":1434:1435   */\n  dup1\n    /* \"#utility.yul\":1427:1439   */\n  revert\n    /* \"#utility.yul\":1451:1553   */\ntag_29:\n    /* \"#utility.yul\":1492:1498   */\n  0x00\n    /* \"#utility.yul\":1543:1545   */\n  0x1f\n    /* \"#utility.yul\":1539:1546   */\n  not\n    /* \"#utility.yul\":1534:1536   */\n  0x1f\n    /* \"#utility.yul\":1527:1532   */\n  dup4\n    /* \"#utility.yul\":1523:1537   */\n  add\n    /* \"#utility.yul\":1519:1547   */\n  and\n    /* \"#utility.yul\":1509:1547   */\n  swap1\n  pop\n    /* \"#utility.yul\":1451:1553   */\n  swap2\n  swap1\n  pop\n  jump\t// out\n    /* \"#utility.yul\":1559:1739   */\ntag_30:\n    /* \"#utility.yul\":1607:1684   */\n  0x4e487b7100000000000000000000000000000000000000000000000000000000\n    /* \"#utility.yul\":1604:1605   */\n  0x00\n    /* \"#utility.yul\":1597:1685   */\n  mstore\n    /* \"#utility.yul\":1704:1708   */\n  0x41\n    /* \"#utility.yul\":1701:1702   */\n  0x04\n    /* \"#utility.yul\":1694:1709   */\n  mstore\n    /* \"#utility.yul\":1728:1732   */\n  0x24\n    /* \"#utility.yul\":1725:1726   */\n  0x00\n    /* \"#utility.yul\":1718:1733   */\n  revert\n    /* \"#utility.yul\":1745:2026   */\ntag_31:\n    /* \"#utility.yul\":1828:1855   */\n  tag_79\n    /* \"#utility.yul\":1850:1854   */\n  dup3\n    /* \"#utility.yul\":1828:1855   */\n  tag_29\n  jump\t// in\ntag_79:\n    /* \"#utility.yul\":1820:1826   */\n  dup2\n    /* \"#utility.yul\":1816:1856   */\n  add\n    /* \"#utility.yul\":1958:1964   */\n  dup2\n    /* \"#utility.yul\":1946:1956   */\n  dup2\n    /* \"#utility.yul\":1943:1965   */\n  lt\n    /* \"#utility.yul\":1922:1940   */\n  0xffffffffffffffff\n    /* \"#utility.yul\":1910:1920   */\n  dup3\n    /* \"#utility.yul\":1907:1941   */\n  gt\n    /* \"#utility.yul\":1904:1966   */\n  or\n    /* \"#utility.yul\":1901:1989   */\n  iszero\n  tag_80\n  jumpi\n    /* \"#utility.yul\":1969:1987   */\n  tag_81\n  tag_30\n  jump\t// in\ntag_81:\n    /* \"#utility.yul\":1901:1989   */\ntag_80:\n    /* \"#utility.yul\":2009:2019   */\n  dup1\n    /* \"#utility.yul\":2005:2007   */\n  0x40\n    /* \"#utility.yul\":1998:2020   */\n  mstore\n    /* \"#utility.yul\":1788:2026   */\n  pop\n    /* \"#utility.yul\":1745:2026   */\n  pop\n  pop\n  jump\t// out\n    /* \"#utility.yul\":2032:2161   */\ntag_32:\n    /* \"#utility.yul\":2066:2072   */\n  0x00\n    /* \"#utility.yul\":2093:2113   */\n  tag_83\n  tag_17\n  jump\t// in\ntag_83:\n    /* \"#utility.yul\":2083:2113   */\n  swap1\n  pop\n    /* \"#utility.yul\":2122:2155   */\n  tag_84\n    /* \"#utility.yul\":2150:2154   */\n  dup3\n    /* \"#utility.yul\":2142:2148   */\n  dup3\n    /* \"#utility.yul\":2122:2155   */\n  tag_31\n  jump\t// in\ntag_84:\n    /* \"#utility.yul\":2032:2161   */\n  swap2\n  swap1\n  pop\n  jump\t// out\n    /* \"#utility.yul\":2167:2475   */\ntag_33:\n    /* \"#utility.yul\":2229:2233   */\n  0x00\n    /* \"#utility.yul\":2319:2337   */\n  0xffffffffffffffff\n    /* \"#utility.yul\":2311:2317   */\n  dup3\n    /* \"#utility.yul\":2308:2338   */\n  gt\n    /* \"#utility.yul\":2305:2361   */\n  iszero\n  tag_86\n  jumpi\n    /* \"#utility.yul\":2341:2359   */\n  tag_87\n  tag_30\n  jump\t// in\ntag_87:\n    /* \"#utility.yul\":2305:2361   */\ntag_86:\n    /* \"#utility.yul\":2379:2408   */\n  tag_88\n    /* \"#utility.yul\":2401:2407   */\n  dup3\n    /* \"#utility.yul\":2379:2408   */\n  tag_29\n  jump\t// in\ntag_88:\n    /* \"#utility.yul\":2371:2408   */\n  swap1\n  pop\n    /* \"#utility.yul\":2463:2467   */\n  0x20\n    /* \"#utility.yul\":2457:2461   */\n  dup2\n    /* \"#utility.yul\":2453:2468   */\n  add\n    /* \"#utility.yul\":2445:2468   */\n  swap1\n  pop\n    /* \"#utility.yul\":2167:2475   */\n  swap2\n  swap1\n  pop\n  jump\t// out\n    /* \"#utility.yul\":2481:2727   */\ntag_34:\n    /* \"#utility.yul\":2562:2563   */\n  0x00\n    /* \"#utility.yul\":2572:2685   */\ntag_90:\n    /* \"#utility.yul\":2586:2592   */\n  dup4\n    /* \"#utility.yul\":2583:2584   */\n  dup2\n    /* \"#utility.yul\":2580:2593   */\n  lt\n    /* \"#utility.yul\":2572:2685   */\n  iszero\n  tag_92\n  jumpi\n    /* \"#utility.yul\":2671:2672   */\n  dup1\n    /* \"#utility.yul\":2666:2669   */\n  dup3\n    /* \"#utility.yul\":2662:2673   */\n  add\n    /* \"#utility.yul\":2656:2674   */\n  mload\n    /* \"#utility.yul\":2652:2653   */\n  dup2\n    /* \"#utility.yul\":2647:2650   */\n  dup5\n    /* \"#utility.yul\":2643:2654   */\n  add\n    /* \"#utility.yul\":2636:2675   */\n  mstore\n    /* \"#utility.yul\":2608:2610   */\n  0x20\n    /* \"#utility.yul\":2605:2606   */\n  dup2\n    /* \"#utility.yul\":2601:2611   */\n  add\n    /* \"#utility.yul\":2596:2611   */\n  swap1\n  pop\n    /* \"#utility.yul\":2572:2685   */\n  jump(tag_90)\ntag_92:\n    /* \"#utility.yul\":2719:2720   */\n  0x00\n    /* \"#utility.yul\":2710:2716   */\n  dup5\n    /* \"#utility.yul\":2705:2708   */\n  dup5\n    /* \"#utility.yul\":2701:2717   */\n  add\n    /* \"#utility.yul\":2694:2721   */\n  mstore\n    /* \"#utility.yul\":2543:2727   */\n  pop\n    /* \"#utility.yul\":2481:2727   */\n  pop\n  pop\n  pop\n  jump\t// out\n    /* \"#utility.yul\":2733:3167   */\ntag_35:\n    /* \"#utility.yul\":2822:2827   */\n  0x00\n    /* \"#utility.yul\":2847:2913   */\n  tag_94\n    /* \"#utility.yul\":2863:2912   */\n  tag_95\n    /* \"#utility.yul\":2905:2911   */\n  dup5\n    /* \"#utility.yul\":2863:2912   */\n  tag_33\n  jump\t// in\ntag_95:\n    /* \"#utility.yul\":2847:2913   */\n  tag_32\n  jump\t// in\ntag_94:\n    /* \"#utility.yul\":2838:2913   */\n  swap1\n  pop\n    /* \"#utility.yul\":2936:2942   */\n  dup3\n    /* \"#utility.yul\":2929:2934   */\n  dup2\n    /* \"#utility.yul\":2922:2943   */\n  mstore\n    /* \"#utility.yul\":2974:2978   */\n  0x20\n    /* \"#utility.yul\":2967:2972   */\n  dup2\n    /* \"#utility.yul\":2963:2979   */\n  add\n    /* \"#utility.yul\":3012:3015   */\n  dup5\n    /* \"#utility.yul\":3003:3009   */\n  dup5\n    /* \"#utility.yul\":2998:3001   */\n  dup5\n    /* \"#utility.yul\":2994:3010   */\n  add\n    /* \"#utility.yul\":2991:3016   */\n  gt\n    /* \"#utility.yul\":2988:3100   */\n  iszero\n  tag_96\n  jumpi\n    /* \"#utility.yul\":3019:3098   */\n  tag_97\n  tag_28\n  jump\t// in\ntag_97:\n    /* \"#utility.yul\":2988:3100   */\ntag_96:\n    /* \"#utility.yul\":3109:3161   */\n  tag_98\n    /* \"#utility.yul\":3154:3160   */\n  dup5\n    /* \"#utility.yul\":3149:3152   */\n  dup3\n    /* \"#utility.yul\":3144:3147   */\n  dup6\n    /* \"#utility.yul\":3109:3161   */\n  tag_34\n  jump\t// in\ntag_98:\n    /* \"#utility.yul\":2828:3167   */\n  pop\n    /* \"#utility.yul\":2733:3167   */\n  swap4\n  swap3\n  pop\n  pop\n  pop\n  jump\t// out\n    /* \"#utility.yul\":3187:3542   */\ntag_36:\n    /* \"#utility.yul\":3254:3259   */\n  0x00\n    /* \"#utility.yul\":3303:3306   */\n  dup3\n    /* \"#utility.yul\":3296:3300   */\n  0x1f\n    /* \"#utility.yul\":3288:3294   */\n  dup4\n    /* \"#utility.yul\":3284:3301   */\n  add\n    /* \"#utility.yul\":3280:3307   */\n  slt\n    /* \"#utility.yul\":3270:3392   */\n  tag_100\n  jumpi\n    /* \"#utility.yul\":3311:3390   */\n  tag_101\n  tag_27\n  jump\t// in\ntag_101:\n    /* \"#utility.yul\":3270:3392   */\ntag_100:\n    /* \"#utility.yul\":3421:3427   */\n  dup2\n    /* \"#utility.yul\":3415:3428   */\n  mload\n    /* \"#utility.yul\":3446:3536   */\n  tag_102\n    /* \"#utility.yul\":3532:3535   */\n  dup5\n    /* \"#utility.yul\":3524:3530   */\n  dup3\n    /* \"#utility.yul\":3517:3521   */\n  0x20\n    /* \"#utility.yul\":3509:3515   */\n  dup7\n    /* \"#utility.yul\":3505:3522   */\n  add\n    /* \"#utility.yul\":3446:3536   */\n  tag_35\n  jump\t// in\ntag_102:\n    /* \"#utility.yul\":3437:3536   */\n  swap2\n  pop\n    /* \"#utility.yul\":3260:3542   */\n  pop\n    /* \"#utility.yul\":3187:3542   */\n  swap3\n  swap2\n  pop\n  pop\n  jump\t// out\n    /* \"#utility.yul\":3548:4714   */\ntag_3:\n    /* \"#utility.yul\":3665:3671   */\n  0x00\n    /* \"#utility.yul\":3673:3679   */\n  dup1\n    /* \"#utility.yul\":3681:3687   */\n  0x00\n    /* \"#utility.yul\":3689:3695   */\n  dup1\n    /* \"#utility.yul\":3738:3741   */\n  0x80\n    /* \"#utility.yul\":3726:3735   */\n  dup6\n    /* \"#utility.yul\":3717:3724   */\n  dup8\n    /* \"#utility.yul\":3713:3736   */\n  sub\n    /* \"#utility.yul\":3709:3742   */\n  slt\n    /* \"#utility.yul\":3706:3826   */\n  iszero\n  tag_104\n  jumpi\n    /* \"#utility.yul\":3745:3824   */\n  tag_105\n  tag_18\n  jump\t// in\ntag_105:\n    /* \"#utility.yul\":3706:3826   */\ntag_104:\n    /* \"#utility.yul\":3865:3866   */\n  0x00\n    /* \"#utility.yul\":3890:3954   */\n  tag_106\n    /* \"#utility.yul\":3946:3953   */\n  dup8\n    /* \"#utility.yul\":3937:3943   */\n  dup3\n    /* \"#utility.yul\":3926:3935   */\n  dup9\n    /* \"#utility.yul\":3922:3944   */\n  add\n    /* \"#utility.yul\":3890:3954   */\n  tag_22\n  jump\t// in\ntag_106:\n    /* \"#utility.yul\":3880:3954   */\n  swap5\n  pop\n    /* \"#utility.yul\":3836:3964   */\n  pop\n    /* \"#utility.yul\":4003:4005   */\n  0x20\n    /* \"#utility.yul\":4029:4093   */\n  tag_107\n    /* \"#utility.yul\":4085:4092   */\n  dup8\n    /* \"#utility.yul\":4076:4082   */\n  dup3\n    /* \"#utility.yul\":4065:4074   */\n  dup9\n    /* \"#utility.yul\":4061:4083   */\n  add\n    /* \"#utility.yul\":4029:4093   */\n  tag_26\n  jump\t// in\ntag_107:\n    /* \"#utility.yul\":4019:4093   */\n  swap4\n  pop\n    /* \"#utility.yul\":3974:4103   */\n  pop\n    /* \"#utility.yul\":4163:4165   */\n  0x40\n    /* \"#utility.yul\":4152:4161   */\n  dup6\n    /* \"#utility.yul\":4148:4166   */\n  add\n    /* \"#utility.yul\":4142:4167   */\n  mload\n    /* \"#utility.yul\":4194:4212   */\n  0xffffffffffffffff\n    /* \"#utility.yul\":4186:4192   */\n  dup2\n    /* \"#utility.yul\":4183:4213   */\n  gt\n    /* \"#utility.yul\":4180:4297   */\n  iszero\n  tag_108\n  jumpi\n    /* \"#utility.yul\":4216:4295   */\n  tag_109\n  tag_19\n  jump\t// in\ntag_109:\n    /* \"#utility.yul\":4180:4297   */\ntag_108:\n    /* \"#utility.yul\":4321:4395   */\n  tag_110\n    /* \"#utility.yul\":4387:4394   */\n  dup8\n    /* \"#utility.yul\":4378:4384   */\n  dup3\n    /* \"#utility.yul\":4367:4376   */\n  dup9\n    /* \"#utility.yul\":4363:4385   */\n  add\n    /* \"#utility.yul\":4321:4395   */\n  tag_36\n  jump\t// in\ntag_110:\n    /* \"#utility.yul\":4311:4395   */\n  swap3\n  pop\n    /* \"#utility.yul\":4113:4405   */\n  pop\n    /* \"#utility.yul\":4465:4467   */\n  0x60\n    /* \"#utility.yul\":4454:4463   */\n  dup6\n    /* \"#utility.yul\":4450:4468   */\n  add\n    /* \"#utility.yul\":4444:4469   */\n  mload\n    /* \"#utility.yul\":4496:4514   */\n  0xffffffffffffffff\n    /* \"#utility.yul\":4488:4494   */\n  dup2\n    /* \"#utility.yul\":4485:4515   */\n  gt\n    /* \"#utility.yul\":4482:4599   */\n  iszero\n  tag_111\n  jumpi\n    /* \"#utility.yul\":4518:4597   */\n  tag_112\n  tag_19\n  jump\t// in\ntag_112:\n    /* \"#utility.yul\":4482:4599   */\ntag_111:\n    /* \"#utility.yul\":4623:4697   */\n  tag_113\n    /* \"#utility.yul\":4689:4696   */\n  dup8\n    /* \"#utility.yul\":4680:4686   */\n  dup3\n    /* \"#utility.yul\":4669:4678   */\n  dup9\n    /* \"#utility.yul\":4665:4687   */\n  add\n    /* \"#utility.yul\":4623:4697   */\n  tag_36\n  jump\t// in\ntag_113:\n    /* \"#utility.yul\":4613:4697   */\n  swap2\n  pop\n    /* \"#utility.yul\":4415:4707   */\n  pop\n    /* \"#utility.yul\":3548:4714   */\n  swap3\n  swap6\n  swap2\n  swap5\n  pop\n  swap3\n  pop\n  jump\t// out\n    /* \"#utility.yul\":4720:4900   */\ntag_37:\n    /* \"#utility.yul\":4768:4845   */\n  0x4e487b7100000000000000000000000000000000000000000000000000000000\n    /* \"#utility.yul\":4765:4766   */\n  0x00\n    /* \"#utility.yul\":4758:4846   */\n  mstore\n    /* \"#utility.yul\":4865:4869   */\n  0x11\n    /* \"#utility.yul\":4862:4863   */\n  0x04\n    /* \"#utility.yul\":4855:4870   */\n  mstore\n    /* \"#utility.yul\":4889:4893   */\n  0x24\n    /* \"#utility.yul\":4886:4887   */\n  0x00\n    /* \"#utility.yul\":4879:4894   */\n  revert\n    /* \"#utility.yul\":4906:5316   */\ntag_7:\n    /* \"#utility.yul\":4946:4953   */\n  0x00\n    /* \"#utility.yul\":4969:4989   */\n  tag_116\n    /* \"#utility.yul\":4987:4988   */\n  dup3\n    /* \"#utility.yul\":4969:4989   */\n  tag_20\n  jump\t// in\ntag_116:\n    /* \"#utility.yul\":4964:4989   */\n  swap2\n  pop\n    /* \"#utility.yul\":5003:5023   */\n  tag_117\n    /* \"#utility.yul\":5021:5022   */\n  dup4\n    /* \"#utility.yul\":5003:5023   */\n  tag_20\n  jump\t// in\ntag_117:\n    /* \"#utility.yul\":4998:5023   */\n  swap3\n  pop\n    /* \"#utility.yul\":5058:5059   */\n  dup3\n    /* \"#utility.yul\":5055:5056   */\n  dup3\n    /* \"#utility.yul\":5051:5060   */\n  mul\n    /* \"#utility.yul\":5080:5110   */\n  tag_118\n    /* \"#utility.yul\":5098:5109   */\n  dup2\n    /* \"#utility.yul\":5080:5110   */\n  tag_20\n  jump\t// in\ntag_118:\n    /* \"#utility.yul\":5069:5110   */\n  swap2\n  pop\n    /* \"#utility.yul\":5259:5260   */\n  dup3\n    /* \"#utility.yul\":5250:5257   */\n  dup3\n    /* \"#utility.yul\":5246:5261   */\n  div\n    /* \"#utility.yul\":5243:5244   */\n  dup5\n    /* \"#utility.yul\":5240:5262   */\n  eq\n    /* \"#utility.yul\":5220:5221   */\n  dup4\n    /* \"#utility.yul\":5213:5222   */\n  iszero\n    /* \"#utility.yul\":5193:5276   */\n  or\n    /* \"#utility.yul\":5170:5309   */\n  tag_119\n  jumpi\n    /* \"#utility.yul\":5289:5307   */\n  tag_120\n  tag_37\n  jump\t// in\ntag_120:\n    /* \"#utility.yul\":5170:5309   */\ntag_119:\n    /* \"#utility.yul\":4954:5316   */\n  pop\n    /* \"#utility.yul\":4906:5316   */\n  swap3\n  swap2\n  pop\n  pop\n  jump\t// out\n    /* \"#utility.yul\":5322:5513   */\ntag_9:\n    /* \"#utility.yul\":5362:5365   */\n  0x00\n    /* \"#utility.yul\":5381:5401   */\n  tag_122\n    /* \"#utility.yul\":5399:5400   */\n  dup3\n    /* \"#utility.yul\":5381:5401   */\n  tag_20\n  jump\t// in\ntag_122:\n    /* \"#utility.yul\":5376:5401   */\n  swap2\n  pop\n    /* \"#utility.yul\":5415:5435   */\n  tag_123\n    /* \"#utility.yul\":5433:5434   */\n  dup4\n    /* \"#utility.yul\":5415:5435   */\n  tag_20\n  jump\t// in\ntag_123:\n    /* \"#utility.yul\":5410:5435   */\n  swap3\n  pop\n    /* \"#utility.yul\":5458:5459   */\n  dup3\n    /* \"#utility.yul\":5455:5456   */\n  dup3\n    /* \"#utility.yul\":5451:5460   */\n  add\n    /* \"#utility.yul\":5444:5460   */\n  swap1\n  pop\n    /* \"#utility.yul\":5479:5482   */\n  dup1\n    /* \"#utility.yul\":5476:5477   */\n  dup3\n    /* \"#utility.yul\":5473:5483   */\n  gt\n    /* \"#utility.yul\":5470:5506   */\n  iszero\n  tag_124\n  jumpi\n    /* \"#utility.yul\":5486:5504   */\n  tag_125\n  tag_37\n  jump\t// in\ntag_125:\n    /* \"#utility.yul\":5470:5506   */\ntag_124:\n    /* \"#utility.yul\":5322:5513   */\n  swap3\n  swap2\n  pop\n  pop\n  jump\t// out\n    /* \"#utility.yul\":5519:5699   */\ntag_12:\n    /* \"#utility.yul\":5567:5644   */\n  0x4e487b7100000000000000000000000000000000000000000000000000000000\n    /* \"#utility.yul\":5564:5565   */\n  0x00\n    /* \"#utility.yul\":5557:5645   */\n  mstore\n    /* \"#utility.yul\":5664:5668   */\n  0x21\n    /* \"#utility.yul\":5661:5662   */\n  0x04\n    /* \"#utility.yul\":5654:5669   */\n  mstore\n    /* \"#utility.yul\":5688:5692   */\n  0x24\n    /* \"#utility.yul\":5685:5686   */\n  0x00\n    /* \"#utility.yul\":5678:5693   */\n  revert\n    /* \"#utility.yul\":5705:5804   */\ntag_38:\n    /* \"#utility.yul\":5757:5763   */\n  0x00\n    /* \"#utility.yul\":5791:5796   */\n  dup2\n    /* \"#utility.yul\":5785:5797   */\n  mload\n    /* \"#utility.yul\":5775:5797   */\n  swap1\n  pop\n    /* \"#utility.yul\":5705:5804   */\n  swap2\n  swap1\n  pop\n  jump\t// out\n    /* \"#utility.yul\":5810:5990   */\ntag_39:\n    /* \"#utility.yul\":5858:5935   */\n  0x4e487b7100000000000000000000000000000000000000000000000000000000\n    /* \"#utility.yul\":5855:5856   */\n  0x00\n    /* \"#utility.yul\":5848:5936   */\n  mstore\n    /* \"#utility.yul\":5955:5959   */\n  0x22\n    /* \"#utility.yul\":5952:5953   */\n  0x04\n    /* \"#utility.yul\":5945:5960   */\n  mstore\n    /* \"#utility.yul\":5979:5983   */\n  0x24\n    /* \"#utility.yul\":5976:5977   */\n  0x00\n    /* \"#utility.yul\":5969:5984   */\n  revert\n    /* \"#utility.yul\":5996:6316   */\ntag_40:\n    /* \"#utility.yul\":6040:6046   */\n  0x00\n    /* \"#utility.yul\":6077:6078   */\n  0x02\n    /* \"#utility.yul\":6071:6075   */\n  dup3\n    /* \"#utility.yul\":6067:6079   */\n  div\n    /* \"#utility.yul\":6057:6079   */\n  swap1\n  pop\n    /* \"#utility.yul\":6124:6125   */\n  0x01\n    /* \"#utility.yul\":6118:6122   */\n  dup3\n    /* \"#utility.yul\":6114:6126   */\n  and\n    /* \"#utility.yul\":6145:6163   */\n  dup1\n    /* \"#utility.yul\":6135:6216   */\n  tag_130\n  jumpi\n    /* \"#utility.yul\":6201:6205   */\n  0x7f\n    /* \"#utility.yul\":6193:6199   */\n  dup3\n    /* \"#utility.yul\":6189:6206   */\n  and\n    /* \"#utility.yul\":6179:6206   */\n  swap2\n  pop\n    /* \"#utility.yul\":6135:6216   */\ntag_130:\n    /* \"#utility.yul\":6263:6265   */\n  0x20\n    /* \"#utility.yul\":6255:6261   */\n  dup3\n    /* \"#utility.yul\":6252:6266   */\n  lt\n    /* \"#utility.yul\":6232:6250   */\n  dup2\n    /* \"#utility.yul\":6229:6267   */\n  sub\n    /* \"#utility.yul\":6226:6310   */\n  tag_131\n  jumpi\n    /* \"#utility.yul\":6282:6300   */\n  tag_132\n  tag_39\n  jump\t// in\ntag_132:\n    /* \"#utility.yul\":6226:6310   */\ntag_131:\n    /* \"#utility.yul\":6047:6316   */\n  pop\n    /* \"#utility.yul\":5996:6316   */\n  swap2\n  swap1\n  pop\n  jump\t// out\n    /* \"#utility.yul\":6322:6463   */\ntag_41:\n    /* \"#utility.yul\":6371:6375   */\n  0x00\n    /* \"#utility.yul\":6394:6397   */\n  dup2\n    /* \"#utility.yul\":6386:6397   */\n  swap1\n  pop\n    /* \"#utility.yul\":6417:6420   */\n  dup2\n    /* \"#utility.yul\":6414:6415   */\n  0x00\n    /* \"#utility.yul\":6407:6421   */\n  mstore\n    /* \"#utility.yul\":6451:6455   */\n  0x20\n    /* \"#utility.yul\":6448:6449   */\n  0x00\n    /* \"#utility.yul\":6438:6456   */\n  keccak256\n    /* \"#utility.yul\":6430:6456   */\n  swap1\n  pop\n    /* \"#utility.yul\":6322:6463   */\n  swap2\n  swap1\n  pop\n  jump\t// out\n    /* \"#utility.yul\":6469:6562   */\ntag_42:\n    /* \"#utility.yul\":6506:6512   */\n  0x00\n    /* \"#utility.yul\":6553:6555   */\n  0x20\n    /* \"#utility.yul\":6548:6550   */\n  0x1f\n    /* \"#utility.yul\":6541:6546   */\n  dup4\n    /* \"#utility.yul\":6537:6551   */\n  add\n    /* \"#utility.yul\":6533:6556   */\n  div\n    /* \"#utility.yul\":6523:6556   */\n  swap1\n  pop\n    /* \"#utility.yul\":6469:6562   */\n  swap2\n  swap1\n  pop\n  jump\t// out\n    /* \"#utility.yul\":6568:6675   */\ntag_43:\n    /* \"#utility.yul\":6612:6620   */\n  0x00\n    /* \"#utility.yul\":6662:6667   */\n  dup3\n    /* \"#utility.yul\":6656:6660   */\n  dup3\n    /* \"#utility.yul\":6652:6668   */\n  shl\n    /* \"#utility.yul\":6631:6668   */\n  swap1\n  pop\n    /* \"#utility.yul\":6568:6675   */\n  swap3\n  swap2\n  pop\n  pop\n  jump\t// out\n    /* \"#utility.yul\":6681:7074   */\ntag_44:\n    /* \"#utility.yul\":6750:6756   */\n  0x00\n    /* \"#utility.yul\":6800:6801   */\n  0x08\n    /* \"#utility.yul\":6788:6798   */\n  dup4\n    /* \"#utility.yul\":6784:6802   */\n  mul\n    /* \"#utility.yul\":6823:6920   */\n  tag_137\n    /* \"#utility.yul\":6853:6919   */\n  0xffffffffffffffffffffffffffffffffffffffffffffffffffffffffffffffff\n    /* \"#utility.yul\":6842:6851   */\n  dup3\n    /* \"#utility.yul\":6823:6920   */\n  tag_43\n  jump\t// in\ntag_137:\n    /* \"#utility.yul\":6941:6980   */\n  tag_138\n    /* \"#utility.yul\":6971:6979   */\n  dup7\n    /* \"#utility.yul\":6960:6969   */\n  dup4\n    /* \"#utility.yul\":6941:6980   */\n  tag_43\n  jump\t// in\ntag_138:\n    /* \"#utility.yul\":6929:6980   */\n  swap6\n  pop\n    /* \"#utility.yul\":7013:7017   */\n  dup1\n    /* \"#utility.yul\":7009:7018   */\n  not\n    /* \"#utility.yul\":7002:7007   */\n  dup5\n    /* \"#utility.yul\":6998:7019   */\n  and\n    /* \"#utility.yul\":6989:7019   */\n  swap4\n  pop\n    /* \"#utility.yul\":7062:7066   */\n  dup1\n    /* \"#utility.yul\":7052:7060   */\n  dup7\n    /* \"#utility.yul\":7048:7067   */\n  and\n    /* \"#utility.yul\":7041:7046   */\n  dup5\n    /* \"#utility.yul\":7038:7068   */\n  or\n    /* \"#utility.yul\":7028:7068   */\n  swap3\n  pop\n    /* \"#utility.yul\":6757:7074   */\n  pop\n  pop\n    /* \"#utility.yul\":6681:7074   */\n  swap4\n  swap3\n  pop\n  pop\n  pop\n  jump\t// out\n    /* \"#utility.yul\":7080:7140   */\ntag_45:\n    /* \"#utility.yul\":7108:7111   */\n  0x00\n    /* \"#utility.yul\":7129:7134   */\n  dup2\n    /* \"#utility.yul\":7122:7134   */\n  swap1\n  pop\n    /* \"#utility.yul\":7080:7140   */\n  swap2\n  swap1\n  pop\n  jump\t// out\n    /* \"#utility.yul\":7146:7288   */\ntag_46:\n    /* \"#utility.yul\":7196:7205   */\n  0x00\n    /* \"#utility.yul\":7229:7282   */\n  tag_141\n    /* \"#utility.yul\":7247:7281   */\n  tag_142\n    /* \"#utility.yul\":7256:7280   */\n  tag_143\n    /* \"#utility.yul\":7274:7279   */\n  dup5\n    /* \"#utility.yul\":7256:7280   */\n  tag_20\n  jump\t// in\ntag_143:\n    /* \"#utility.yul\":7247:7281   */\n  tag_45\n  jump\t// in\ntag_142:\n    /* \"#utility.yul\":7229:7282   */\n  tag_20\n  jump\t// in\ntag_141:\n    /* \"#utility.yul\":7216:7282   */\n  swap1\n  pop\n    /* \"#utility.yul\":7146:7288   */\n  swap2\n  swap1\n  pop\n  jump\t// out\n    /* \"#utility.yul\":7294:7369   */\ntag_47:\n    /* \"#utility.yul\":7337:7340   */\n  0x00\n    /* \"#utility.yul\":7358:7363   */\n  dup2\n    /* \"#utility.yul\":7351:7363   */\n  swap1\n  pop\n    /* \"#utility.yul\":7294:7369   */\n  swap2\n  swap1\n  pop\n  jump\t// out\n    /* \"#utility.yul\":7375:7644   */\ntag_48:\n    /* \"#utility.yul\":7485:7524   */\n  tag_146\n    /* \"#utility.yul\":7516:7523   */\n  dup4\n    /* \"#utility.yul\":7485:7524   */\n  tag_46\n  jump\t// in\ntag_146:\n    /* \"#utility.yul\":7546:7637   */\n  tag_147\n    /* \"#utility.yul\":7595:7636   */\n  tag_148\n    /* \"#utility.yul\":7619:7635   */\n  dup3\n    /* \"#utility.yul\":7595:7636   */\n  tag_47\n  jump\t// in\ntag_148:\n    /* \"#utility.yul\":7587:7593   */\n  dup5\n    /* \"#utility.yul\":7580:7584   */\n  dup5\n    /* \"#utility.yul\":7574:7585   */\n  sload\n    /* \"#utility.yul\":7546:7637   */\n  tag_44\n  jump\t// in\ntag_147:\n    /* \"#utility.yul\":7540:7544   */\n  dup3\n    /* \"#utility.yul\":7533:7638   */\n  sstore\n    /* \"#utility.yul\":7451:7644   */\n  pop\n    /* \"#utility.yul\":7375:7644   */\n  pop\n  pop\n  pop\n  jump\t// out\n    /* \"#utility.yul\":7650:7723   */\ntag_49:\n    /* \"#utility.yul\":7695:7698   */\n  0x00\n    /* \"#utility.yul\":7650:7723   */\n  swap1\n  jump\t// out\n    /* \"#utility.yul\":7729:7918   */\ntag_50:\n    /* \"#utility.yul\":7806:7838   */\n  tag_151\n  tag_49\n  jump\t// in\ntag_151:\n    /* \"#utility.yul\":7847:7912   */\n  tag_152\n    /* \"#utility.yul\":7905:7911   */\n  dup2\n    /* \"#utility.yul\":7897:7903   */\n  dup5\n    /* \"#utility.yul\":7891:7895   */\n  dup5\n    /* \"#utility.yul\":7847:7912   */\n  tag_48\n  jump\t// in\ntag_152:\n    /* \"#utility.yul\":7782:7918   */\n  pop\n    /* \"#utility.yul\":7729:7918   */\n  pop\n  pop\n  jump\t// out\n    /* \"#utility.yul\":7924:8110   */\ntag_51:\n    /* \"#utility.yul\":7984:8104   */\ntag_154:\n    /* \"#utility.yul\":8001:8004   */\n  dup2\n    /* \"#utility.yul\":7994:7999   */\n  dup2\n    /* \"#utility.yul\":7991:8005   */\n  lt\n    /* \"#utility.yul\":7984:8104   */\n  iszero\n  tag_156\n  jumpi\n    /* \"#utility.yul\":8055:8094   */\n  tag_157\n    /* \"#utility.yul\":8092:8093   */\n  0x00\n    /* \"#utility.yul\":8085:8090   */\n  dup3\n    /* \"#utility.yul\":8055:8094   */\n  tag_50\n  jump\t// in\ntag_157:\n    /* \"#utility.yul\":8028:8029   */\n  0x01\n    /* \"#utility.yul\":8021:8026   */\n  dup2\n    /* \"#utility.yul\":8017:8030   */\n  add\n    /* \"#utility.yul\":8008:8030   */\n  swap1\n  pop\n    /* \"#utility.yul\":7984:8104   */\n  jump(tag_154)\ntag_156:\n    /* \"#utility.yul\":7924:8110   */\n  pop\n  pop\n  jump\t// out\n    /* \"#utility.yul\":8116:8659   */\ntag_52:\n    /* \"#utility.yul\":8217:8219   */\n  0x1f\n    /* \"#utility.yul\":8212:8215   */\n  dup3\n    /* \"#utility.yul\":8209:8220   */\n  gt\n    /* \"#utility.yul\":8206:8652   */\n  iszero\n  tag_159\n  jumpi\n    /* \"#utility.yul\":8251:8289   */\n  tag_160\n    /* \"#utility.yul\":8283:8288   */\n  dup2\n    /* \"#utility.yul\":8251:8289   */\n  tag_41\n  jump\t// in\ntag_160:\n    /* \"#utility.yul\":8335:8364   */\n  tag_161\n    /* \"#utility.yul\":8353:8363   */\n  dup5\n    /* \"#utility.yul\":8335:8364   */\n  tag_42\n  jump\t// in\ntag_161:\n    /* \"#utility.yul\":8325:8333   */\n  dup2\n    /* \"#utility.yul\":8321:8365   */\n  add\n    /* \"#utility.yul\":8518:8520   */\n  0x20\n    /* \"#utility.yul\":8506:8516   */\n  dup6\n    /* \"#utility.yul\":8503:8521   */\n  lt\n    /* \"#utility.yul\":8500:8549   */\n  iszero\n  tag_162\n  jumpi\n    /* \"#utility.yul\":8539:8547   */\n  dup2\n    /* \"#utility.yul\":8524:8547   */\n  swap1\n  pop\n    /* \"#utility.yul\":8500:8549   */\ntag_162:\n    /* \"#utility.yul\":8562:8642   */\n  tag_163\n    /* \"#utility.yul\":8618:8640   */\n  tag_164\n    /* \"#utility.yul\":8636:8639   */\n  dup6\n    /* \"#utility.yul\":8618:8640   */\n  tag_42\n  jump\t// in\ntag_164:\n    /* \"#utility.yul\":8608:8616   */\n  dup4\n    /* \"#utility.yul\":8604:8641   */\n  add\n    /* \"#utility.yul\":8591:8602   */\n  dup3\n    /* \"#utility.yul\":8562:8642   */\n  tag_51\n  jump\t// in\ntag_163:\n    /* \"#utility.yul\":8221:8652   */\n  pop\n  pop\n    /* \"#utility.yul\":8206:8652   */\ntag_159:\n    /* \"#utility.yul\":8116:8659   */\n  pop\n  pop\n  pop\n  jump\t// out\n    /* \"#utility.yul\":8665:8782   */\ntag_53:\n    /* \"#utility.yul\":8719:8727   */\n  0x00\n    /* \"#utility.yul\":8769:8774   */\n  dup3\n    /* \"#utility.yul\":8763:8767   */\n  dup3\n    /* \"#utility.yul\":8759:8775   */\n  shr\n    /* \"#utility.yul\":8738:8775   */\n  swap1\n  pop\n    /* \"#utility.yul\":8665:8782   */\n  swap3\n  swap2\n  pop\n  pop\n  jump\t// out\n    /* \"#utility.yul\":8788:8957   */\ntag_54:\n    /* \"#utility.yul\":8832:8838   */\n  0x00\n    /* \"#utility.yul\":8865:8916   */\n  tag_167\n    /* \"#utility.yul\":8913:8914   */\n  0x00\n    /* \"#utility.yul\":8909:8915   */\n  not\n    /* \"#utility.yul\":8901:8906   */\n  dup5\n    /* \"#utility.yul\":8898:8899   */\n  0x08\n    /* \"#utility.yul\":8894:8907   */\n  mul\n    /* \"#utility.yul\":8865:8916   */\n  tag_53\n  jump\t// in\ntag_167:\n    /* \"#utility.yul\":8861:8917   */\n  not\n    /* \"#utility.yul\":8946:8950   */\n  dup1\n    /* \"#utility.yul\":8940:8944   */\n  dup4\n    /* \"#utility.yul\":8936:8951   */\n  and\n    /* \"#utility.yul\":8926:8951   */\n  swap2\n  pop\n    /* \"#utility.yul\":8839:8957   */\n  pop\n    /* \"#utility.yul\":8788:8957   */\n  swap3\n  swap2\n  pop\n  pop\n  jump\t// out\n    /* \"#utility.yul\":8962:9257   */\ntag_55:\n    /* \"#utility.yul\":9038:9042   */\n  0x00\n    /* \"#utility.yul\":9184:9213   */\n  tag_169\n    /* \"#utility.yul\":9209:9212   */\n  dup4\n    /* \"#utility.yul\":9203:9207   */\n  dup4\n    /* \"#utility.yul\":9184:9213   */\n  tag_54\n  jump\t// in\ntag_169:\n    /* \"#utility.yul\":9176:9213   */\n  swap2\n  pop\n    /* \"#utility.yul\":9246:9249   */\n  dup3\n    /* \"#utility.yul\":9243:9244   */\n  0x02\n    /* \"#utility.yul\":9239:9250   */\n  mul\n    /* \"#utility.yul\":9233:9237   */\n  dup3\n    /* \"#utility.yul\":9230:9251   */\n  or\n    /* \"#utility.yul\":9222:9251   */\n  swap1\n  pop\n    /* \"#utility.yul\":8962:9257   */\n  swap3\n  swap2\n  pop\n  pop\n  jump\t// out\n    /* \"#utility.yul\":9262:10657   */\ntag_14:\n    /* \"#utility.yul\":9379:9416   */\n  tag_171\n    /* \"#utility.yul\":9412:9415   */\n  dup3\n    /* \"#utility.yul\":9379:9416   */\n  tag_38\n  jump\t// in\ntag_171:\n    /* \"#utility.yul\":9481:9499   */\n  0xffffffffffffffff\n    /* \"#utility.yul\":9473:9479   */\n  dup2\n    /* \"#utility.yul\":9470:9500   */\n  gt\n    /* \"#utility.yul\":9467:9523   */\n  iszero\n  tag_172\n  jumpi\n    /* \"#utility.yul\":9503:9521   */\n  tag_173\n  tag_30\n  jump\t// in\ntag_173:\n    /* \"#utility.yul\":9467:9523   */\ntag_172:\n    /* \"#utility.yul\":9547:9585   */\n  tag_174\n    /* \"#utility.yul\":9579:9583   */\n  dup3\n    /* \"#utility.yul\":9573:9584   */\n  sload\n    /* \"#utility.yul\":9547:9585   */\n  tag_40\n  jump\t// in\ntag_174:\n    /* \"#utility.yul\":9632:9699   */\n  tag_175\n    /* \"#utility.yul\":9692:9698   */\n  dup3\n    /* \"#utility.yul\":9684:9690   */\n  dup3\n    /* \"#utility.yul\":9678:9682   */\n  dup6\n    /* \"#utility.yul\":9632:9699   */\n  tag_52\n  jump\t// in\ntag_175:\n    /* \"#utility.yul\":9726:9727   */\n  0x00\n    /* \"#utility.yul\":9750:9754   */\n  0x20\n    /* \"#utility.yul\":9737:9754   */\n  swap1\n  pop\n    /* \"#utility.yul\":9782:9784   */\n  0x1f\n    /* \"#utility.yul\":9774:9780   */\n  dup4\n    /* \"#utility.yul\":9771:9785   */\n  gt\n    /* \"#utility.yul\":9799:9800   */\n  0x01\n    /* \"#utility.yul\":9794:10412   */\n  dup2\n  eq\n  tag_177\n  jumpi\n    /* \"#utility.yul\":10456:10457   */\n  0x00\n    /* \"#utility.yul\":10473:10479   */\n  dup5\n    /* \"#utility.yul\":10470:10547   */\n  iszero\n  tag_178\n  jumpi\n    /* \"#utility.yul\":10522:10531   */\n  dup3\n    /* \"#utility.yul\":10517:10520   */\n  dup8\n    /* \"#utility.yul\":10513:10532   */\n  add\n    /* \"#utility.yul\":10507:10533   */\n  mload\n    /* \"#utility.yul\":10498:10533   */\n  swap1\n  pop\n    /* \"#utility.yul\":10470:10547   */\ntag_178:\n    /* \"#utility.yul\":10573:10640   */\n  tag_179\n    /* \"#utility.yul\":10633:10639   */\n  dup6\n    /* \"#utility.yul\":10626:10631   */\n  dup3\n    /* \"#utility.yul\":10573:10640   */\n  tag_55\n  jump\t// in\ntag_179:\n    /* \"#utility.yul\":10567:10571   */\n  dup7\n    /* \"#utility.yul\":10560:10641   */\n  sstore\n    /* \"#utility.yul\":10429:10651   */\n  pop\n    /* \"#utility.yul\":9764:10651   */\n  jump(tag_176)\n    /* \"#utility.yul\":9794:10412   */\ntag_177:\n    /* \"#utility.yul\":9846:9850   */\n  0x1f\n    /* \"#utility.yul\":9842:9851   */\n  not\n    /* \"#utility.yul\":9834:9840   */\n  dup5\n    /* \"#utility.yul\":9830:9852   */\n  and\n    /* \"#utility.yul\":9880:9917   */\n  tag_180\n    /* \"#utility.yul\":9912:9916   */\n  dup7\n    /* \"#utility.yul\":9880:9917   */\n  tag_41\n  jump\t// in\ntag_180:\n    /* \"#utility.yul\":9939:9940   */\n  0x00\n    /* \"#utility.yul\":9953:10161   */\ntag_181:\n    /* \"#utility.yul\":9967:9974   */\n  dup3\n    /* \"#utility.yul\":9964:9965   */\n  dup2\n    /* \"#utility.yul\":9961:9975   */\n  lt\n    /* \"#utility.yul\":9953:10161   */\n  iszero\n  tag_183\n  jumpi\n    /* \"#utility.yul\":10046:10055   */\n  dup5\n    /* \"#utility.yul\":10041:10044   */\n  dup10\n    /* \"#utility.yul\":10037:10056   */\n  add\n    /* \"#utility.yul\":10031:10057   */\n  mload\n    /* \"#utility.yul\":10023:10029   */\n  dup3\n    /* \"#utility.yul\":10016:10058   */\n  sstore\n    /* \"#utility.yul\":10097:10098   */\n  0x01\n    /* \"#utility.yul\":10089:10095   */\n  dup3\n    /* \"#utility.yul\":10085:10099   */\n  add\n    /* \"#utility.yul\":10075:10099   */\n  swap2\n  pop\n    /* \"#utility.yul\":10144:10146   */\n  0x20\n    /* \"#utility.yul\":10133:10142   */\n  dup6\n    /* \"#utility.yul\":10129:10147   */\n  add\n    /* \"#utility.yul\":10116:10147   */\n  swap5\n  pop\n    /* \"#utility.yul\":9990:9994   */\n  0x20\n    /* \"#utility.yul\":9987:9988   */\n  dup2\n    /* \"#utility.yul\":9983:9995   */\n  add\n    /* \"#utility.yul\":9978:9995   */\n  swap1\n  pop\n    /* \"#utility.yul\":9953:10161   */\n  jump(tag_181)\ntag_183:\n    /* \"#utility.yul\":10189:10195   */\n  dup7\n    /* \"#utility.yul\":10180:10187   */\n  dup4\n    /* \"#utility.yul\":10177:10196   */\n  lt\n    /* \"#utility.yul\":10174:10353   */\n  iszero\n  tag_184\n  jumpi\n    /* \"#utility.yul\":10247:10256   */\n  dup5\n    /* \"#utility.yul\":10242:10245   */\n  dup10\n    /* \"#utility.yul\":10238:10257   */\n  add\n    /* \"#utility.yul\":10232:10258   */\n  mload\n    /* \"#utility.yul\":10290:10338   */\n  tag_185\n    /* \"#utility.yul\":10332:10336   */\n  0x1f\n    /* \"#utility.yul\":10324:10330   */\n  dup10\n    /* \"#utility.yul\":10320:10337   */\n  and\n    /* \"#utility.yul\":10309:10318   */\n  dup3\n    /* \"#utility.yul\":10290:10338   */\n  tag_54\n  jump\t// in\ntag_185:\n    /* \"#utility.yul\":10282:10288   */\n  dup4\n    /* \"#utility.yul\":10275:10339   */\n  sstore\n    /* \"#utility.yul\":10197:10353   */\n  pop\n    /* \"#utility.yul\":10174:10353   */\ntag_184:\n    /* \"#utility.yul\":10399:10400   */\n  0x01\n    /* \"#utility.yul\":10395:10396   */\n  0x02\n    /* \"#utility.yul\":10387:10393   */\n  dup9\n    /* \"#utility.yul\":10383:10397   */\n  mul\n    /* \"#utility.yul\":10379:10401   */\n  add\n    /* \"#utility.yul\":10373:10377   */\n  dup9\n    /* \"#utility.yul\":10366:10402   */\n  sstore\n    /* \"#utility.yul\":9801:10412   */\n  pop\n  pop\n  pop\n    /* \"#utility.yul\":9764:10651   */\ntag_176:\n  pop\n    /* \"#utility.yul\":9354:10657   */\n  pop\n  pop\n  pop\n    /* \"#utility.yul\":9262:10657   */\n  pop\n  pop\n  jump\t// out\n    /* \"Auction.sol\":1221:3190  contract MyAuction is Auction {... */\ntag_16:\n  dataSize(sub_0)\n  dup1\n  dataOffset(sub_0)\n  0x00\n  codecopy\n  0x00\n  return\nstop\n\nsub_0: assembly {\n        /* \"Auction.sol\":1221:3190  contract MyAuction is Auction {... */\n      mstore(0x40, 0x80)\n      jumpi(tag_1, lt(calldatasize, 0x04))\n      shr(0xe0, calldataload(0x00))\n      dup1\n      0x8fa8b790\n      gt\n      tag_15\n      jumpi\n      dup1\n      0xc486456c\n      gt\n      tag_16\n      jumpi\n      dup1\n      0xc486456c\n      eq\n      tag_11\n      jumpi\n      dup1\n      0xcff29dfd\n      eq\n      tag_12\n      jumpi\n      dup1\n      0xd57bde79\n      eq\n      tag_13\n      jumpi\n      dup1\n      0xddfcec08\n      eq\n      tag_14\n      jumpi\n      jump(tag_1)\n    tag_16:\n      dup1\n      0x8fa8b790\n      eq\n      tag_8\n      jumpi\n      dup1\n      0x91f90157\n      eq\n      tag_9\n      jumpi\n      dup1\n      0xc458b65a\n      eq\n      tag_10\n      jumpi\n      jump(tag_1)\n    tag_15:\n      dup1\n      0x0216f202\n      eq\n      tag_2\n      jumpi\n      dup1\n      0x1998aeef\n      eq\n      tag_3\n      jumpi\n      dup1\n      0x3ccfd60b\n      eq\n      tag_4\n      jumpi\n      dup1\n      0x62ea82db\n      eq\n      tag_5\n      jumpi\n      dup1\n      0x78f45340\n      eq\n      tag_6\n      jumpi\n      dup1\n      0x893d20e8\n      eq\n      tag_7\n      jumpi\n    tag_1:\n      0x00\n      dup1\n      revert\n        /* \"Auction.sol\":405:421  Car public Mycar */\n    tag_2:\n      callvalue\n      dup1\n      iszero\n      tag_17\n      jumpi\n      0x00\n      dup1\n      revert\n    tag_17:\n      pop\n      tag_18\n      tag_19\n      jump\t// in\n    tag_18:\n      mload(0x40)\n      tag_20\n      swap3\n      swap2\n      swap1\n      tag_21\n      jump\t// in\n    tag_20:\n      mload(0x40)\n      dup1\n      swap2\n      sub\n      swap1\n      return\n        /* \"Auction.sol\":1615:2029  function bid() public override payable anOngoingAuction returns (bool) {... */\n    tag_3:\n      tag_22\n      tag_23\n      jump\t// in\n    tag_22:\n      mload(0x40)\n      tag_24\n      swap2\n      swap1\n      tag_25\n      jump\t// in\n    tag_24:\n      mload(0x40)\n      dup1\n      swap2\n      sub\n      swap1\n      return\n        /* \"Auction.sol\":2715:3090  function withdraw() override  public returns (bool) {... */\n    tag_4:\n      callvalue\n      dup1\n      iszero\n      tag_26\n      jumpi\n      0x00\n      dup1\n      revert\n    tag_26:\n      pop\n      tag_27\n      tag_28\n      jump\t// in\n    tag_27:\n      mload(0x40)\n      tag_29\n      swap2\n      swap1\n      tag_25\n      jump\t// in\n    tag_29:\n      mload(0x40)\n      dup1\n      swap2\n      sub\n      swap1\n      return\n        /* \"Auction.sol\":461:500  mapping(address => uint256) public bids */\n    tag_5:\n      callvalue\n      dup1\n      iszero\n      tag_30\n      jumpi\n      0x00\n      dup1\n      revert\n    tag_30:\n      pop\n      tag_31\n      0x04\n      dup1\n      calldatasize\n      sub\n      dup2\n      add\n      swap1\n      tag_32\n      swap2\n      swap1\n      tag_33\n      jump\t// in\n    tag_32:\n      tag_34\n      jump\t// in\n    tag_31:\n      mload(0x40)\n      tag_35\n      swap2\n      swap1\n      tag_36\n      jump\t// in\n    tag_35:\n      mload(0x40)\n      dup1\n      swap2\n      sub\n      swap1\n      return\n        /* \"Auction.sol\":124:152  uint256 public auction_start */\n    tag_6:\n      callvalue\n      dup1\n      iszero\n      tag_37\n      jumpi\n      0x00\n      dup1\n      revert\n    tag_37:\n      pop\n      tag_38\n      tag_39\n      jump\t// in\n    tag_38:\n      mload(0x40)\n      tag_40\n      swap2\n      swap1\n      tag_36\n      jump\t// in\n    tag_40:\n      mload(0x40)\n      dup1\n      swap2\n      sub\n      swap1\n      return\n        /* \"Auction.sol\":3098:3187  function getOwner() public view returns (address) {... */\n    tag_7:\n      callvalue\n      dup1\n      iszero\n      tag_41\n      jumpi\n      0x00\n      dup1\n      revert\n    tag_41:\n      pop\n      tag_42\n      tag_43\n      jump\t// in\n    tag_42:\n      mload(0x40)\n      tag_44\n      swap2\n      swap1\n      tag_45\n      jump\t// in\n    tag_44:\n      mload(0x40)\n      dup1\n      swap2\n      sub\n      swap1\n      return\n        /* \"Auction.sol\":2037:2260  function cancelAuction() external override onlyOwner anOngoingAuction returns (bool) {... */\n    tag_8:\n      callvalue\n      dup1\n      iszero\n      tag_46\n      jumpi\n      0x00\n      dup1\n      revert\n    tag_46:\n      pop\n      tag_47\n      tag_48\n      jump\t// in\n    tag_47:\n      mload(0x40)\n      tag_49\n      swap2\n      swap1\n      tag_25\n      jump\t// in\n    tag_49:\n      mload(0x40)\n      dup1\n      swap2\n      sub\n      swap1\n      return\n        /* \"Auction.sol\":224:252  address public highestBidder */\n    tag_9:\n      callvalue\n      dup1\n      iszero\n      tag_50\n      jumpi\n      0x00\n      dup1\n      revert\n    tag_50:\n      pop\n      tag_51\n      tag_52\n      jump\t// in\n    tag_51:\n      mload(0x40)\n      tag_53\n      swap2\n      swap1\n      tag_45\n      jump\t// in\n    tag_53:\n      mload(0x40)\n      dup1\n      swap2\n      sub\n      swap1\n      return\n        /* \"Auction.sol\":159:185  uint256 public auction_end */\n    tag_10:\n      callvalue\n      dup1\n      iszero\n      tag_54\n      jumpi\n      0x00\n      dup1\n      revert\n    tag_54:\n      pop\n      tag_55\n      tag_56\n      jump\t// in\n    tag_55:\n      mload(0x40)\n      tag_57\n      swap2\n      swap1\n      tag_36\n      jump\t// in\n    tag_57:\n      mload(0x40)\n      dup1\n      swap2\n      sub\n      swap1\n      return\n        /* \"Auction.sol\":509:534  AuctionState public STATE */\n    tag_11:\n      callvalue\n      dup1\n      iszero\n      tag_58\n      jumpi\n      0x00\n      dup1\n      revert\n    tag_58:\n      pop\n      tag_59\n      tag_60\n      jump\t// in\n    tag_59:\n      mload(0x40)\n      tag_61\n      swap2\n      swap1\n      tag_62\n      jump\t// in\n    tag_61:\n      mload(0x40)\n      dup1\n      swap2\n      sub\n      swap1\n      return\n        /* \"Auction.sol\":428:452  address[] public bidders */\n    tag_12:\n      callvalue\n      dup1\n      iszero\n      tag_63\n      jumpi\n      0x00\n      dup1\n      revert\n    tag_63:\n      pop\n      tag_64\n      0x04\n      dup1\n      calldatasize\n      sub\n      dup2\n      add\n      swap1\n      tag_65\n      swap2\n      swap1\n      tag_66\n      jump\t// in\n    tag_65:\n      tag_67\n      jump\t// in\n    tag_64:\n      mload(0x40)\n      tag_68\n      swap2\n      swap1\n      tag_45\n      jump\t// in\n    tag_68:\n      mload(0x40)\n      dup1\n      swap2\n      sub\n      swap1\n      return\n        /* \"Auction.sol\":192:217  uint256 public highestBid */\n    tag_13:\n      callvalue\n      dup1\n      iszero\n      tag_69\n      jumpi\n      0x00\n      dup1\n      revert\n    tag_69:\n      pop\n      tag_70\n      tag_71\n      jump\t// in\n    tag_70:\n      mload(0x40)\n      tag_72\n      swap2\n      swap1\n      tag_36\n      jump\t// in\n    tag_72:\n      mload(0x40)\n      dup1\n      swap2\n      sub\n      swap1\n      return\n        /* \"Auction.sol\":2268:2707  function destructAuction() external onlyOwner returns (bool) {... */\n    tag_14:\n      callvalue\n      dup1\n      iszero\n      tag_73\n      jumpi\n      0x00\n      dup1\n      revert\n    tag_73:\n      pop\n      tag_74\n      tag_75\n      jump\t// in\n    tag_74:\n      mload(0x40)\n      tag_76\n      swap2\n      swap1\n      tag_25\n      jump\t// in\n    tag_76:\n      mload(0x40)\n      dup1\n      swap2\n      sub\n      swap1\n      return\n        /* \"Auction.sol\":405:421  Car public Mycar */\n    tag_19:\n      0x05\n      dup1\n      0x00\n      add\n      dup1\n      sload\n      tag_77\n      swap1\n      tag_78\n      jump\t// in\n    tag_77:\n      dup1\n      0x1f\n      add\n      0x20\n      dup1\n      swap2\n      div\n      mul\n      0x20\n      add\n      mload(0x40)\n      swap1\n      dup2\n      add\n      0x40\n      mstore\n      dup1\n      swap3\n      swap2\n      swap1\n      dup2\n      dup2\n      mstore\n      0x20\n      add\n      dup3\n      dup1\n      sload\n      tag_79\n      swap1\n      tag_78\n      jump\t// in\n    tag_79:\n      dup1\n      iszero\n      tag_80\n      jumpi\n      dup1\n      0x1f\n      lt\n      tag_81\n      jumpi\n      0x0100\n      dup1\n      dup4\n      sload\n      div\n      mul\n      dup4\n      mstore\n      swap2\n      0x20\n      add\n      swap2\n      jump(tag_80)\n    tag_81:\n      dup3\n      add\n      swap2\n      swap1\n      0x00\n      mstore\n      keccak256(0x00, 0x20)\n      swap1\n    tag_82:\n      dup2\n      sload\n      dup2\n      mstore\n      swap1\n      0x01\n      add\n      swap1\n      0x20\n      add\n      dup1\n      dup4\n      gt\n      tag_82\n      jumpi\n      dup3\n      swap1\n      sub\n      0x1f\n      and\n      dup3\n      add\n      swap2\n    tag_80:\n      pop\n      pop\n      pop\n      pop\n      pop\n      swap1\n      dup1\n      0x01\n      add\n      dup1\n      sload\n      tag_83\n      swap1\n      tag_78\n      jump\t// in\n    tag_83:\n      dup1\n      0x1f\n      add\n      0x20\n      dup1\n      swap2\n      div\n      mul\n      0x20\n      add\n      mload(0x40)\n      swap1\n      dup2\n      add\n      0x40\n      mstore\n      dup1\n      swap3\n      swap2\n      swap1\n      dup2\n      dup2\n      mstore\n      0x20\n      add\n      dup3\n      dup1\n      sload\n      tag_84\n      swap1\n      tag_78\n      jump\t// in\n    tag_84:\n      dup1\n      iszero\n      tag_85\n      jumpi\n      dup1\n      0x1f\n      lt\n      tag_86\n      jumpi\n      0x0100\n      dup1\n      dup4\n      sload\n      div\n      mul\n      dup4\n      mstore\n      swap2\n      0x20\n      add\n      swap2\n      jump(tag_85)\n    tag_86:\n      dup3\n      add\n      swap2\n      swap1\n      0x00\n      mstore\n      keccak256(0x00, 0x20)\n      swap1\n    tag_87:\n      dup2\n      sload\n      dup2\n      mstore\n      swap1\n      0x01\n      add\n      swap1\n      0x20\n      add\n      dup1\n      dup4\n      gt\n      tag_87\n      jumpi\n      dup3\n      swap1\n      sub\n      0x1f\n      and\n      dup3\n      add\n      swap2\n    tag_85:\n      pop\n      pop\n      pop\n      pop\n      pop\n      swap1\n      pop\n      dup3\n      jump\t// out\n        /* \"Auction.sol\":1615:2029  function bid() public override payable anOngoingAuction returns (bool) {... */\n    tag_23:\n        /* \"Auction.sol\":1680:1684  bool */\n      0x00\n        /* \"Auction.sol\":609:620  auction_end */\n      sload(0x02)\n        /* \"Auction.sol\":590:605  block.timestamp */\n      timestamp\n        /* \"Auction.sol\":590:620  block.timestamp <= auction_end */\n      gt\n      iszero\n        /* \"Auction.sol\":590:653  block.timestamp <= auction_end && STATE!=AuctionState.CANCELLED */\n      dup1\n      iszero\n      tag_89\n      jumpi\n      pop\n        /* \"Auction.sol\":631:653  AuctionState.CANCELLED */\n      0x00\n        /* \"Auction.sol\":624:653  STATE!=AuctionState.CANCELLED */\n      0x01\n      dup2\n      gt\n      iszero\n      tag_90\n      jumpi\n      tag_91\n      tag_92\n      jump\t// in\n    tag_91:\n    tag_90:\n        /* \"Auction.sol\":624:629  STATE */\n      0x09\n      0x00\n      swap1\n      sload\n      swap1\n      0x0100\n      exp\n      swap1\n      div\n      0xff\n      and\n        /* \"Auction.sol\":624:653  STATE!=AuctionState.CANCELLED */\n      0x01\n      dup2\n      gt\n      iszero\n      tag_93\n      jumpi\n      tag_94\n      tag_92\n      jump\t// in\n    tag_94:\n    tag_93:\n      eq\n      iszero\n        /* \"Auction.sol\":590:653  block.timestamp <= auction_end && STATE!=AuctionState.CANCELLED */\n    tag_89:\n        /* \"Auction.sol\":582:675  require(block.timestamp <= auction_end && STATE!=AuctionState.CANCELLED, \"Auction has ended\") */\n      tag_95\n      jumpi\n      mload(0x40)\n      0x08c379a000000000000000000000000000000000000000000000000000000000\n      dup2\n      mstore\n      0x04\n      add\n      tag_96\n      swap1\n      tag_97\n      jump\t// in\n    tag_96:\n      mload(0x40)\n      dup1\n      swap2\n      sub\n      swap1\n      revert\n    tag_95:\n        /* \"Auction.sol\":1756:1766  highestBid */\n      sload(0x03)\n        /* \"Auction.sol\":1744:1753  msg.value */\n      callvalue\n        /* \"Auction.sol\":1725:1729  bids */\n      0x08\n        /* \"Auction.sol\":1725:1741  bids[msg.sender] */\n      0x00\n        /* \"Auction.sol\":1730:1740  msg.sender */\n      caller\n        /* \"Auction.sol\":1725:1741  bids[msg.sender] */\n      0xffffffffffffffffffffffffffffffffffffffff\n      and\n      0xffffffffffffffffffffffffffffffffffffffff\n      and\n      dup2\n      mstore\n      0x20\n      add\n      swap1\n      dup2\n      mstore\n      0x20\n      add\n      0x00\n      keccak256\n      sload\n        /* \"Auction.sol\":1725:1753  bids[msg.sender] + msg.value */\n      tag_99\n      swap2\n      swap1\n      tag_100\n      jump\t// in\n    tag_99:\n        /* \"Auction.sol\":1725:1766  bids[msg.sender] + msg.value > highestBid */\n      gt\n        /* \"Auction.sol\":1717:1803  require(bids[msg.sender] + msg.value > highestBid, \"You can't bid, Make a higher Bid\") */\n      tag_101\n      jumpi\n      mload(0x40)\n      0x08c379a000000000000000000000000000000000000000000000000000000000\n      dup2\n      mstore\n      0x04\n      add\n      tag_102\n      swap1\n      tag_103\n      jump\t// in\n    tag_102:\n      mload(0x40)\n      dup1\n      swap2\n      sub\n      swap1\n      revert\n    tag_101:\n        /* \"Auction.sol\":1830:1840  msg.sender */\n      caller\n        /* \"Auction.sol\":1814:1827  highestBidder */\n      0x04\n      0x00\n        /* \"Auction.sol\":1814:1840  highestBidder = msg.sender */\n      0x0100\n      exp\n      dup2\n      sload\n      dup2\n      0xffffffffffffffffffffffffffffffffffffffff\n      mul\n      not\n      and\n      swap1\n      dup4\n      0xffffffffffffffffffffffffffffffffffffffff\n      and\n      mul\n      or\n      swap1\n      sstore\n      pop\n        /* \"Auction.sol\":1864:1873  msg.value */\n      callvalue\n        /* \"Auction.sol\":1851:1861  highestBid */\n      0x03\n        /* \"Auction.sol\":1851:1873  highestBid = msg.value */\n      dup2\n      swap1\n      sstore\n      pop\n        /* \"Auction.sol\":1884:1891  bidders */\n      0x07\n        /* \"Auction.sol\":1897:1907  msg.sender */\n      caller\n        /* \"Auction.sol\":1884:1908  bidders.push(msg.sender) */\n      swap1\n      dup1\n      0x01\n      dup2\n      sload\n      add\n      dup1\n      dup3\n      sstore\n      dup1\n      swap2\n      pop\n      pop\n      0x01\n      swap1\n      sub\n      swap1\n      0x00\n      mstore\n      keccak256(0x00, 0x20)\n      add\n      0x00\n      swap1\n      swap2\n      swap1\n      swap2\n      swap1\n      swap2\n      0x0100\n      exp\n      dup2\n      sload\n      dup2\n      0xffffffffffffffffffffffffffffffffffffffff\n      mul\n      not\n      and\n      swap1\n      dup4\n      0xffffffffffffffffffffffffffffffffffffffff\n      and\n      mul\n      or\n      swap1\n      sstore\n      pop\n        /* \"Auction.sol\":1939:1948  msg.value */\n      callvalue\n        /* \"Auction.sol\":1919:1923  bids */\n      0x08\n        /* \"Auction.sol\":1919:1935  bids[msg.sender] */\n      0x00\n        /* \"Auction.sol\":1924:1934  msg.sender */\n      caller\n        /* \"Auction.sol\":1919:1935  bids[msg.sender] */\n      0xffffffffffffffffffffffffffffffffffffffff\n      and\n      0xffffffffffffffffffffffffffffffffffffffff\n      and\n      dup2\n      mstore\n      0x20\n      add\n      swap1\n      dup2\n      mstore\n      0x20\n      add\n      0x00\n      keccak256\n      0x00\n        /* \"Auction.sol\":1919:1948  bids[msg.sender] += msg.value */\n      dup3\n      dup3\n      sload\n      tag_105\n      swap2\n      swap1\n      tag_100\n      jump\t// in\n    tag_105:\n      swap3\n      pop\n      pop\n      dup2\n      swap1\n      sstore\n      pop\n        /* \"Auction.sol\":1973:1986  highestBidder */\n      0x04\n      0x00\n      swap1\n      sload\n      swap1\n      0x0100\n      exp\n      swap1\n      div\n      0xffffffffffffffffffffffffffffffffffffffff\n      and\n        /* \"Auction.sol\":1964:1999  BidEvent(highestBidder, highestBid) */\n      0xffffffffffffffffffffffffffffffffffffffff\n      and\n      0x0d993d4f8a84158f5329713d6d13ef54e77b325040c887c8b3e565cfd0cd3e21\n        /* \"Auction.sol\":1988:1998  highestBid */\n      sload(0x03)\n        /* \"Auction.sol\":1964:1999  BidEvent(highestBidder, highestBid) */\n      mload(0x40)\n      tag_106\n      swap2\n      swap1\n      tag_36\n      jump\t// in\n    tag_106:\n      mload(0x40)\n      dup1\n      swap2\n      sub\n      swap1\n      log2\n        /* \"Auction.sol\":2017:2021  true */\n      0x01\n        /* \"Auction.sol\":2010:2021  return true */\n      swap1\n      pop\n        /* \"Auction.sol\":1615:2029  function bid() public override payable anOngoingAuction returns (bool) {... */\n      swap1\n      jump\t// out\n        /* \"Auction.sol\":2715:3090  function withdraw() override  public returns (bool) {... */\n    tag_28:\n        /* \"Auction.sol\":2761:2765  bool */\n      0x00\n        /* \"Auction.sol\":2803:2825  AuctionState.CANCELLED */\n      dup1\n        /* \"Auction.sol\":2796:2825  STATE==AuctionState.CANCELLED */\n      0x01\n      dup2\n      gt\n      iszero\n      tag_108\n      jumpi\n      tag_109\n      tag_92\n      jump\t// in\n    tag_109:\n    tag_108:\n        /* \"Auction.sol\":2796:2801  STATE */\n      0x09\n      0x00\n      swap1\n      sload\n      swap1\n      0x0100\n      exp\n      swap1\n      div\n      0xff\n      and\n        /* \"Auction.sol\":2796:2825  STATE==AuctionState.CANCELLED */\n      0x01\n      dup2\n      gt\n      iszero\n      tag_110\n      jumpi\n      tag_111\n      tag_92\n      jump\t// in\n    tag_111:\n    tag_110:\n      eq\n        /* \"Auction.sol\":2796:2858  STATE==AuctionState.CANCELLED || block.timestamp > auction_end */\n      dup1\n      tag_112\n      jumpi\n      pop\n        /* \"Auction.sol\":2847:2858  auction_end */\n      sload(0x02)\n        /* \"Auction.sol\":2829:2844  block.timestamp */\n      timestamp\n        /* \"Auction.sol\":2829:2858  block.timestamp > auction_end */\n      gt\n        /* \"Auction.sol\":2796:2858  STATE==AuctionState.CANCELLED || block.timestamp > auction_end */\n    tag_112:\n        /* \"Auction.sol\":2788:2887  require(STATE==AuctionState.CANCELLED || block.timestamp > auction_end, \"Auction is still ongoing\") */\n      tag_113\n      jumpi\n      mload(0x40)\n      0x08c379a000000000000000000000000000000000000000000000000000000000\n      dup2\n      mstore\n      0x04\n      add\n      tag_114\n      swap1\n      tag_115\n      jump\t// in\n    tag_114:\n      mload(0x40)\n      dup1\n      swap2\n      sub\n      swap1\n      revert\n    tag_113:\n        /* \"Auction.sol\":2898:2912  uint256 amount */\n      0x00\n        /* \"Auction.sol\":2915:2919  bids */\n      0x08\n        /* \"Auction.sol\":2915:2931  bids[msg.sender] */\n      0x00\n        /* \"Auction.sol\":2920:2930  msg.sender */\n      caller\n        /* \"Auction.sol\":2915:2931  bids[msg.sender] */\n      0xffffffffffffffffffffffffffffffffffffffff\n      and\n      0xffffffffffffffffffffffffffffffffffffffff\n      and\n      dup2\n      mstore\n      0x20\n      add\n      swap1\n      dup2\n      mstore\n      0x20\n      add\n      0x00\n      keccak256\n      sload\n        /* \"Auction.sol\":2898:2931  uint256 amount = bids[msg.sender] */\n      swap1\n      pop\n        /* \"Auction.sol\":2961:2962  0 */\n      0x00\n        /* \"Auction.sol\":2942:2946  bids */\n      0x08\n        /* \"Auction.sol\":2942:2958  bids[msg.sender] */\n      0x00\n        /* \"Auction.sol\":2947:2957  msg.sender */\n      caller\n        /* \"Auction.sol\":2942:2958  bids[msg.sender] */\n      0xffffffffffffffffffffffffffffffffffffffff\n      and\n      0xffffffffffffffffffffffffffffffffffffffff\n      and\n      dup2\n      mstore\n      0x20\n      add\n      swap1\n      dup2\n      mstore\n      0x20\n      add\n      0x00\n      keccak256\n        /* \"Auction.sol\":2942:2962  bids[msg.sender] = 0 */\n      dup2\n      swap1\n      sstore\n      pop\n        /* \"Auction.sol\":2981:2991  msg.sender */\n      caller\n        /* \"Auction.sol\":2973:3001  payable(msg.sender).transfer */\n      0xffffffffffffffffffffffffffffffffffffffff\n      and\n        /* \"Auction.sol\":2973:3009  payable(msg.sender).transfer(amount) */\n      0x08fc\n        /* \"Auction.sol\":3002:3008  amount */\n      dup3\n        /* \"Auction.sol\":2973:3009  payable(msg.sender).transfer(amount) */\n      swap1\n      dup2\n      iszero\n      mul\n      swap1\n      mload(0x40)\n      0x00\n      mload(0x40)\n      dup1\n      dup4\n      sub\n      dup2\n      dup6\n      dup9\n      dup9\n      call\n      swap4\n      pop\n      pop\n      pop\n      pop\n      iszero\n      dup1\n      iszero\n      tag_117\n      jumpi\n      returndatasize\n      0x00\n      dup1\n      returndatacopy\n      revert(0x00, returndatasize)\n    tag_117:\n      pop\n        /* \"Auction.sol\":3025:3060  WithdrawalEvent(msg.sender, amount) */\n      0x2f174ca282119315c59efaf21147aef438581dabdeb498198ae28964373dd8bc\n        /* \"Auction.sol\":3041:3051  msg.sender */\n      caller\n        /* \"Auction.sol\":3053:3059  amount */\n      dup3\n        /* \"Auction.sol\":3025:3060  WithdrawalEvent(msg.sender, amount) */\n      mload(0x40)\n      tag_118\n      swap3\n      swap2\n      swap1\n      tag_119\n      jump\t// in\n    tag_118:\n      mload(0x40)\n      dup1\n      swap2\n      sub\n      swap1\n      log1\n        /* \"Auction.sol\":3078:3082  true */\n      0x01\n        /* \"Auction.sol\":3071:3082  return true */\n      swap2\n      pop\n      pop\n        /* \"Auction.sol\":2715:3090  function withdraw() override  public returns (bool) {... */\n      swap1\n      jump\t// out\n        /* \"Auction.sol\":461:500  mapping(address => uint256) public bids */\n    tag_34:\n      mstore(0x20, 0x08)\n      dup1\n      0x00\n      mstore\n      keccak256(0x00, 0x40)\n      0x00\n      swap2\n      pop\n      swap1\n      pop\n      sload\n      dup2\n      jump\t// out\n        /* \"Auction.sol\":124:152  uint256 public auction_start */\n    tag_39:\n      sload(0x01)\n      dup2\n      jump\t// out\n        /* \"Auction.sol\":3098:3187  function getOwner() public view returns (address) {... */\n    tag_43:\n        /* \"Auction.sol\":3139:3146  address */\n      0x00\n        /* \"Auction.sol\":3166:3179  auction_owner */\n      dup1\n      0x00\n      swap1\n      sload\n      swap1\n      0x0100\n      exp\n      swap1\n      div\n      0xffffffffffffffffffffffffffffffffffffffff\n      and\n        /* \"Auction.sol\":3159:3179  return auction_owner */\n      swap1\n      pop\n        /* \"Auction.sol\":3098:3187  function getOwner() public view returns (address) {... */\n      swap1\n      jump\t// out\n        /* \"Auction.sol\":2037:2260  function cancelAuction() external override onlyOwner anOngoingAuction returns (bool) {... */\n    tag_48:\n        /* \"Auction.sol\":2116:2120  bool */\n      0x00\n        /* \"Auction.sol\":757:770  auction_owner */\n      dup1\n      0x00\n      swap1\n      sload\n      swap1\n      0x0100\n      exp\n      swap1\n      div\n      0xffffffffffffffffffffffffffffffffffffffff\n      and\n        /* \"Auction.sol\":743:770  msg.sender == auction_owner */\n      0xffffffffffffffffffffffffffffffffffffffff\n      and\n        /* \"Auction.sol\":743:753  msg.sender */\n      caller\n        /* \"Auction.sol\":743:770  msg.sender == auction_owner */\n      0xffffffffffffffffffffffffffffffffffffffff\n      and\n      eq\n        /* \"Auction.sol\":735:816  require(msg.sender == auction_owner, \"Only auction owner can call this function\") */\n      tag_122\n      jumpi\n      mload(0x40)\n      0x08c379a000000000000000000000000000000000000000000000000000000000\n      dup2\n      mstore\n      0x04\n      add\n      tag_123\n      swap1\n      tag_124\n      jump\t// in\n    tag_123:\n      mload(0x40)\n      dup1\n      swap2\n      sub\n      swap1\n      revert\n    tag_122:\n        /* \"Auction.sol\":609:620  auction_end */\n      sload(0x02)\n        /* \"Auction.sol\":590:605  block.timestamp */\n      timestamp\n        /* \"Auction.sol\":590:620  block.timestamp <= auction_end */\n      gt\n      iszero\n        /* \"Auction.sol\":590:653  block.timestamp <= auction_end && STATE!=AuctionState.CANCELLED */\n      dup1\n      iszero\n      tag_126\n      jumpi\n      pop\n        /* \"Auction.sol\":631:653  AuctionState.CANCELLED */\n      0x00\n        /* \"Auction.sol\":624:653  STATE!=AuctionState.CANCELLED */\n      0x01\n      dup2\n      gt\n      iszero\n      tag_127\n      jumpi\n      tag_128\n      tag_92\n      jump\t// in\n    tag_128:\n    tag_127:\n        /* \"Auction.sol\":624:629  STATE */\n      0x09\n      0x00\n      swap1\n      sload\n      swap1\n      0x0100\n      exp\n      swap1\n      div\n      0xff\n      and\n        /* \"Auction.sol\":624:653  STATE!=AuctionState.CANCELLED */\n      0x01\n      dup2\n      gt\n      iszero\n      tag_129\n      jumpi\n      tag_130\n      tag_92\n      jump\t// in\n    tag_130:\n    tag_129:\n      eq\n      iszero\n        /* \"Auction.sol\":590:653  block.timestamp <= auction_end && STATE!=AuctionState.CANCELLED */\n    tag_126:\n        /* \"Auction.sol\":582:675  require(block.timestamp <= auction_end && STATE!=AuctionState.CANCELLED, \"Auction has ended\") */\n      tag_131\n      jumpi\n      mload(0x40)\n      0x08c379a000000000000000000000000000000000000000000000000000000000\n      dup2\n      mstore\n      0x04\n      add\n      tag_132\n      swap1\n      tag_97\n      jump\t// in\n    tag_132:\n      mload(0x40)\n      dup1\n      swap2\n      sub\n      swap1\n      revert\n    tag_131:\n        /* \"Auction.sol\":2138:2189  CanceledEvent(\"Auction Cancelled\", block.timestamp) */\n      0x06b08932edfa95ecf10e18f8e389c58332551bbfe5faf843ed9afb329fd14118\n        /* \"Auction.sol\":2173:2188  block.timestamp */\n      timestamp\n        /* \"Auction.sol\":2138:2189  CanceledEvent(\"Auction Cancelled\", block.timestamp) */\n      mload(0x40)\n      tag_134\n      swap2\n      swap1\n      tag_135\n      jump\t// in\n    tag_134:\n      mload(0x40)\n      dup1\n      swap2\n      sub\n      swap1\n      log1\n        /* \"Auction.sol\":2208:2230  AuctionState.CANCELLED */\n      0x00\n        /* \"Auction.sol\":2200:2205  STATE */\n      0x09\n      0x00\n        /* \"Auction.sol\":2200:2230  STATE = AuctionState.CANCELLED */\n      0x0100\n      exp\n      dup2\n      sload\n      dup2\n      0xff\n      mul\n      not\n      and\n      swap1\n      dup4\n      0x01\n      dup2\n      gt\n      iszero\n      tag_136\n      jumpi\n      tag_137\n      tag_92\n      jump\t// in\n    tag_137:\n    tag_136:\n      mul\n      or\n      swap1\n      sstore\n      pop\n        /* \"Auction.sol\":2248:2252  true */\n      0x01\n        /* \"Auction.sol\":2241:2252  return true */\n      swap1\n      pop\n        /* \"Auction.sol\":2037:2260  function cancelAuction() external override onlyOwner anOngoingAuction returns (bool) {... */\n      swap1\n      jump\t// out\n        /* \"Auction.sol\":224:252  address public highestBidder */\n    tag_52:\n      0x04\n      0x00\n      swap1\n      sload\n      swap1\n      0x0100\n      exp\n      swap1\n      div\n      0xffffffffffffffffffffffffffffffffffffffff\n      and\n      dup2\n      jump\t// out\n        /* \"Auction.sol\":159:185  uint256 public auction_end */\n    tag_56:\n      sload(0x02)\n      dup2\n      jump\t// out\n        /* \"Auction.sol\":509:534  AuctionState public STATE */\n    tag_60:\n      0x09\n      0x00\n      swap1\n      sload\n      swap1\n      0x0100\n      exp\n      swap1\n      div\n      0xff\n      and\n      dup2\n      jump\t// out\n        /* \"Auction.sol\":428:452  address[] public bidders */\n    tag_67:\n      0x07\n      dup2\n      dup2\n      sload\n      dup2\n      lt\n      tag_138\n      jumpi\n      0x00\n      dup1\n      revert\n    tag_138:\n      swap1\n      0x00\n      mstore\n      keccak256(0x00, 0x20)\n      add\n      0x00\n      swap2\n      pop\n      sload\n      swap1\n      0x0100\n      exp\n      swap1\n      div\n      0xffffffffffffffffffffffffffffffffffffffff\n      and\n      dup2\n      jump\t// out\n        /* \"Auction.sol\":192:217  uint256 public highestBid */\n    tag_71:\n      sload(0x03)\n      dup2\n      jump\t// out\n        /* \"Auction.sol\":2268:2707  function destructAuction() external onlyOwner returns (bool) {... */\n    tag_75:\n        /* \"Auction.sol\":2323:2327  bool */\n      0x00\n        /* \"Auction.sol\":757:770  auction_owner */\n      dup1\n      0x00\n      swap1\n      sload\n      swap1\n      0x0100\n      exp\n      swap1\n      div\n      0xffffffffffffffffffffffffffffffffffffffff\n      and\n        /* \"Auction.sol\":743:770  msg.sender == auction_owner */\n      0xffffffffffffffffffffffffffffffffffffffff\n      and\n        /* \"Auction.sol\":743:753  msg.sender */\n      caller\n        /* \"Auction.sol\":743:770  msg.sender == auction_owner */\n      0xffffffffffffffffffffffffffffffffffffffff\n      and\n      eq\n        /* \"Auction.sol\":735:816  require(msg.sender == auction_owner, \"Only auction owner can call this function\") */\n      tag_141\n      jumpi\n      mload(0x40)\n      0x08c379a000000000000000000000000000000000000000000000000000000000\n      dup2\n      mstore\n      0x04\n      add\n      tag_142\n      swap1\n      tag_124\n      jump\t// in\n    tag_142:\n      mload(0x40)\n      dup1\n      swap2\n      sub\n      swap1\n      revert\n    tag_141:\n        /* \"Auction.sol\":2366:2377  auction_end */\n      sload(0x02)\n        /* \"Auction.sol\":2348:2363  block.timestamp */\n      timestamp\n        /* \"Auction.sol\":2348:2377  block.timestamp > auction_end */\n      gt\n        /* \"Auction.sol\":2340:2440  require(block.timestamp > auction_end, \"You can't destruct the contract, The auction is still open\") */\n      tag_144\n      jumpi\n      mload(0x40)\n      0x08c379a000000000000000000000000000000000000000000000000000000000\n      dup2\n      mstore\n      0x04\n      add\n      tag_145\n      swap1\n      tag_146\n      jump\t// in\n    tag_145:\n      mload(0x40)\n      dup1\n      swap2\n      sub\n      swap1\n      revert\n    tag_144:\n        /* \"Auction.sol\":2466:2475  uint256 i */\n      0x00\n        /* \"Auction.sol\":2461:2601  for (uint256 i = 0; i < bidders.length; i++) {... */\n    tag_147:\n        /* \"Auction.sol\":2485:2492  bidders */\n      0x07\n        /* \"Auction.sol\":2485:2499  bidders.length */\n      dup1\n      sload\n      swap1\n      pop\n        /* \"Auction.sol\":2481:2482  i */\n      dup2\n        /* \"Auction.sol\":2481:2499  i < bidders.length */\n      lt\n        /* \"Auction.sol\":2461:2601  for (uint256 i = 0; i < bidders.length; i++) {... */\n      iszero\n      tag_148\n      jumpi\n        /* \"Auction.sol\":2549:2550  0 */\n      0x00\n        /* \"Auction.sol\":2529:2533  bids */\n      0x08\n        /* \"Auction.sol\":2529:2545  bids[bidders[i]] */\n      0x00\n        /* \"Auction.sol\":2534:2541  bidders */\n      0x07\n        /* \"Auction.sol\":2542:2543  i */\n      dup5\n        /* \"Auction.sol\":2534:2544  bidders[i] */\n      dup2\n      sload\n      dup2\n      lt\n      tag_150\n      jumpi\n      tag_151\n      tag_152\n      jump\t// in\n    tag_151:\n    tag_150:\n      swap1\n      0x00\n      mstore\n      keccak256(0x00, 0x20)\n      add\n      0x00\n      swap1\n      sload\n      swap1\n      0x0100\n      exp\n      swap1\n      div\n      0xffffffffffffffffffffffffffffffffffffffff\n      and\n        /* \"Auction.sol\":2529:2545  bids[bidders[i]] */\n      0xffffffffffffffffffffffffffffffffffffffff\n      and\n      0xffffffffffffffffffffffffffffffffffffffff\n      and\n      dup2\n      mstore\n      0x20\n      add\n      swap1\n      dup2\n      mstore\n      0x20\n      add\n      0x00\n      keccak256\n      sload\n        /* \"Auction.sol\":2529:2550  bids[bidders[i]] == 0 */\n      eq\n        /* \"Auction.sol\":2521:2589  require(bids[bidders[i]] == 0, \"Bidders still have remaining funds\") */\n      tag_154\n      jumpi\n      mload(0x40)\n      0x08c379a000000000000000000000000000000000000000000000000000000000\n      dup2\n      mstore\n      0x04\n      add\n      tag_155\n      swap1\n      tag_156\n      jump\t// in\n    tag_155:\n      mload(0x40)\n      dup1\n      swap2\n      sub\n      swap1\n      revert\n    tag_154:\n        /* \"Auction.sol\":2501:2504  i++ */\n      dup1\n      dup1\n      tag_157\n      swap1\n      tag_158\n      jump\t// in\n    tag_157:\n      swap2\n      pop\n      pop\n        /* \"Auction.sol\":2461:2601  for (uint256 i = 0; i < bidders.length; i++) {... */\n      jump(tag_147)\n    tag_148:\n      pop\n        /* \"Auction.sol\":2621:2634  auction_owner */\n      0x00\n      dup1\n      sload\n      swap1\n      0x0100\n      exp\n      swap1\n      div\n      0xffffffffffffffffffffffffffffffffffffffff\n      and\n        /* \"Auction.sol\":2613:2644  payable(auction_owner).transfer */\n      0xffffffffffffffffffffffffffffffffffffffff\n      and\n        /* \"Auction.sol\":2613:2667  payable(auction_owner).transfer(address(this).balance) */\n      0x08fc\n        /* \"Auction.sol\":2645:2666  address(this).balance */\n      selfbalance\n        /* \"Auction.sol\":2613:2667  payable(auction_owner).transfer(address(this).balance) */\n      swap1\n      dup2\n      iszero\n      mul\n      swap1\n      mload(0x40)\n      0x00\n      mload(0x40)\n      dup1\n      dup4\n      sub\n      dup2\n      dup6\n      dup9\n      dup9\n      call\n      swap4\n      pop\n      pop\n      pop\n      pop\n      iszero\n      dup1\n      iszero\n      tag_160\n      jumpi\n      returndatasize\n      0x00\n      dup1\n      returndatacopy\n      revert(0x00, returndatasize)\n    tag_160:\n      pop\n        /* \"Auction.sol\":2695:2699  true */\n      0x01\n        /* \"Auction.sol\":2688:2699  return true */\n      swap1\n      pop\n        /* \"Auction.sol\":2268:2707  function destructAuction() external onlyOwner returns (bool) {... */\n      swap1\n      jump\t// out\n        /* \"#utility.yul\":7:106   */\n    tag_161:\n        /* \"#utility.yul\":59:65   */\n      0x00\n        /* \"#utility.yul\":93:98   */\n      dup2\n        /* \"#utility.yul\":87:99   */\n      mload\n        /* \"#utility.yul\":77:99   */\n      swap1\n      pop\n        /* \"#utility.yul\":7:106   */\n      swap2\n      swap1\n      pop\n      jump\t// out\n        /* \"#utility.yul\":112:281   */\n    tag_162:\n        /* \"#utility.yul\":196:207   */\n      0x00\n        /* \"#utility.yul\":230:236   */\n      dup3\n        /* \"#utility.yul\":225:228   */\n      dup3\n        /* \"#utility.yul\":218:237   */\n      mstore\n        /* \"#utility.yul\":270:274   */\n      0x20\n        /* \"#utility.yul\":265:268   */\n      dup3\n        /* \"#utility.yul\":261:275   */\n      add\n        /* \"#utility.yul\":246:275   */\n      swap1\n      pop\n        /* \"#utility.yul\":112:281   */\n      swap3\n      swap2\n      pop\n      pop\n      jump\t// out\n        /* \"#utility.yul\":287:533   */\n    tag_163:\n        /* \"#utility.yul\":368:369   */\n      0x00\n        /* \"#utility.yul\":378:491   */\n    tag_204:\n        /* \"#utility.yul\":392:398   */\n      dup4\n        /* \"#utility.yul\":389:390   */\n      dup2\n        /* \"#utility.yul\":386:399   */\n      lt\n        /* \"#utility.yul\":378:491   */\n      iszero\n      tag_206\n      jumpi\n        /* \"#utility.yul\":477:478   */\n      dup1\n        /* \"#utility.yul\":472:475   */\n      dup3\n        /* \"#utility.yul\":468:479   */\n      add\n        /* \"#utility.yul\":462:480   */\n      mload\n        /* \"#utility.yul\":458:459   */\n      dup2\n        /* \"#utility.yul\":453:456   */\n      dup5\n        /* \"#utility.yul\":449:460   */\n      add\n        /* \"#utility.yul\":442:481   */\n      mstore\n        /* \"#utility.yul\":414:416   */\n      0x20\n        /* \"#utility.yul\":411:412   */\n      dup2\n        /* \"#utility.yul\":407:417   */\n      add\n        /* \"#utility.yul\":402:417   */\n      swap1\n      pop\n        /* \"#utility.yul\":378:491   */\n      jump(tag_204)\n    tag_206:\n        /* \"#utility.yul\":525:526   */\n      0x00\n        /* \"#utility.yul\":516:522   */\n      dup5\n        /* \"#utility.yul\":511:514   */\n      dup5\n        /* \"#utility.yul\":507:523   */\n      add\n        /* \"#utility.yul\":500:527   */\n      mstore\n        /* \"#utility.yul\":349:533   */\n      pop\n        /* \"#utility.yul\":287:533   */\n      pop\n      pop\n      pop\n      jump\t// out\n        /* \"#utility.yul\":539:641   */\n    tag_164:\n        /* \"#utility.yul\":580:586   */\n      0x00\n        /* \"#utility.yul\":631:633   */\n      0x1f\n        /* \"#utility.yul\":627:634   */\n      not\n        /* \"#utility.yul\":622:624   */\n      0x1f\n        /* \"#utility.yul\":615:620   */\n      dup4\n        /* \"#utility.yul\":611:625   */\n      add\n        /* \"#utility.yul\":607:635   */\n      and\n        /* \"#utility.yul\":597:635   */\n      swap1\n      pop\n        /* \"#utility.yul\":539:641   */\n      swap2\n      swap1\n      pop\n      jump\t// out\n        /* \"#utility.yul\":647:1024   */\n    tag_165:\n        /* \"#utility.yul\":735:738   */\n      0x00\n        /* \"#utility.yul\":763:802   */\n      tag_209\n        /* \"#utility.yul\":796:801   */\n      dup3\n        /* \"#utility.yul\":763:802   */\n      tag_161\n      jump\t// in\n    tag_209:\n        /* \"#utility.yul\":818:889   */\n      tag_210\n        /* \"#utility.yul\":882:888   */\n      dup2\n        /* \"#utility.yul\":877:880   */\n      dup6\n        /* \"#utility.yul\":818:889   */\n      tag_162\n      jump\t// in\n    tag_210:\n        /* \"#utility.yul\":811:889   */\n      swap4\n      pop\n        /* \"#utility.yul\":898:963   */\n      tag_211\n        /* \"#utility.yul\":956:962   */\n      dup2\n        /* \"#utility.yul\":951:954   */\n      dup6\n        /* \"#utility.yul\":944:948   */\n      0x20\n        /* \"#utility.yul\":937:942   */\n      dup7\n        /* \"#utility.yul\":933:949   */\n      add\n        /* \"#utility.yul\":898:963   */\n      tag_163\n      jump\t// in\n    tag_211:\n        /* \"#utility.yul\":988:1017   */\n      tag_212\n        /* \"#utility.yul\":1010:1016   */\n      dup2\n        /* \"#utility.yul\":988:1017   */\n      tag_164\n      jump\t// in\n    tag_212:\n        /* \"#utility.yul\":983:986   */\n      dup5\n        /* \"#utility.yul\":979:1018   */\n      add\n        /* \"#utility.yul\":972:1018   */\n      swap2\n      pop\n        /* \"#utility.yul\":739:1024   */\n      pop\n        /* \"#utility.yul\":647:1024   */\n      swap3\n      swap2\n      pop\n      pop\n      jump\t// out\n        /* \"#utility.yul\":1030:1544   */\n    tag_21:\n        /* \"#utility.yul\":1191:1195   */\n      0x00\n        /* \"#utility.yul\":1229:1231   */\n      0x40\n        /* \"#utility.yul\":1218:1227   */\n      dup3\n        /* \"#utility.yul\":1214:1232   */\n      add\n        /* \"#utility.yul\":1206:1232   */\n      swap1\n      pop\n        /* \"#utility.yul\":1278:1287   */\n      dup2\n        /* \"#utility.yul\":1272:1276   */\n      dup2\n        /* \"#utility.yul\":1268:1288   */\n      sub\n        /* \"#utility.yul\":1264:1265   */\n      0x00\n        /* \"#utility.yul\":1253:1262   */\n      dup4\n        /* \"#utility.yul\":1249:1266   */\n      add\n        /* \"#utility.yul\":1242:1289   */\n      mstore\n        /* \"#utility.yul\":1306:1384   */\n      tag_214\n        /* \"#utility.yul\":1379:1383   */\n      dup2\n        /* \"#utility.yul\":1370:1376   */\n      dup6\n        /* \"#utility.yul\":1306:1384   */\n      tag_165\n      jump\t// in\n    tag_214:\n        /* \"#utility.yul\":1298:1384   */\n      swap1\n      pop\n        /* \"#utility.yul\":1431:1440   */\n      dup2\n        /* \"#utility.yul\":1425:1429   */\n      dup2\n        /* \"#utility.yul\":1421:1441   */\n      sub\n        /* \"#utility.yul\":1416:1418   */\n      0x20\n        /* \"#utility.yul\":1405:1414   */\n      dup4\n        /* \"#utility.yul\":1401:1419   */\n      add\n        /* \"#utility.yul\":1394:1442   */\n      mstore\n        /* \"#utility.yul\":1459:1537   */\n      tag_215\n        /* \"#utility.yul\":1532:1536   */\n      dup2\n        /* \"#utility.yul\":1523:1529   */\n      dup5\n        /* \"#utility.yul\":1459:1537   */\n      tag_165\n      jump\t// in\n    tag_215:\n        /* \"#utility.yul\":1451:1537   */\n      swap1\n      pop\n        /* \"#utility.yul\":1030:1544   */\n      swap4\n      swap3\n      pop\n      pop\n      pop\n      jump\t// out\n        /* \"#utility.yul\":1550:1640   */\n    tag_166:\n        /* \"#utility.yul\":1584:1591   */\n      0x00\n        /* \"#utility.yul\":1627:1632   */\n      dup2\n        /* \"#utility.yul\":1620:1633   */\n      iszero\n        /* \"#utility.yul\":1613:1634   */\n      iszero\n        /* \"#utility.yul\":1602:1634   */\n      swap1\n      pop\n        /* \"#utility.yul\":1550:1640   */\n      swap2\n      swap1\n      pop\n      jump\t// out\n        /* \"#utility.yul\":1646:1755   */\n    tag_167:\n        /* \"#utility.yul\":1727:1748   */\n      tag_218\n        /* \"#utility.yul\":1742:1747   */\n      dup2\n        /* \"#utility.yul\":1727:1748   */\n      tag_166\n      jump\t// in\n    tag_218:\n        /* \"#utility.yul\":1722:1725   */\n      dup3\n        /* \"#utility.yul\":1715:1749   */\n      mstore\n        /* \"#utility.yul\":1646:1755   */\n      pop\n      pop\n      jump\t// out\n        /* \"#utility.yul\":1761:1971   */\n    tag_25:\n        /* \"#utility.yul\":1848:1852   */\n      0x00\n        /* \"#utility.yul\":1886:1888   */\n      0x20\n        /* \"#utility.yul\":1875:1884   */\n      dup3\n        /* \"#utility.yul\":1871:1889   */\n      add\n        /* \"#utility.yul\":1863:1889   */\n      swap1\n      pop\n        /* \"#utility.yul\":1899:1964   */\n      tag_220\n        /* \"#utility.yul\":1961:1962   */\n      0x00\n        /* \"#utility.yul\":1950:1959   */\n      dup4\n        /* \"#utility.yul\":1946:1963   */\n      add\n        /* \"#utility.yul\":1937:1943   */\n      dup5\n        /* \"#utility.yul\":1899:1964   */\n      tag_167\n      jump\t// in\n    tag_220:\n        /* \"#utility.yul\":1761:1971   */\n      swap3\n      swap2\n      pop\n      pop\n      jump\t// out\n        /* \"#utility.yul\":2058:2175   */\n    tag_169:\n        /* \"#utility.yul\":2167:2168   */\n      0x00\n        /* \"#utility.yul\":2164:2165   */\n      dup1\n        /* \"#utility.yul\":2157:2169   */\n      revert\n        /* \"#utility.yul\":2304:2430   */\n    tag_171:\n        /* \"#utility.yul\":2341:2348   */\n      0x00\n        /* \"#utility.yul\":2381:2423   */\n      0xffffffffffffffffffffffffffffffffffffffff\n        /* \"#utility.yul\":2374:2379   */\n      dup3\n        /* \"#utility.yul\":2370:2424   */\n      and\n        /* \"#utility.yul\":2359:2424   */\n      swap1\n      pop\n        /* \"#utility.yul\":2304:2430   */\n      swap2\n      swap1\n      pop\n      jump\t// out\n        /* \"#utility.yul\":2436:2532   */\n    tag_172:\n        /* \"#utility.yul\":2473:2480   */\n      0x00\n        /* \"#utility.yul\":2502:2526   */\n      tag_226\n        /* \"#utility.yul\":2520:2525   */\n      dup3\n        /* \"#utility.yul\":2502:2526   */\n      tag_171\n      jump\t// in\n    tag_226:\n        /* \"#utility.yul\":2491:2526   */\n      swap1\n      pop\n        /* \"#utility.yul\":2436:2532   */\n      swap2\n      swap1\n      pop\n      jump\t// out\n        /* \"#utility.yul\":2538:2660   */\n    tag_173:\n        /* \"#utility.yul\":2611:2635   */\n      tag_228\n        /* \"#utility.yul\":2629:2634   */\n      dup2\n        /* \"#utility.yul\":2611:2635   */\n      tag_172\n      jump\t// in\n    tag_228:\n        /* \"#utility.yul\":2604:2609   */\n      dup2\n        /* \"#utility.yul\":2601:2636   */\n      eq\n        /* \"#utility.yul\":2591:2654   */\n      tag_229\n      jumpi\n        /* \"#utility.yul\":2650:2651   */\n      0x00\n        /* \"#utility.yul\":2647:2648   */\n      dup1\n        /* \"#utility.yul\":2640:2652   */\n      revert\n        /* \"#utility.yul\":2591:2654   */\n    tag_229:\n        /* \"#utility.yul\":2538:2660   */\n      pop\n      jump\t// out\n        /* \"#utility.yul\":2666:2805   */\n    tag_174:\n        /* \"#utility.yul\":2712:2717   */\n      0x00\n        /* \"#utility.yul\":2750:2756   */\n      dup2\n        /* \"#utility.yul\":2737:2757   */\n      calldataload\n        /* \"#utility.yul\":2728:2757   */\n      swap1\n      pop\n        /* \"#utility.yul\":2766:2799   */\n      tag_231\n        /* \"#utility.yul\":2793:2798   */\n      dup2\n        /* \"#utility.yul\":2766:2799   */\n      tag_173\n      jump\t// in\n    tag_231:\n        /* \"#utility.yul\":2666:2805   */\n      swap3\n      swap2\n      pop\n      pop\n      jump\t// out\n        /* \"#utility.yul\":2811:3140   */\n    tag_33:\n        /* \"#utility.yul\":2870:2876   */\n      0x00\n        /* \"#utility.yul\":2919:2921   */\n      0x20\n        /* \"#utility.yul\":2907:2916   */\n      dup3\n        /* \"#utility.yul\":2898:2905   */\n      dup5\n        /* \"#utility.yul\":2894:2917   */\n      sub\n        /* \"#utility.yul\":2890:2922   */\n      slt\n        /* \"#utility.yul\":2887:3006   */\n      iszero\n      tag_233\n      jumpi\n        /* \"#utility.yul\":2925:3004   */\n      tag_234\n      tag_169\n      jump\t// in\n    tag_234:\n        /* \"#utility.yul\":2887:3006   */\n    tag_233:\n        /* \"#utility.yul\":3045:3046   */\n      0x00\n        /* \"#utility.yul\":3070:3123   */\n      tag_235\n        /* \"#utility.yul\":3115:3122   */\n      dup5\n        /* \"#utility.yul\":3106:3112   */\n      dup3\n        /* \"#utility.yul\":3095:3104   */\n      dup6\n        /* \"#utility.yul\":3091:3113   */\n      add\n        /* \"#utility.yul\":3070:3123   */\n      tag_174\n      jump\t// in\n    tag_235:\n        /* \"#utility.yul\":3060:3123   */\n      swap2\n      pop\n        /* \"#utility.yul\":3016:3133   */\n      pop\n        /* \"#utility.yul\":2811:3140   */\n      swap3\n      swap2\n      pop\n      pop\n      jump\t// out\n        /* \"#utility.yul\":3146:3223   */\n    tag_175:\n        /* \"#utility.yul\":3183:3190   */\n      0x00\n        /* \"#utility.yul\":3212:3217   */\n      dup2\n        /* \"#utility.yul\":3201:3217   */\n      swap1\n      pop\n        /* \"#utility.yul\":3146:3223   */\n      swap2\n      swap1\n      pop\n      jump\t// out\n        /* \"#utility.yul\":3229:3347   */\n    tag_176:\n        /* \"#utility.yul\":3316:3340   */\n      tag_238\n        /* \"#utility.yul\":3334:3339   */\n      dup2\n        /* \"#utility.yul\":3316:3340   */\n      tag_175\n      jump\t// in\n    tag_238:\n        /* \"#utility.yul\":3311:3314   */\n      dup3\n        /* \"#utility.yul\":3304:3341   */\n      mstore\n        /* \"#utility.yul\":3229:3347   */\n      pop\n      pop\n      jump\t// out\n        /* \"#utility.yul\":3353:3575   */\n    tag_36:\n        /* \"#utility.yul\":3446:3450   */\n      0x00\n        /* \"#utility.yul\":3484:3486   */\n      0x20\n        /* \"#utility.yul\":3473:3482   */\n      dup3\n        /* \"#utility.yul\":3469:3487   */\n      add\n        /* \"#utility.yul\":3461:3487   */\n      swap1\n      pop\n        /* \"#utility.yul\":3497:3568   */\n      tag_240\n        /* \"#utility.yul\":3565:3566   */\n      0x00\n        /* \"#utility.yul\":3554:3563   */\n      dup4\n        /* \"#utility.yul\":3550:3567   */\n      add\n        /* \"#utility.yul\":3541:3547   */\n      dup5\n        /* \"#utility.yul\":3497:3568   */\n      tag_176\n      jump\t// in\n    tag_240:\n        /* \"#utility.yul\":3353:3575   */\n      swap3\n      swap2\n      pop\n      pop\n      jump\t// out\n        /* \"#utility.yul\":3581:3699   */\n    tag_177:\n        /* \"#utility.yul\":3668:3692   */\n      tag_242\n        /* \"#utility.yul\":3686:3691   */\n      dup2\n        /* \"#utility.yul\":3668:3692   */\n      tag_172\n      jump\t// in\n    tag_242:\n        /* \"#utility.yul\":3663:3666   */\n      dup3\n        /* \"#utility.yul\":3656:3693   */\n      mstore\n        /* \"#utility.yul\":3581:3699   */\n      pop\n      pop\n      jump\t// out\n        /* \"#utility.yul\":3705:3927   */\n    tag_45:\n        /* \"#utility.yul\":3798:3802   */\n      0x00\n        /* \"#utility.yul\":3836:3838   */\n      0x20\n        /* \"#utility.yul\":3825:3834   */\n      dup3\n        /* \"#utility.yul\":3821:3839   */\n      add\n        /* \"#utility.yul\":3813:3839   */\n      swap1\n      pop\n        /* \"#utility.yul\":3849:3920   */\n      tag_244\n        /* \"#utility.yul\":3917:3918   */\n      0x00\n        /* \"#utility.yul\":3906:3915   */\n      dup4\n        /* \"#utility.yul\":3902:3919   */\n      add\n        /* \"#utility.yul\":3893:3899   */\n      dup5\n        /* \"#utility.yul\":3849:3920   */\n      tag_177\n      jump\t// in\n    tag_244:\n        /* \"#utility.yul\":3705:3927   */\n      swap3\n      swap2\n      pop\n      pop\n      jump\t// out\n        /* \"#utility.yul\":3933:4113   */\n    tag_92:\n        /* \"#utility.yul\":3981:4058   */\n      0x4e487b7100000000000000000000000000000000000000000000000000000000\n        /* \"#utility.yul\":3978:3979   */\n      0x00\n        /* \"#utility.yul\":3971:4059   */\n      mstore\n        /* \"#utility.yul\":4078:4082   */\n      0x21\n        /* \"#utility.yul\":4075:4076   */\n      0x04\n        /* \"#utility.yul\":4068:4083   */\n      mstore\n        /* \"#utility.yul\":4102:4106   */\n      0x24\n        /* \"#utility.yul\":4099:4100   */\n      0x00\n        /* \"#utility.yul\":4092:4107   */\n      revert\n        /* \"#utility.yul\":4119:4239   */\n    tag_178:\n        /* \"#utility.yul\":4207:4208   */\n      0x02\n        /* \"#utility.yul\":4200:4205   */\n      dup2\n        /* \"#utility.yul\":4197:4209   */\n      lt\n        /* \"#utility.yul\":4187:4233   */\n      tag_247\n      jumpi\n        /* \"#utility.yul\":4213:4231   */\n      tag_248\n      tag_92\n      jump\t// in\n    tag_248:\n        /* \"#utility.yul\":4187:4233   */\n    tag_247:\n        /* \"#utility.yul\":4119:4239   */\n      pop\n      jump\t// out\n        /* \"#utility.yul\":4245:4386   */\n    tag_179:\n        /* \"#utility.yul\":4297:4304   */\n      0x00\n        /* \"#utility.yul\":4326:4331   */\n      dup2\n        /* \"#utility.yul\":4315:4331   */\n      swap1\n      pop\n        /* \"#utility.yul\":4332:4380   */\n      tag_250\n        /* \"#utility.yul\":4374:4379   */\n      dup3\n        /* \"#utility.yul\":4332:4380   */\n      tag_178\n      jump\t// in\n    tag_250:\n        /* \"#utility.yul\":4245:4386   */\n      swap2\n      swap1\n      pop\n      jump\t// out\n        /* \"#utility.yul\":4392:4533   */\n    tag_180:\n        /* \"#utility.yul\":4455:4464   */\n      0x00\n        /* \"#utility.yul\":4488:4527   */\n      tag_252\n        /* \"#utility.yul\":4521:4526   */\n      dup3\n        /* \"#utility.yul\":4488:4527   */\n      tag_179\n      jump\t// in\n    tag_252:\n        /* \"#utility.yul\":4475:4527   */\n      swap1\n      pop\n        /* \"#utility.yul\":4392:4533   */\n      swap2\n      swap1\n      pop\n      jump\t// out\n        /* \"#utility.yul\":4539:4696   */\n    tag_181:\n        /* \"#utility.yul\":4639:4689   */\n      tag_254\n        /* \"#utility.yul\":4683:4688   */\n      dup2\n        /* \"#utility.yul\":4639:4689   */\n      tag_180\n      jump\t// in\n    tag_254:\n        /* \"#utility.yul\":4634:4637   */\n      dup3\n        /* \"#utility.yul\":4627:4690   */\n      mstore\n        /* \"#utility.yul\":4539:4696   */\n      pop\n      pop\n      jump\t// out\n        /* \"#utility.yul\":4702:4950   */\n    tag_62:\n        /* \"#utility.yul\":4808:4812   */\n      0x00\n        /* \"#utility.yul\":4846:4848   */\n      0x20\n        /* \"#utility.yul\":4835:4844   */\n      dup3\n        /* \"#utility.yul\":4831:4849   */\n      add\n        /* \"#utility.yul\":4823:4849   */\n      swap1\n      pop\n        /* \"#utility.yul\":4859:4943   */\n      tag_256\n        /* \"#utility.yul\":4940:4941   */\n      0x00\n        /* \"#utility.yul\":4929:4938   */\n      dup4\n        /* \"#utility.yul\":4925:4942   */\n      add\n        /* \"#utility.yul\":4916:4922   */\n      dup5\n        /* \"#utility.yul\":4859:4943   */\n      tag_181\n      jump\t// in\n    tag_256:\n        /* \"#utility.yul\":4702:4950   */\n      swap3\n      swap2\n      pop\n      pop\n      jump\t// out\n        /* \"#utility.yul\":4956:5078   */\n    tag_182:\n        /* \"#utility.yul\":5029:5053   */\n      tag_258\n        /* \"#utility.yul\":5047:5052   */\n      dup2\n        /* \"#utility.yul\":5029:5053   */\n      tag_175\n      jump\t// in\n    tag_258:\n        /* \"#utility.yul\":5022:5027   */\n      dup2\n        /* \"#utility.yul\":5019:5054   */\n      eq\n        /* \"#utility.yul\":5009:5072   */\n      tag_259\n      jumpi\n        /* \"#utility.yul\":5068:5069   */\n      0x00\n        /* \"#utility.yul\":5065:5066   */\n      dup1\n        /* \"#utility.yul\":5058:5070   */\n      revert\n        /* \"#utility.yul\":5009:5072   */\n    tag_259:\n        /* \"#utility.yul\":4956:5078   */\n      pop\n      jump\t// out\n        /* \"#utility.yul\":5084:5223   */\n    tag_183:\n        /* \"#utility.yul\":5130:5135   */\n      0x00\n        /* \"#utility.yul\":5168:5174   */\n      dup2\n        /* \"#utility.yul\":5155:5175   */\n      calldataload\n        /* \"#utility.yul\":5146:5175   */\n      swap1\n      pop\n        /* \"#utility.yul\":5184:5217   */\n      tag_261\n        /* \"#utility.yul\":5211:5216   */\n      dup2\n        /* \"#utility.yul\":5184:5217   */\n      tag_182\n      jump\t// in\n    tag_261:\n        /* \"#utility.yul\":5084:5223   */\n      swap3\n      swap2\n      pop\n      pop\n      jump\t// out\n        /* \"#utility.yul\":5229:5558   */\n    tag_66:\n        /* \"#utility.yul\":5288:5294   */\n      0x00\n        /* \"#utility.yul\":5337:5339   */\n      0x20\n        /* \"#utility.yul\":5325:5334   */\n      dup3\n        /* \"#utility.yul\":5316:5323   */\n      dup5\n        /* \"#utility.yul\":5312:5335   */\n      sub\n        /* \"#utility.yul\":5308:5340   */\n      slt\n        /* \"#utility.yul\":5305:5424   */\n      iszero\n      tag_263\n      jumpi\n        /* \"#utility.yul\":5343:5422   */\n      tag_264\n      tag_169\n      jump\t// in\n    tag_264:\n        /* \"#utility.yul\":5305:5424   */\n    tag_263:\n        /* \"#utility.yul\":5463:5464   */\n      0x00\n        /* \"#utility.yul\":5488:5541   */\n      tag_265\n        /* \"#utility.yul\":5533:5540   */\n      dup5\n        /* \"#utility.yul\":5524:5530   */\n      dup3\n        /* \"#utility.yul\":5513:5522   */\n      dup6\n        /* \"#utility.yul\":5509:5531   */\n      add\n        /* \"#utility.yul\":5488:5541   */\n      tag_183\n      jump\t// in\n    tag_265:\n        /* \"#utility.yul\":5478:5541   */\n      swap2\n      pop\n        /* \"#utility.yul\":5434:5551   */\n      pop\n        /* \"#utility.yul\":5229:5558   */\n      swap3\n      swap2\n      pop\n      pop\n      jump\t// out\n        /* \"#utility.yul\":5564:5744   */\n    tag_184:\n        /* \"#utility.yul\":5612:5689   */\n      0x4e487b7100000000000000000000000000000000000000000000000000000000\n        /* \"#utility.yul\":5609:5610   */\n      0x00\n        /* \"#utility.yul\":5602:5690   */\n      mstore\n        /* \"#utility.yul\":5709:5713   */\n      0x22\n        /* \"#utility.yul\":5706:5707   */\n      0x04\n        /* \"#utility.yul\":5699:5714   */\n      mstore\n        /* \"#utility.yul\":5733:5737   */\n      0x24\n        /* \"#utility.yul\":5730:5731   */\n      0x00\n        /* \"#utility.yul\":5723:5738   */\n      revert\n        /* \"#utility.yul\":5750:6070   */\n    tag_78:\n        /* \"#utility.yul\":5794:5800   */\n      0x00\n        /* \"#utility.yul\":5831:5832   */\n      0x02\n        /* \"#utility.yul\":5825:5829   */\n      dup3\n        /* \"#utility.yul\":5821:5833   */\n      div\n        /* \"#utility.yul\":5811:5833   */\n      swap1\n      pop\n        /* \"#utility.yul\":5878:5879   */\n      0x01\n        /* \"#utility.yul\":5872:5876   */\n      dup3\n        /* \"#utility.yul\":5868:5880   */\n      and\n        /* \"#utility.yul\":5899:5917   */\n      dup1\n        /* \"#utility.yul\":5889:5970   */\n      tag_268\n      jumpi\n        /* \"#utility.yul\":5955:5959   */\n      0x7f\n        /* \"#utility.yul\":5947:5953   */\n      dup3\n        /* \"#utility.yul\":5943:5960   */\n      and\n        /* \"#utility.yul\":5933:5960   */\n      swap2\n      pop\n        /* \"#utility.yul\":5889:5970   */\n    tag_268:\n        /* \"#utility.yul\":6017:6019   */\n      0x20\n        /* \"#utility.yul\":6009:6015   */\n      dup3\n        /* \"#utility.yul\":6006:6020   */\n      lt\n        /* \"#utility.yul\":5986:6004   */\n      dup2\n        /* \"#utility.yul\":5983:6021   */\n      sub\n        /* \"#utility.yul\":5980:6064   */\n      tag_269\n      jumpi\n        /* \"#utility.yul\":6036:6054   */\n      tag_270\n      tag_184\n      jump\t// in\n    tag_270:\n        /* \"#utility.yul\":5980:6064   */\n    tag_269:\n        /* \"#utility.yul\":5801:6070   */\n      pop\n        /* \"#utility.yul\":5750:6070   */\n      swap2\n      swap1\n      pop\n      jump\t// out\n        /* \"#utility.yul\":6076:6243   */\n    tag_185:\n        /* \"#utility.yul\":6216:6235   */\n      0x41756374696f6e2068617320656e646564000000000000000000000000000000\n        /* \"#utility.yul\":6212:6213   */\n      0x00\n        /* \"#utility.yul\":6204:6210   */\n      dup3\n        /* \"#utility.yul\":6200:6214   */\n      add\n        /* \"#utility.yul\":6193:6236   */\n      mstore\n        /* \"#utility.yul\":6076:6243   */\n      pop\n      jump\t// out\n        /* \"#utility.yul\":6249:6615   */\n    tag_186:\n        /* \"#utility.yul\":6391:6394   */\n      0x00\n        /* \"#utility.yul\":6412:6479   */\n      tag_273\n        /* \"#utility.yul\":6476:6478   */\n      0x11\n        /* \"#utility.yul\":6471:6474   */\n      dup4\n        /* \"#utility.yul\":6412:6479   */\n      tag_162\n      jump\t// in\n    tag_273:\n        /* \"#utility.yul\":6405:6479   */\n      swap2\n      pop\n        /* \"#utility.yul\":6488:6581   */\n      tag_274\n        /* \"#utility.yul\":6577:6580   */\n      dup3\n        /* \"#utility.yul\":6488:6581   */\n      tag_185\n      jump\t// in\n    tag_274:\n        /* \"#utility.yul\":6606:6608   */\n      0x20\n        /* \"#utility.yul\":6601:6604   */\n      dup3\n        /* \"#utility.yul\":6597:6609   */\n      add\n        /* \"#utility.yul\":6590:6609   */\n      swap1\n      pop\n        /* \"#utility.yul\":6249:6615   */\n      swap2\n      swap1\n      pop\n      jump\t// out\n        /* \"#utility.yul\":6621:7040   */\n    tag_97:\n        /* \"#utility.yul\":6787:6791   */\n      0x00\n        /* \"#utility.yul\":6825:6827   */\n      0x20\n        /* \"#utility.yul\":6814:6823   */\n      dup3\n        /* \"#utility.yul\":6810:6828   */\n      add\n        /* \"#utility.yul\":6802:6828   */\n      swap1\n      pop\n        /* \"#utility.yul\":6874:6883   */\n      dup2\n        /* \"#utility.yul\":6868:6872   */\n      dup2\n        /* \"#utility.yul\":6864:6884   */\n      sub\n        /* \"#utility.yul\":6860:6861   */\n      0x00\n        /* \"#utility.yul\":6849:6858   */\n      dup4\n        /* \"#utility.yul\":6845:6862   */\n      add\n        /* \"#utility.yul\":6838:6885   */\n      mstore\n        /* \"#utility.yul\":6902:7033   */\n      tag_276\n        /* \"#utility.yul\":7028:7032   */\n      dup2\n        /* \"#utility.yul\":6902:7033   */\n      tag_186\n      jump\t// in\n    tag_276:\n        /* \"#utility.yul\":6894:7033   */\n      swap1\n      pop\n        /* \"#utility.yul\":6621:7040   */\n      swap2\n      swap1\n      pop\n      jump\t// out\n        /* \"#utility.yul\":7046:7226   */\n    tag_187:\n        /* \"#utility.yul\":7094:7171   */\n      0x4e487b7100000000000000000000000000000000000000000000000000000000\n        /* \"#utility.yul\":7091:7092   */\n      0x00\n        /* \"#utility.yul\":7084:7172   */\n      mstore\n        /* \"#utility.yul\":7191:7195   */\n      0x11\n        /* \"#utility.yul\":7188:7189   */\n      0x04\n        /* \"#utility.yul\":7181:7196   */\n      mstore\n        /* \"#utility.yul\":7215:7219   */\n      0x24\n        /* \"#utility.yul\":7212:7213   */\n      0x00\n        /* \"#utility.yul\":7205:7220   */\n      revert\n        /* \"#utility.yul\":7232:7423   */\n    tag_100:\n        /* \"#utility.yul\":7272:7275   */\n      0x00\n        /* \"#utility.yul\":7291:7311   */\n      tag_279\n        /* \"#utility.yul\":7309:7310   */\n      dup3\n        /* \"#utility.yul\":7291:7311   */\n      tag_175\n      jump\t// in\n    tag_279:\n        /* \"#utility.yul\":7286:7311   */\n      swap2\n      pop\n        /* \"#utility.yul\":7325:7345   */\n      tag_280\n        /* \"#utility.yul\":7343:7344   */\n      dup4\n        /* \"#utility.yul\":7325:7345   */\n      tag_175\n      jump\t// in\n    tag_280:\n        /* \"#utility.yul\":7320:7345   */\n      swap3\n      pop\n        /* \"#utility.yul\":7368:7369   */\n      dup3\n        /* \"#utility.yul\":7365:7366   */\n      dup3\n        /* \"#utility.yul\":7361:7370   */\n      add\n        /* \"#utility.yul\":7354:7370   */\n      swap1\n      pop\n        /* \"#utility.yul\":7389:7392   */\n      dup1\n        /* \"#utility.yul\":7386:7387   */\n      dup3\n        /* \"#utility.yul\":7383:7393   */\n      gt\n        /* \"#utility.yul\":7380:7416   */\n      iszero\n      tag_281\n      jumpi\n        /* \"#utility.yul\":7396:7414   */\n      tag_282\n      tag_187\n      jump\t// in\n    tag_282:\n        /* \"#utility.yul\":7380:7416   */\n    tag_281:\n        /* \"#utility.yul\":7232:7423   */\n      swap3\n      swap2\n      pop\n      pop\n      jump\t// out\n        /* \"#utility.yul\":7429:7611   */\n    tag_188:\n        /* \"#utility.yul\":7569:7603   */\n      0x596f752063616e2774206269642c204d616b6520612068696768657220426964\n        /* \"#utility.yul\":7565:7566   */\n      0x00\n        /* \"#utility.yul\":7557:7563   */\n      dup3\n        /* \"#utility.yul\":7553:7567   */\n      add\n        /* \"#utility.yul\":7546:7604   */\n      mstore\n        /* \"#utility.yul\":7429:7611   */\n      pop\n      jump\t// out\n        /* \"#utility.yul\":7617:7983   */\n    tag_189:\n        /* \"#utility.yul\":7759:7762   */\n      0x00\n        /* \"#utility.yul\":7780:7847   */\n      tag_285\n        /* \"#utility.yul\":7844:7846   */\n      0x20\n        /* \"#utility.yul\":7839:7842   */\n      dup4\n        /* \"#utility.yul\":7780:7847   */\n      tag_162\n      jump\t// in\n    tag_285:\n        /* \"#utility.yul\":7773:7847   */\n      swap2\n      pop\n        /* \"#utility.yul\":7856:7949   */\n      tag_286\n        /* \"#utility.yul\":7945:7948   */\n      dup3\n        /* \"#utility.yul\":7856:7949   */\n      tag_188\n      jump\t// in\n    tag_286:\n        /* \"#utility.yul\":7974:7976   */\n      0x20\n        /* \"#utility.yul\":7969:7972   */\n      dup3\n        /* \"#utility.yul\":7965:7977   */\n      add\n        /* \"#utility.yul\":7958:7977   */\n      swap1\n      pop\n        /* \"#utility.yul\":7617:7983   */\n      swap2\n      swap1\n      pop\n      jump\t// out\n        /* \"#utility.yul\":7989:8408   */\n    tag_103:\n        /* \"#utility.yul\":8155:8159   */\n      0x00\n        /* \"#utility.yul\":8193:8195   */\n      0x20\n        /* \"#utility.yul\":8182:8191   */\n      dup3\n        /* \"#utility.yul\":8178:8196   */\n      add\n        /* \"#utility.yul\":8170:8196   */\n      swap1\n      pop\n        /* \"#utility.yul\":8242:8251   */\n      dup2\n        /* \"#utility.yul\":8236:8240   */\n      dup2\n        /* \"#utility.yul\":8232:8252   */\n      sub\n        /* \"#utility.yul\":8228:8229   */\n      0x00\n        /* \"#utility.yul\":8217:8226   */\n      dup4\n        /* \"#utility.yul\":8213:8230   */\n      add\n        /* \"#utility.yul\":8206:8253   */\n      mstore\n        /* \"#utility.yul\":8270:8401   */\n      tag_288\n        /* \"#utility.yul\":8396:8400   */\n      dup2\n        /* \"#utility.yul\":8270:8401   */\n      tag_189\n      jump\t// in\n    tag_288:\n        /* \"#utility.yul\":8262:8401   */\n      swap1\n      pop\n        /* \"#utility.yul\":7989:8408   */\n      swap2\n      swap1\n      pop\n      jump\t// out\n        /* \"#utility.yul\":8414:8588   */\n    tag_190:\n        /* \"#utility.yul\":8554:8580   */\n      0x41756374696f6e206973207374696c6c206f6e676f696e670000000000000000\n        /* \"#utility.yul\":8550:8551   */\n      0x00\n        /* \"#utility.yul\":8542:8548   */\n      dup3\n        /* \"#utility.yul\":8538:8552   */\n      add\n        /* \"#utility.yul\":8531:8581   */\n      mstore\n        /* \"#utility.yul\":8414:8588   */\n      pop\n      jump\t// out\n        /* \"#utility.yul\":8594:8960   */\n    tag_191:\n        /* \"#utility.yul\":8736:8739   */\n      0x00\n        /* \"#utility.yul\":8757:8824   */\n      tag_291\n        /* \"#utility.yul\":8821:8823   */\n      0x18\n        /* \"#utility.yul\":8816:8819   */\n      dup4\n        /* \"#utility.yul\":8757:8824   */\n      tag_162\n      jump\t// in\n    tag_291:\n        /* \"#utility.yul\":8750:8824   */\n      swap2\n      pop\n        /* \"#utility.yul\":8833:8926   */\n      tag_292\n        /* \"#utility.yul\":8922:8925   */\n      dup3\n        /* \"#utility.yul\":8833:8926   */\n      tag_190\n      jump\t// in\n    tag_292:\n        /* \"#utility.yul\":8951:8953   */\n      0x20\n        /* \"#utility.yul\":8946:8949   */\n      dup3\n        /* \"#utility.yul\":8942:8954   */\n      add\n        /* \"#utility.yul\":8935:8954   */\n      swap1\n      pop\n        /* \"#utility.yul\":8594:8960   */\n      swap2\n      swap1\n      pop\n      jump\t// out\n        /* \"#utility.yul\":8966:9385   */\n    tag_115:\n        /* \"#utility.yul\":9132:9136   */\n      0x00\n        /* \"#utility.yul\":9170:9172   */\n      0x20\n        /* \"#utility.yul\":9159:9168   */\n      dup3\n        /* \"#utility.yul\":9155:9173   */\n      add\n        /* \"#utility.yul\":9147:9173   */\n      swap1\n      pop\n        /* \"#utility.yul\":9219:9228   */\n      dup2\n        /* \"#utility.yul\":9213:9217   */\n      dup2\n        /* \"#utility.yul\":9209:9229   */\n      sub\n        /* \"#utility.yul\":9205:9206   */\n      0x00\n        /* \"#utility.yul\":9194:9203   */\n      dup4\n        /* \"#utility.yul\":9190:9207   */\n      add\n        /* \"#utility.yul\":9183:9230   */\n      mstore\n        /* \"#utility.yul\":9247:9378   */\n      tag_294\n        /* \"#utility.yul\":9373:9377   */\n      dup2\n        /* \"#utility.yul\":9247:9378   */\n      tag_191\n      jump\t// in\n    tag_294:\n        /* \"#utility.yul\":9239:9378   */\n      swap1\n      pop\n        /* \"#utility.yul\":8966:9385   */\n      swap2\n      swap1\n      pop\n      jump\t// out\n        /* \"#utility.yul\":9391:9723   */\n    tag_119:\n        /* \"#utility.yul\":9512:9516   */\n      0x00\n        /* \"#utility.yul\":9550:9552   */\n      0x40\n        /* \"#utility.yul\":9539:9548   */\n      dup3\n        /* \"#utility.yul\":9535:9553   */\n      add\n        /* \"#utility.yul\":9527:9553   */\n      swap1\n      pop\n        /* \"#utility.yul\":9563:9634   */\n      tag_296\n        /* \"#utility.yul\":9631:9632   */\n      0x00\n        /* \"#utility.yul\":9620:9629   */\n      dup4\n        /* \"#utility.yul\":9616:9633   */\n      add\n        /* \"#utility.yul\":9607:9613   */\n      dup6\n        /* \"#utility.yul\":9563:9634   */\n      tag_177\n      jump\t// in\n    tag_296:\n        /* \"#utility.yul\":9644:9716   */\n      tag_297\n        /* \"#utility.yul\":9712:9714   */\n      0x20\n        /* \"#utility.yul\":9701:9710   */\n      dup4\n        /* \"#utility.yul\":9697:9715   */\n      add\n        /* \"#utility.yul\":9688:9694   */\n      dup5\n        /* \"#utility.yul\":9644:9716   */\n      tag_176\n      jump\t// in\n    tag_297:\n        /* \"#utility.yul\":9391:9723   */\n      swap4\n      swap3\n      pop\n      pop\n      pop\n      jump\t// out\n        /* \"#utility.yul\":9729:9957   */\n    tag_192:\n        /* \"#utility.yul\":9869:9903   */\n      0x4f6e6c792061756374696f6e206f776e65722063616e2063616c6c2074686973\n        /* \"#utility.yul\":9865:9866   */\n      0x00\n        /* \"#utility.yul\":9857:9863   */\n      dup3\n        /* \"#utility.yul\":9853:9867   */\n      add\n        /* \"#utility.yul\":9846:9904   */\n      mstore\n        /* \"#utility.yul\":9938:9949   */\n      0x2066756e6374696f6e0000000000000000000000000000000000000000000000\n        /* \"#utility.yul\":9933:9935   */\n      0x20\n        /* \"#utility.yul\":9925:9931   */\n      dup3\n        /* \"#utility.yul\":9921:9936   */\n      add\n        /* \"#utility.yul\":9914:9950   */\n      mstore\n        /* \"#utility.yul\":9729:9957   */\n      pop\n      jump\t// out\n        /* \"#utility.yul\":9963:10329   */\n    tag_193:\n        /* \"#utility.yul\":10105:10108   */\n      0x00\n        /* \"#utility.yul\":10126:10193   */\n      tag_300\n        /* \"#utility.yul\":10190:10192   */\n      0x29\n        /* \"#utility.yul\":10185:10188   */\n      dup4\n        /* \"#utility.yul\":10126:10193   */\n      tag_162\n      jump\t// in\n    tag_300:\n        /* \"#utility.yul\":10119:10193   */\n      swap2\n      pop\n        /* \"#utility.yul\":10202:10295   */\n      tag_301\n        /* \"#utility.yul\":10291:10294   */\n      dup3\n        /* \"#utility.yul\":10202:10295   */\n      tag_192\n      jump\t// in\n    tag_301:\n        /* \"#utility.yul\":10320:10322   */\n      0x40\n        /* \"#utility.yul\":10315:10318   */\n      dup3\n        /* \"#utility.yul\":10311:10323   */\n      add\n        /* \"#utility.yul\":10304:10323   */\n      swap1\n      pop\n        /* \"#utility.yul\":9963:10329   */\n      swap2\n      swap1\n      pop\n      jump\t// out\n        /* \"#utility.yul\":10335:10754   */\n    tag_124:\n        /* \"#utility.yul\":10501:10505   */\n      0x00\n        /* \"#utility.yul\":10539:10541   */\n      0x20\n        /* \"#utility.yul\":10528:10537   */\n      dup3\n        /* \"#utility.yul\":10524:10542   */\n      add\n        /* \"#utility.yul\":10516:10542   */\n      swap1\n      pop\n        /* \"#utility.yul\":10588:10597   */\n      dup2\n        /* \"#utility.yul\":10582:10586   */\n      dup2\n        /* \"#utility.yul\":10578:10598   */\n      sub\n        /* \"#utility.yul\":10574:10575   */\n      0x00\n        /* \"#utility.yul\":10563:10572   */\n      dup4\n        /* \"#utility.yul\":10559:10576   */\n      add\n        /* \"#utility.yul\":10552:10599   */\n      mstore\n        /* \"#utility.yul\":10616:10747   */\n      tag_303\n        /* \"#utility.yul\":10742:10746   */\n      dup2\n        /* \"#utility.yul\":10616:10747   */\n      tag_193\n      jump\t// in\n    tag_303:\n        /* \"#utility.yul\":10608:10747   */\n      swap1\n      pop\n        /* \"#utility.yul\":10335:10754   */\n      swap2\n      swap1\n      pop\n      jump\t// out\n        /* \"#utility.yul\":10760:10927   */\n    tag_194:\n        /* \"#utility.yul\":10900:10919   */\n      0x41756374696f6e2043616e63656c6c6564000000000000000000000000000000\n        /* \"#utility.yul\":10896:10897   */\n      0x00\n        /* \"#utility.yul\":10888:10894   */\n      dup3\n        /* \"#utility.yul\":10884:10898   */\n      add\n        /* \"#utility.yul\":10877:10920   */\n      mstore\n        /* \"#utility.yul\":10760:10927   */\n      pop\n      jump\t// out\n        /* \"#utility.yul\":10933:11299   */\n    tag_195:\n        /* \"#utility.yul\":11075:11078   */\n      0x00\n        /* \"#utility.yul\":11096:11163   */\n      tag_306\n        /* \"#utility.yul\":11160:11162   */\n      0x11\n        /* \"#utility.yul\":11155:11158   */\n      dup4\n        /* \"#utility.yul\":11096:11163   */\n      tag_162\n      jump\t// in\n    tag_306:\n        /* \"#utility.yul\":11089:11163   */\n      swap2\n      pop\n        /* \"#utility.yul\":11172:11265   */\n      tag_307\n        /* \"#utility.yul\":11261:11264   */\n      dup3\n        /* \"#utility.yul\":11172:11265   */\n      tag_194\n      jump\t// in\n    tag_307:\n        /* \"#utility.yul\":11290:11292   */\n      0x20\n        /* \"#utility.yul\":11285:11288   */\n      dup3\n        /* \"#utility.yul\":11281:11293   */\n      add\n        /* \"#utility.yul\":11274:11293   */\n      swap1\n      pop\n        /* \"#utility.yul\":10933:11299   */\n      swap2\n      swap1\n      pop\n      jump\t// out\n        /* \"#utility.yul\":11305:11834   */\n    tag_135:\n        /* \"#utility.yul\":11499:11503   */\n      0x00\n        /* \"#utility.yul\":11537:11539   */\n      0x40\n        /* \"#utility.yul\":11526:11535   */\n      dup3\n        /* \"#utility.yul\":11522:11540   */\n      add\n        /* \"#utility.yul\":11514:11540   */\n      swap1\n      pop\n        /* \"#utility.yul\":11586:11595   */\n      dup2\n        /* \"#utility.yul\":11580:11584   */\n      dup2\n        /* \"#utility.yul\":11576:11596   */\n      sub\n        /* \"#utility.yul\":11572:11573   */\n      0x00\n        /* \"#utility.yul\":11561:11570   */\n      dup4\n        /* \"#utility.yul\":11557:11574   */\n      add\n        /* \"#utility.yul\":11550:11597   */\n      mstore\n        /* \"#utility.yul\":11614:11745   */\n      tag_309\n        /* \"#utility.yul\":11740:11744   */\n      dup2\n        /* \"#utility.yul\":11614:11745   */\n      tag_195\n      jump\t// in\n    tag_309:\n        /* \"#utility.yul\":11606:11745   */\n      swap1\n      pop\n        /* \"#utility.yul\":11755:11827   */\n      tag_310\n        /* \"#utility.yul\":11823:11825   */\n      0x20\n        /* \"#utility.yul\":11812:11821   */\n      dup4\n        /* \"#utility.yul\":11808:11826   */\n      add\n        /* \"#utility.yul\":11799:11805   */\n      dup5\n        /* \"#utility.yul\":11755:11827   */\n      tag_176\n      jump\t// in\n    tag_310:\n        /* \"#utility.yul\":11305:11834   */\n      swap3\n      swap2\n      pop\n      pop\n      jump\t// out\n        /* \"#utility.yul\":11840:12085   */\n    tag_196:\n        /* \"#utility.yul\":11980:12014   */\n      0x596f752063616e27742064657374727563742074686520636f6e74726163742c\n        /* \"#utility.yul\":11976:11977   */\n      0x00\n        /* \"#utility.yul\":11968:11974   */\n      dup3\n        /* \"#utility.yul\":11964:11978   */\n      add\n        /* \"#utility.yul\":11957:12015   */\n      mstore\n        /* \"#utility.yul\":12049:12077   */\n      0x205468652061756374696f6e206973207374696c6c206f70656e000000000000\n        /* \"#utility.yul\":12044:12046   */\n      0x20\n        /* \"#utility.yul\":12036:12042   */\n      dup3\n        /* \"#utility.yul\":12032:12047   */\n      add\n        /* \"#utility.yul\":12025:12078   */\n      mstore\n        /* \"#utility.yul\":11840:12085   */\n      pop\n      jump\t// out\n        /* \"#utility.yul\":12091:12457   */\n    tag_197:\n        /* \"#utility.yul\":12233:12236   */\n      0x00\n        /* \"#utility.yul\":12254:12321   */\n      tag_313\n        /* \"#utility.yul\":12318:12320   */\n      0x3a\n        /* \"#utility.yul\":12313:12316   */\n      dup4\n        /* \"#utility.yul\":12254:12321   */\n      tag_162\n      jump\t// in\n    tag_313:\n        /* \"#utility.yul\":12247:12321   */\n      swap2\n      pop\n        /* \"#utility.yul\":12330:12423   */\n      tag_314\n        /* \"#utility.yul\":12419:12422   */\n      dup3\n        /* \"#utility.yul\":12330:12423   */\n      tag_196\n      jump\t// in\n    tag_314:\n        /* \"#utility.yul\":12448:12450   */\n      0x40\n        /* \"#utility.yul\":12443:12446   */\n      dup3\n        /* \"#utility.yul\":12439:12451   */\n      add\n        /* \"#utility.yul\":12432:12451   */\n      swap1\n      pop\n        /* \"#utility.yul\":12091:12457   */\n      swap2\n      swap1\n      pop\n      jump\t// out\n        /* \"#utility.yul\":12463:12882   */\n    tag_146:\n        /* \"#utility.yul\":12629:12633   */\n      0x00\n        /* \"#utility.yul\":12667:12669   */\n      0x20\n        /* \"#utility.yul\":12656:12665   */\n      dup3\n        /* \"#utility.yul\":12652:12670   */\n      add\n        /* \"#utility.yul\":12644:12670   */\n      swap1\n      pop\n        /* \"#utility.yul\":12716:12725   */\n      dup2\n        /* \"#utility.yul\":12710:12714   */\n      dup2\n        /* \"#utility.yul\":12706:12726   */\n      sub\n        /* \"#utility.yul\":12702:12703   */\n      0x00\n        /* \"#utility.yul\":12691:12700   */\n      dup4\n        /* \"#utility.yul\":12687:12704   */\n      add\n        /* \"#utility.yul\":12680:12727   */\n      mstore\n        /* \"#utility.yul\":12744:12875   */\n      tag_316\n        /* \"#utility.yul\":12870:12874   */\n      dup2\n        /* \"#utility.yul\":12744:12875   */\n      tag_197\n      jump\t// in\n    tag_316:\n        /* \"#utility.yul\":12736:12875   */\n      swap1\n      pop\n        /* \"#utility.yul\":12463:12882   */\n      swap2\n      swap1\n      pop\n      jump\t// out\n        /* \"#utility.yul\":12888:13068   */\n    tag_152:\n        /* \"#utility.yul\":12936:13013   */\n      0x4e487b7100000000000000000000000000000000000000000000000000000000\n        /* \"#utility.yul\":12933:12934   */\n      0x00\n        /* \"#utility.yul\":12926:13014   */\n      mstore\n        /* \"#utility.yul\":13033:13037   */\n      0x32\n        /* \"#utility.yul\":13030:13031   */\n      0x04\n        /* \"#utility.yul\":13023:13038   */\n      mstore\n        /* \"#utility.yul\":13057:13061   */\n      0x24\n        /* \"#utility.yul\":13054:13055   */\n      0x00\n        /* \"#utility.yul\":13047:13062   */\n      revert\n        /* \"#utility.yul\":13074:13295   */\n    tag_198:\n        /* \"#utility.yul\":13214:13248   */\n      0x42696464657273207374696c6c20686176652072656d61696e696e672066756e\n        /* \"#utility.yul\":13210:13211   */\n      0x00\n        /* \"#utility.yul\":13202:13208   */\n      dup3\n        /* \"#utility.yul\":13198:13212   */\n      add\n        /* \"#utility.yul\":13191:13249   */\n      mstore\n        /* \"#utility.yul\":13283:13287   */\n      0x6473000000000000000000000000000000000000000000000000000000000000\n        /* \"#utility.yul\":13278:13280   */\n      0x20\n        /* \"#utility.yul\":13270:13276   */\n      dup3\n        /* \"#utility.yul\":13266:13281   */\n      add\n        /* \"#utility.yul\":13259:13288   */\n      mstore\n        /* \"#utility.yul\":13074:13295   */\n      pop\n      jump\t// out\n        /* \"#utility.yul\":13301:13667   */\n    tag_199:\n        /* \"#utility.yul\":13443:13446   */\n      0x00\n        /* \"#utility.yul\":13464:13531   */\n      tag_320\n        /* \"#utility.yul\":13528:13530   */\n      0x22\n        /* \"#utility.yul\":13523:13526   */\n      dup4\n        /* \"#utility.yul\":13464:13531   */\n      tag_162\n      jump\t// in\n    tag_320:\n        /* \"#utility.yul\":13457:13531   */\n      swap2\n      pop\n        /* \"#utility.yul\":13540:13633   */\n      tag_321\n        /* \"#utility.yul\":13629:13632   */\n      dup3\n        /* \"#utility.yul\":13540:13633   */\n      tag_198\n      jump\t// in\n    tag_321:\n        /* \"#utility.yul\":13658:13660   */\n      0x40\n        /* \"#utility.yul\":13653:13656   */\n      dup3\n        /* \"#utility.yul\":13649:13661   */\n      add\n        /* \"#utility.yul\":13642:13661   */\n      swap1\n      pop\n        /* \"#utility.yul\":13301:13667   */\n      swap2\n      swap1\n      pop\n      jump\t// out\n        /* \"#utility.yul\":13673:14092   */\n    tag_156:\n        /* \"#utility.yul\":13839:13843   */\n      0x00\n        /* \"#utility.yul\":13877:13879   */\n      0x20\n        /* \"#utility.yul\":13866:13875   */\n      dup3\n        /* \"#utility.yul\":13862:13880   */\n      add\n        /* \"#utility.yul\":13854:13880   */\n      swap1\n      pop\n        /* \"#utility.yul\":13926:13935   */\n      dup2\n        /* \"#utility.yul\":13920:13924   */\n      dup2\n        /* \"#utility.yul\":13916:13936   */\n      sub\n        /* \"#utility.yul\":13912:13913   */\n      0x00\n        /* \"#utility.yul\":13901:13910   */\n      dup4\n        /* \"#utility.yul\":13897:13914   */\n      add\n        /* \"#utility.yul\":13890:13937   */\n      mstore\n        /* \"#utility.yul\":13954:14085   */\n      tag_323\n        /* \"#utility.yul\":14080:14084   */\n      dup2\n        /* \"#utility.yul\":13954:14085   */\n      tag_199\n      jump\t// in\n    tag_323:\n        /* \"#utility.yul\":13946:14085   */\n      swap1\n      pop\n        /* \"#utility.yul\":13673:14092   */\n      swap2\n      swap1\n      pop\n      jump\t// out\n        /* \"#utility.yul\":14098:14331   */\n    tag_158:\n        /* \"#utility.yul\":14137:14140   */\n      0x00\n        /* \"#utility.yul\":14160:14184   */\n      tag_325\n        /* \"#utility.yul\":14178:14183   */\n      dup3\n        /* \"#utility.yul\":14160:14184   */\n      tag_175\n      jump\t// in\n    tag_325:\n        /* \"#utility.yul\":14151:14184   */\n      swap2\n      pop\n        /* \"#utility.yul\":14206:14272   */\n      0xffffffffffffffffffffffffffffffffffffffffffffffffffffffffffffffff\n        /* \"#utility.yul\":14199:14204   */\n      dup3\n        /* \"#utility.yul\":14196:14273   */\n      sub\n        /* \"#utility.yul\":14193:14296   */\n      tag_326\n      jumpi\n        /* \"#utility.yul\":14276:14294   */\n      tag_327\n      tag_187\n      jump\t// in\n    tag_327:\n        /* \"#utility.yul\":14193:14296   */\n    tag_326:\n        /* \"#utility.yul\":14323:14324   */\n      0x01\n        /* \"#utility.yul\":14316:14321   */\n      dup3\n        /* \"#utility.yul\":14312:14325   */\n      add\n        /* \"#utility.yul\":14305:14325   */\n      swap1\n      pop\n        /* \"#utility.yul\":14098:14331   */\n      swap2\n      swap1\n      pop\n      jump\t// out\n\n    auxdata: 0xa2646970667358221220bab791650459d8aa4e2befc6c5e0be7cce858be401f8e5f4dd511bb9815cc92664736f6c63430008130033\n}\n","bytecode":{"linkReferences":{},"object":"60806040523480156200001157600080fd5b5060405162001caa38038062001caa833981810160405281019062000037919062000337565b826000806101000a81548173ffffffffffffffffffffffffffffffffffffffff021916908373ffffffffffffffffffffffffffffffffffffffff16021790555042600181905550603c846200008d919062000416565b6001546200009c919062000461565b6002819055506001600960006101000a81548160ff02191690836001811115620000cb57620000ca6200049c565b5b02179055508160056000019081620000e491906200070c565b508060056001019081620000f991906200070c565b5050505050620007f3565b6000604051905090565b600080fd5b600080fd5b6000819050919050565b6200012d8162000118565b81146200013957600080fd5b50565b6000815190506200014d8162000122565b92915050565b600073ffffffffffffffffffffffffffffffffffffffff82169050919050565b6000620001808262000153565b9050919050565b620001928162000173565b81146200019e57600080fd5b50565b600081519050620001b28162000187565b92915050565b600080fd5b600080fd5b6000601f19601f8301169050919050565b7f4e487b7100000000000000000000000000000000000000000000000000000000600052604160045260246000fd5b6200020d82620001c2565b810181811067ffffffffffffffff821117156200022f576200022e620001d3565b5b80604052505050565b60006200024462000104565b905062000252828262000202565b919050565b600067ffffffffffffffff821115620002755762000274620001d3565b5b6200028082620001c2565b9050602081019050919050565b60005b83811015620002ad57808201518184015260208101905062000290565b60008484015250505050565b6000620002d0620002ca8462000257565b62000238565b905082815260208101848484011115620002ef57620002ee620001bd565b5b620002fc8482856200028d565b509392505050565b600082601f8301126200031c576200031b620001b8565b5b81516200032e848260208601620002b9565b91505092915050565b600080600080608085870312156200035457620003536200010e565b5b600062000364878288016200013c565b94505060206200037787828801620001a1565b935050604085015167ffffffffffffffff8111156200039b576200039a62000113565b5b620003a98782880162000304565b925050606085015167ffffffffffffffff811115620003cd57620003cc62000113565b5b620003db8782880162000304565b91505092959194509250565b7f4e487b7100000000000000000000000000000000000000000000000000000000600052601160045260246000fd5b6000620004238262000118565b9150620004308362000118565b9250828202620004408162000118565b915082820484148315176200045a5762000459620003e7565b5b5092915050565b60006200046e8262000118565b91506200047b8362000118565b9250828201905080821115620004965762000495620003e7565b5b92915050565b7f4e487b7100000000000000000000000000000000000000000000000000000000600052602160045260246000fd5b600081519050919050565b7f4e487b7100000000000000000000000000000000000000000000000000000000600052602260045260246000fd5b600060028204905060018216806200051e57607f821691505b602082108103620005345762000533620004d6565b5b50919050565b60008190508160005260206000209050919050565b60006020601f8301049050919050565b600082821b905092915050565b6000600883026200059e7fffffffffffffffffffffffffffffffffffffffffffffffffffffffffffffffff826200055f565b620005aa86836200055f565b95508019841693508086168417925050509392505050565b6000819050919050565b6000620005ed620005e7620005e18462000118565b620005c2565b62000118565b9050919050565b6000819050919050565b6200060983620005cc565b620006216200061882620005f4565b8484546200056c565b825550505050565b600090565b6200063862000629565b62000645818484620005fe565b505050565b5b818110156200066d57620006616000826200062e565b6001810190506200064b565b5050565b601f821115620006bc5762000686816200053a565b62000691846200054f565b81016020851015620006a1578190505b620006b9620006b0856200054f565b8301826200064a565b50505b505050565b600082821c905092915050565b6000620006e160001984600802620006c1565b1980831691505092915050565b6000620006fc8383620006ce565b9150826002028217905092915050565b6200071782620004cb565b67ffffffffffffffff811115620007335762000732620001d3565b5b6200073f825462000505565b6200074c82828562000671565b600060209050601f8311600181146200078457600084156200076f578287015190505b6200077b8582620006ee565b865550620007eb565b601f19841662000794866200053a565b60005b82811015620007be5784890151825560018201915060208501945060208101905062000797565b86831015620007de5784890151620007da601f891682620006ce565b8355505b6001600288020188555050505b505050505050565b6114a780620008036000396000f3fe6080604052600436106100c25760003560e01c80638fa8b7901161007f578063c486456c11610059578063c486456c14610250578063cff29dfd1461027b578063d57bde79146102b8578063ddfcec08146102e3576100c2565b80638fa8b790146101cf57806391f90157146101fa578063c458b65a14610225576100c2565b80630216f202146100c75780631998aeef146100f35780633ccfd60b1461011157806362ea82db1461013c57806378f4534014610179578063893d20e8146101a4575b600080fd5b3480156100d357600080fd5b506100dc61030e565b6040516100ea929190610d54565b60405180910390f35b6100fb610430565b6040516101089190610da6565b60405180910390f35b34801561011d57600080fd5b506101266106bf565b6040516101339190610da6565b60405180910390f35b34801561014857600080fd5b50610163600480360381019061015e9190610e24565b610853565b6040516101709190610e6a565b60405180910390f35b34801561018557600080fd5b5061018e61086b565b60405161019b9190610e6a565b60405180910390f35b3480156101b057600080fd5b506101b9610871565b6040516101c69190610e94565b60405180910390f35b3480156101db57600080fd5b506101e461089a565b6040516101f19190610da6565b60405180910390f35b34801561020657600080fd5b5061020f610a19565b60405161021c9190610e94565b60405180910390f35b34801561023157600080fd5b5061023a610a3f565b6040516102479190610e6a565b60405180910390f35b34801561025c57600080fd5b50610265610a45565b6040516102729190610f26565b60405180910390f35b34801561028757600080fd5b506102a2600480360381019061029d9190610f6d565b610a58565b6040516102af9190610e94565b60405180910390f35b3480156102c457600080fd5b506102cd610a97565b6040516102da9190610e6a565b60405180910390f35b3480156102ef57600080fd5b506102f8610a9d565b6040516103059190610da6565b60405180910390f35b600580600001805461031f90610fc9565b80601f016020809104026020016040519081016040528092919081815260200182805461034b90610fc9565b80156103985780601f1061036d57610100808354040283529160200191610398565b820191906000526020600020905b81548152906001019060200180831161037b57829003601f168201915b5050505050908060010180546103ad90610fc9565b80601f01602080910402602001604051908101604052809291908181526020018280546103d990610fc9565b80156104265780601f106103fb57610100808354040283529160200191610426565b820191906000526020600020905b81548152906001019060200180831161040957829003601f168201915b5050505050905082565b6000600254421115801561047857506000600181111561045357610452610eaf565b5b600960009054906101000a900460ff16600181111561047557610474610eaf565b5b14155b6104b7576040517f08c379a00000000000000000000000000000000000000000000000000000000081526004016104ae90611046565b60405180910390fd5b60035434600860003373ffffffffffffffffffffffffffffffffffffffff1673ffffffffffffffffffffffffffffffffffffffff168152602001908152602001600020546105059190611095565b11610545576040517f08c379a000000000000000000000000000000000000000000000000000000000815260040161053c90611115565b60405180910390fd5b33600460006101000a81548173ffffffffffffffffffffffffffffffffffffffff021916908373ffffffffffffffffffffffffffffffffffffffff160217905550346003819055506007339080600181540180825580915050600190039060005260206000200160009091909190916101000a81548173ffffffffffffffffffffffffffffffffffffffff021916908373ffffffffffffffffffffffffffffffffffffffff16021790555034600860003373ffffffffffffffffffffffffffffffffffffffff1673ffffffffffffffffffffffffffffffffffffffff168152602001908152602001600020600082825461063f9190611095565b92505081905550600460009054906101000a900473ffffffffffffffffffffffffffffffffffffffff1673ffffffffffffffffffffffffffffffffffffffff167f0d993d4f8a84158f5329713d6d13ef54e77b325040c887c8b3e565cfd0cd3e216003546040516106b09190610e6a565b60405180910390a26001905090565b60008060018111156106d4576106d3610eaf565b5b600960009054906101000a900460ff1660018111156106f6576106f5610eaf565b5b1480610703575060025442115b610742576040517f08c379a000000000000000000000000000000000000000000000000000000000815260040161073990611181565b60405180910390fd5b6000600860003373ffffffffffffffffffffffffffffffffffffffff1673ffffffffffffffffffffffffffffffffffffffff1681526020019081526020016000205490506000600860003373ffffffffffffffffffffffffffffffffffffffff1673ffffffffffffffffffffffffffffffffffffffff168152602001908152602001600020819055503373ffffffffffffffffffffffffffffffffffffffff166108fc829081150290604051600060405180830381858888f19350505050158015610811573d6000803e3d6000fd5b507f2f174ca282119315c59efaf21147aef438581dabdeb498198ae28964373dd8bc33826040516108439291906111a1565b60405180910390a1600191505090565b60086020528060005260406000206000915090505481565b60015481565b60008060009054906101000a900473ffffffffffffffffffffffffffffffffffffffff16905090565b60008060009054906101000a900473ffffffffffffffffffffffffffffffffffffffff1673ffffffffffffffffffffffffffffffffffffffff163373ffffffffffffffffffffffffffffffffffffffff161461092b576040517f08c379a00000000000000000000000000000000000000000000000000000000081526004016109229061123c565b60405180910390fd5b600254421115801561097157506000600181111561094c5761094b610eaf565b5b600960009054906101000a900460ff16600181111561096e5761096d610eaf565b5b14155b6109b0576040517f08c379a00000000000000000000000000000000000000000000000000000000081526004016109a790611046565b60405180910390fd5b7f06b08932edfa95ecf10e18f8e389c58332551bbfe5faf843ed9afb329fd14118426040516109df91906112a8565b60405180910390a16000600960006101000a81548160ff02191690836001811115610a0d57610a0c610eaf565b5b02179055506001905090565b600460009054906101000a900473ffffffffffffffffffffffffffffffffffffffff1681565b60025481565b600960009054906101000a900460ff1681565b60078181548110610a6857600080fd5b906000526020600020016000915054906101000a900473ffffffffffffffffffffffffffffffffffffffff1681565b60035481565b60008060009054906101000a900473ffffffffffffffffffffffffffffffffffffffff1673ffffffffffffffffffffffffffffffffffffffff163373ffffffffffffffffffffffffffffffffffffffff1614610b2e576040517f08c379a0000000000000000000000000000000000000000000000000000000008152600401610b259061123c565b60405180910390fd5b6002544211610b72576040517f08c379a0000000000000000000000000000000000000000000000000000000008152600401610b6990611348565b60405180910390fd5b60005b600780549050811015610c555760006008600060078481548110610b9c57610b9b611368565b5b9060005260206000200160009054906101000a900473ffffffffffffffffffffffffffffffffffffffff1673ffffffffffffffffffffffffffffffffffffffff1673ffffffffffffffffffffffffffffffffffffffff1681526020019081526020016000205414610c42576040517f08c379a0000000000000000000000000000000000000000000000000000000008152600401610c3990611409565b60405180910390fd5b8080610c4d90611429565b915050610b75565b5060008054906101000a900473ffffffffffffffffffffffffffffffffffffffff1673ffffffffffffffffffffffffffffffffffffffff166108fc479081150290604051600060405180830381858888f19350505050158015610cbc573d6000803e3d6000fd5b506001905090565b600081519050919050565b600082825260208201905092915050565b60005b83811015610cfe578082015181840152602081019050610ce3565b60008484015250505050565b6000601f19601f8301169050919050565b6000610d2682610cc4565b610d308185610ccf565b9350610d40818560208601610ce0565b610d4981610d0a565b840191505092915050565b60006040820190508181036000830152610d6e8185610d1b565b90508181036020830152610d828184610d1b565b90509392505050565b60008115159050919050565b610da081610d8b565b82525050565b6000602082019050610dbb6000830184610d97565b92915050565b600080fd5b600073ffffffffffffffffffffffffffffffffffffffff82169050919050565b6000610df182610dc6565b9050919050565b610e0181610de6565b8114610e0c57600080fd5b50565b600081359050610e1e81610df8565b92915050565b600060208284031215610e3a57610e39610dc1565b5b6000610e4884828501610e0f565b91505092915050565b6000819050919050565b610e6481610e51565b82525050565b6000602082019050610e7f6000830184610e5b565b92915050565b610e8e81610de6565b82525050565b6000602082019050610ea96000830184610e85565b92915050565b7f4e487b7100000000000000000000000000000000000000000000000000000000600052602160045260246000fd5b60028110610eef57610eee610eaf565b5b50565b6000819050610f0082610ede565b919050565b6000610f1082610ef2565b9050919050565b610f2081610f05565b82525050565b6000602082019050610f3b6000830184610f17565b92915050565b610f4a81610e51565b8114610f5557600080fd5b50565b600081359050610f6781610f41565b92915050565b600060208284031215610f8357610f82610dc1565b5b6000610f9184828501610f58565b91505092915050565b7f4e487b7100000000000000000000000000000000000000000000000000000000600052602260045260246000fd5b60006002820490506001821680610fe157607f821691505b602082108103610ff457610ff3610f9a565b5b50919050565b7f41756374696f6e2068617320656e646564000000000000000000000000000000600082015250565b6000611030601183610ccf565b915061103b82610ffa565b602082019050919050565b6000602082019050818103600083015261105f81611023565b9050919050565b7f4e487b7100000000000000000000000000000000000000000000000000000000600052601160045260246000fd5b60006110a082610e51565b91506110ab83610e51565b92508282019050808211156110c3576110c2611066565b5b92915050565b7f596f752063616e2774206269642c204d616b6520612068696768657220426964600082015250565b60006110ff602083610ccf565b915061110a826110c9565b602082019050919050565b6000602082019050818103600083015261112e816110f2565b9050919050565b7f41756374696f6e206973207374696c6c206f6e676f696e670000000000000000600082015250565b600061116b601883610ccf565b915061117682611135565b602082019050919050565b6000602082019050818103600083015261119a8161115e565b9050919050565b60006040820190506111b66000830185610e85565b6111c36020830184610e5b565b9392505050565b7f4f6e6c792061756374696f6e206f776e65722063616e2063616c6c207468697360008201527f2066756e6374696f6e0000000000000000000000000000000000000000000000602082015250565b6000611226602983610ccf565b9150611231826111ca565b604082019050919050565b6000602082019050818103600083015261125581611219565b9050919050565b7f41756374696f6e2043616e63656c6c6564000000000000000000000000000000600082015250565b6000611292601183610ccf565b915061129d8261125c565b602082019050919050565b600060408201905081810360008301526112c181611285565b90506112d06020830184610e5b565b92915050565b7f596f752063616e27742064657374727563742074686520636f6e74726163742c60008201527f205468652061756374696f6e206973207374696c6c206f70656e000000000000602082015250565b6000611332603a83610ccf565b915061133d826112d6565b604082019050919050565b6000602082019050818103600083015261136181611325565b9050919050565b7f4e487b7100000000000000000000000000000000000000000000000000000000600052603260045260246000fd5b7f42696464657273207374696c6c20686176652072656d61696e696e672066756e60008201527f6473000000000000000000000000000000000000000000000000000000000000602082015250565b60006113f3602283610ccf565b91506113fe82611397565b604082019050919050565b60006020820190508181036000830152611422816113e6565b9050919050565b600061143482610e51565b91507fffffffffffffffffffffffffffffffffffffffffffffffffffffffffffffffff820361146657611465611066565b5b60018201905091905056fea2646970667358221220bab791650459d8aa4e2befc6c5e0be7cce858be401f8e5f4dd511bb9815cc92664736f6c63430008130033","opcodes":"PUSH1 0x80 PUSH1 0x40 MSTORE CALLVALUE DUP1 ISZERO PUSH3 0x11 JUMPI PUSH1 0x0 DUP1 REVERT JUMPDEST POP PUSH1 0x40 MLOAD PUSH3 0x1CAA CODESIZE SUB DUP1 PUSH3 0x1CAA DUP4 CODECOPY DUP2 DUP2 ADD PUSH1 0x40 MSTORE DUP2 ADD SWAP1 PUSH3 0x37 SWAP2 SWAP1 PUSH3 0x337 JUMP JUMPDEST DUP3 PUSH1 0x0 DUP1 PUSH2 0x100 EXP DUP2 SLOAD DUP2 PUSH20 0xFFFFFFFFFFFFFFFFFFFFFFFFFFFFFFFFFFFFFFFF MUL NOT AND SWAP1 DUP4 PUSH20 0xFFFFFFFFFFFFFFFFFFFFFFFFFFFFFFFFFFFFFFFF AND MUL OR SWAP1 SSTORE POP TIMESTAMP PUSH1 0x1 DUP2 SWAP1 SSTORE POP PUSH1 0x3C DUP5 PUSH3 0x8D SWAP2 SWAP1 PUSH3 0x416 JUMP JUMPDEST PUSH1 0x1 SLOAD PUSH3 0x9C SWAP2 SWAP1 PUSH3 0x461 JUMP JUMPDEST PUSH1 0x2 DUP2 SWAP1 SSTORE POP PUSH1 0x1 PUSH1 0x9 PUSH1 0x0 PUSH2 0x100 EXP DUP2 SLOAD DUP2 PUSH1 0xFF MUL NOT AND SWAP1 DUP4 PUSH1 0x1 DUP2 GT ISZERO PUSH3 0xCB JUMPI PUSH3 0xCA PUSH3 0x49C JUMP JUMPDEST JUMPDEST MUL OR SWAP1 SSTORE POP DUP2 PUSH1 0x5 PUSH1 0x0 ADD SWAP1 DUP2 PUSH3 0xE4 SWAP2 SWAP1 PUSH3 0x70C JUMP JUMPDEST POP DUP1 PUSH1 0x5 PUSH1 0x1 ADD SWAP1 DUP2 PUSH3 0xF9 SWAP2 SWAP1 PUSH3 0x70C JUMP JUMPDEST POP POP POP POP POP PUSH3 0x7F3 JUMP JUMPDEST PUSH1 0x0 PUSH1 0x40 MLOAD SWAP1 POP SWAP1 JUMP JUMPDEST PUSH1 0x0 DUP1 REVERT JUMPDEST PUSH1 0x0 DUP1 REVERT JUMPDEST PUSH1 0x0 DUP2 SWAP1 POP SWAP2 SWAP1 POP JUMP JUMPDEST PUSH3 0x12D DUP2 PUSH3 0x118 JUMP JUMPDEST DUP2 EQ PUSH3 0x139 JUMPI PUSH1 0x0 DUP1 REVERT JUMPDEST POP JUMP JUMPDEST PUSH1 0x0 DUP2 MLOAD SWAP1 POP PUSH3 0x14D DUP2 PUSH3 0x122 JUMP JUMPDEST SWAP3 SWAP2 POP POP JUMP JUMPDEST PUSH1 0x0 PUSH20 0xFFFFFFFFFFFFFFFFFFFFFFFFFFFFFFFFFFFFFFFF DUP3 AND SWAP1 POP SWAP2 SWAP1 POP JUMP JUMPDEST PUSH1 0x0 PUSH3 0x180 DUP3 PUSH3 0x153 JUMP JUMPDEST SWAP1 POP SWAP2 SWAP1 POP JUMP JUMPDEST PUSH3 0x192 DUP2 PUSH3 0x173 JUMP JUMPDEST DUP2 EQ PUSH3 0x19E JUMPI PUSH1 0x0 DUP1 REVERT JUMPDEST POP JUMP JUMPDEST PUSH1 0x0 DUP2 MLOAD SWAP1 POP PUSH3 0x1B2 DUP2 PUSH3 0x187 JUMP JUMPDEST SWAP3 SWAP2 POP POP JUMP JUMPDEST PUSH1 0x0 DUP1 REVERT JUMPDEST PUSH1 0x0 DUP1 REVERT JUMPDEST PUSH1 0x0 PUSH1 0x1F NOT PUSH1 0x1F DUP4 ADD AND SWAP1 POP SWAP2 SWAP1 POP JUMP JUMPDEST PUSH32 0x4E487B7100000000000000000000000000000000000000000000000000000000 PUSH1 0x0 MSTORE PUSH1 0x41 PUSH1 0x4 MSTORE PUSH1 0x24 PUSH1 0x0 REVERT JUMPDEST PUSH3 0x20D DUP3 PUSH3 0x1C2 JUMP JUMPDEST DUP2 ADD DUP2 DUP2 LT PUSH8 0xFFFFFFFFFFFFFFFF DUP3 GT OR ISZERO PUSH3 0x22F JUMPI PUSH3 0x22E PUSH3 0x1D3 JUMP JUMPDEST JUMPDEST DUP1 PUSH1 0x40 MSTORE POP POP POP JUMP JUMPDEST PUSH1 0x0 PUSH3 0x244 PUSH3 0x104 JUMP JUMPDEST SWAP1 POP PUSH3 0x252 DUP3 DUP3 PUSH3 0x202 JUMP JUMPDEST SWAP2 SWAP1 POP JUMP JUMPDEST PUSH1 0x0 PUSH8 0xFFFFFFFFFFFFFFFF DUP3 GT ISZERO PUSH3 0x275 JUMPI PUSH3 0x274 PUSH3 0x1D3 JUMP JUMPDEST JUMPDEST PUSH3 0x280 DUP3 PUSH3 0x1C2 JUMP JUMPDEST SWAP1 POP PUSH1 0x20 DUP2 ADD SWAP1 POP SWAP2 SWAP1 POP JUMP JUMPDEST PUSH1 0x0 JUMPDEST DUP4 DUP2 LT ISZERO PUSH3 0x2AD JUMPI DUP1 DUP3 ADD MLOAD DUP2 DUP5 ADD MSTORE PUSH1 0x20 DUP2 ADD SWAP1 POP PUSH3 0x290 JUMP JUMPDEST PUSH1 0x0 DUP5 DUP5 ADD MSTORE POP POP POP POP JUMP JUMPDEST PUSH1 0x0 PUSH3 0x2D0 PUSH3 0x2CA DUP5 PUSH3 0x257 JUMP JUMPDEST PUSH3 0x238 JUMP JUMPDEST SWAP1 POP DUP3 DUP2 MSTORE PUSH1 0x20 DUP2 ADD DUP5 DUP5 DUP5 ADD GT ISZERO PUSH3 0x2EF JUMPI PUSH3 0x2EE PUSH3 0x1BD JUMP JUMPDEST JUMPDEST PUSH3 0x2FC DUP5 DUP3 DUP6 PUSH3 0x28D JUMP JUMPDEST POP SWAP4 SWAP3 POP POP POP JUMP JUMPDEST PUSH1 0x0 DUP3 PUSH1 0x1F DUP4 ADD SLT PUSH3 0x31C JUMPI PUSH3 0x31B PUSH3 0x1B8 JUMP JUMPDEST JUMPDEST DUP2 MLOAD PUSH3 0x32E DUP5 DUP3 PUSH1 0x20 DUP7 ADD PUSH3 0x2B9 JUMP JUMPDEST SWAP2 POP POP SWAP3 SWAP2 POP POP JUMP JUMPDEST PUSH1 0x0 DUP1 PUSH1 0x0 DUP1 PUSH1 0x80 DUP6 DUP8 SUB SLT ISZERO PUSH3 0x354 JUMPI PUSH3 0x353 PUSH3 0x10E JUMP JUMPDEST JUMPDEST PUSH1 0x0 PUSH3 0x364 DUP8 DUP3 DUP9 ADD PUSH3 0x13C JUMP JUMPDEST SWAP5 POP POP PUSH1 0x20 PUSH3 0x377 DUP8 DUP3 DUP9 ADD PUSH3 0x1A1 JUMP JUMPDEST SWAP4 POP POP PUSH1 0x40 DUP6 ADD MLOAD PUSH8 0xFFFFFFFFFFFFFFFF DUP2 GT ISZERO PUSH3 0x39B JUMPI PUSH3 0x39A PUSH3 0x113 JUMP JUMPDEST JUMPDEST PUSH3 0x3A9 DUP8 DUP3 DUP9 ADD PUSH3 0x304 JUMP JUMPDEST SWAP3 POP POP PUSH1 0x60 DUP6 ADD MLOAD PUSH8 0xFFFFFFFFFFFFFFFF DUP2 GT ISZERO PUSH3 0x3CD JUMPI PUSH3 0x3CC PUSH3 0x113 JUMP JUMPDEST JUMPDEST PUSH3 0x3DB DUP8 DUP3 DUP9 ADD PUSH3 0x304 JUMP JUMPDEST SWAP2 POP POP SWAP3 SWAP6 SWAP2 SWAP5 POP SWAP3 POP JUMP JUMPDEST PUSH32 0x4E487B7100000000000000000000000000000000000000000000000000000000 PUSH1 0x0 MSTORE PUSH1 0x11 PUSH1 0x4 MSTORE PUSH1 0x24 PUSH1 0x0 REVERT JUMPDEST PUSH1 0x0 PUSH3 0x423 DUP3 PUSH3 0x118 JUMP JUMPDEST SWAP2 POP PUSH3 0x430 DUP4 PUSH3 0x118 JUMP JUMPDEST SWAP3 POP DUP3 DUP3 MUL PUSH3 0x440 DUP2 PUSH3 0x118 JUMP JUMPDEST SWAP2 POP DUP3 DUP3 DIV DUP5 EQ DUP4 ISZERO OR PUSH3 0x45A JUMPI PUSH3 0x459 PUSH3 0x3E7 JUMP JUMPDEST JUMPDEST POP SWAP3 SWAP2 POP POP JUMP JUMPDEST PUSH1 0x0 PUSH3 0x46E DUP3 PUSH3 0x118 JUMP JUMPDEST SWAP2 POP PUSH3 0x47B DUP4 PUSH3 0x118 JUMP JUMPDEST SWAP3 POP DUP3 DUP3 ADD SWAP1 POP DUP1 DUP3 GT ISZERO PUSH3 0x496 JUMPI PUSH3 0x495 PUSH3 0x3E7 JUMP JUMPDEST JUMPDEST SWAP3 SWAP2 POP POP JUMP JUMPDEST PUSH32 0x4E487B7100000000000000000000000000000000000000000000000000000000 PUSH1 0x0 MSTORE PUSH1 0x21 PUSH1 0x4 MSTORE PUSH1 0x24 PUSH1 0x0 REVERT JUMPDEST PUSH1 0x0 DUP2 MLOAD SWAP1 POP SWAP2 SWAP1 POP JUMP JUMPDEST PUSH32 0x4E487B7100000000000000000000000000000000000000000000000000000000 PUSH1 0x0 MSTORE PUSH1 0x22 PUSH1 0x4 MSTORE PUSH1 0x24 PUSH1 0x0 REVERT JUMPDEST PUSH1 0x0 PUSH1 0x2 DUP3 DIV SWAP1 POP PUSH1 0x1 DUP3 AND DUP1 PUSH3 0x51E JUMPI PUSH1 0x7F DUP3 AND SWAP2 POP JUMPDEST PUSH1 0x20 DUP3 LT DUP2 SUB PUSH3 0x534 JUMPI PUSH3 0x533 PUSH3 0x4D6 JUMP JUMPDEST JUMPDEST POP SWAP2 SWAP1 POP JUMP JUMPDEST PUSH1 0x0 DUP2 SWAP1 POP DUP2 PUSH1 0x0 MSTORE PUSH1 0x20 PUSH1 0x0 KECCAK256 SWAP1 POP SWAP2 SWAP1 POP JUMP JUMPDEST PUSH1 0x0 PUSH1 0x20 PUSH1 0x1F DUP4 ADD DIV SWAP1 POP SWAP2 SWAP1 POP JUMP JUMPDEST PUSH1 0x0 DUP3 DUP3 SHL SWAP1 POP SWAP3 SWAP2 POP POP JUMP JUMPDEST PUSH1 0x0 PUSH1 0x8 DUP4 MUL PUSH3 0x59E PUSH32 0xFFFFFFFFFFFFFFFFFFFFFFFFFFFFFFFFFFFFFFFFFFFFFFFFFFFFFFFFFFFFFFFF DUP3 PUSH3 0x55F JUMP JUMPDEST PUSH3 0x5AA DUP7 DUP4 PUSH3 0x55F JUMP JUMPDEST SWAP6 POP DUP1 NOT DUP5 AND SWAP4 POP DUP1 DUP7 AND DUP5 OR SWAP3 POP POP POP SWAP4 SWAP3 POP POP POP JUMP JUMPDEST PUSH1 0x0 DUP2 SWAP1 POP SWAP2 SWAP1 POP JUMP JUMPDEST PUSH1 0x0 PUSH3 0x5ED PUSH3 0x5E7 PUSH3 0x5E1 DUP5 PUSH3 0x118 JUMP JUMPDEST PUSH3 0x5C2 JUMP JUMPDEST PUSH3 0x118 JUMP JUMPDEST SWAP1 POP SWAP2 SWAP1 POP JUMP JUMPDEST PUSH1 0x0 DUP2 SWAP1 POP SWAP2 SWAP1 POP JUMP JUMPDEST PUSH3 0x609 DUP4 PUSH3 0x5CC JUMP JUMPDEST PUSH3 0x621 PUSH3 0x618 DUP3 PUSH3 0x5F4 JUMP JUMPDEST DUP5 DUP5 SLOAD PUSH3 0x56C JUMP JUMPDEST DUP3 SSTORE POP POP POP POP JUMP JUMPDEST PUSH1 0x0 SWAP1 JUMP JUMPDEST PUSH3 0x638 PUSH3 0x629 JUMP JUMPDEST PUSH3 0x645 DUP2 DUP5 DUP5 PUSH3 0x5FE JUMP JUMPDEST POP POP POP JUMP JUMPDEST JUMPDEST DUP2 DUP2 LT ISZERO PUSH3 0x66D JUMPI PUSH3 0x661 PUSH1 0x0 DUP3 PUSH3 0x62E JUMP JUMPDEST PUSH1 0x1 DUP2 ADD SWAP1 POP PUSH3 0x64B JUMP JUMPDEST POP POP JUMP JUMPDEST PUSH1 0x1F DUP3 GT ISZERO PUSH3 0x6BC JUMPI PUSH3 0x686 DUP2 PUSH3 0x53A JUMP JUMPDEST PUSH3 0x691 DUP5 PUSH3 0x54F JUMP JUMPDEST DUP2 ADD PUSH1 0x20 DUP6 LT ISZERO PUSH3 0x6A1 JUMPI DUP2 SWAP1 POP JUMPDEST PUSH3 0x6B9 PUSH3 0x6B0 DUP6 PUSH3 0x54F JUMP JUMPDEST DUP4 ADD DUP3 PUSH3 0x64A JUMP JUMPDEST POP POP JUMPDEST POP POP POP JUMP JUMPDEST PUSH1 0x0 DUP3 DUP3 SHR SWAP1 POP SWAP3 SWAP2 POP POP JUMP JUMPDEST PUSH1 0x0 PUSH3 0x6E1 PUSH1 0x0 NOT DUP5 PUSH1 0x8 MUL PUSH3 0x6C1 JUMP JUMPDEST NOT DUP1 DUP4 AND SWAP2 POP POP SWAP3 SWAP2 POP POP JUMP JUMPDEST PUSH1 0x0 PUSH3 0x6FC DUP4 DUP4 PUSH3 0x6CE JUMP JUMPDEST SWAP2 POP DUP3 PUSH1 0x2 MUL DUP3 OR SWAP1 POP SWAP3 SWAP2 POP POP JUMP JUMPDEST PUSH3 0x717 DUP3 PUSH3 0x4CB JUMP JUMPDEST PUSH8 0xFFFFFFFFFFFFFFFF DUP2 GT ISZERO PUSH3 0x733 JUMPI PUSH3 0x732 PUSH3 0x1D3 JUMP JUMPDEST JUMPDEST PUSH3 0x73F DUP3 SLOAD PUSH3 0x505 JUMP JUMPDEST PUSH3 0x74C DUP3 DUP3 DUP6 PUSH3 0x671 JUMP JUMPDEST PUSH1 0x0 PUSH1 0x20 SWAP1 POP PUSH1 0x1F DUP4 GT PUSH1 0x1 DUP2 EQ PUSH3 0x784 JUMPI PUSH1 0x0 DUP5 ISZERO PUSH3 0x76F JUMPI DUP3 DUP8 ADD MLOAD SWAP1 POP JUMPDEST PUSH3 0x77B DUP6 DUP3 PUSH3 0x6EE JUMP JUMPDEST DUP7 SSTORE POP PUSH3 0x7EB JUMP JUMPDEST PUSH1 0x1F NOT DUP5 AND PUSH3 0x794 DUP7 PUSH3 0x53A JUMP JUMPDEST PUSH1 0x0 JUMPDEST DUP3 DUP2 LT ISZERO PUSH3 0x7BE JUMPI DUP5 DUP10 ADD MLOAD DUP3 SSTORE PUSH1 0x1 DUP3 ADD SWAP2 POP PUSH1 0x20 DUP6 ADD SWAP5 POP PUSH1 0x20 DUP2 ADD SWAP1 POP PUSH3 0x797 JUMP JUMPDEST DUP7 DUP4 LT ISZERO PUSH3 0x7DE JUMPI DUP5 DUP10 ADD MLOAD PUSH3 0x7DA PUSH1 0x1F DUP10 AND DUP3 PUSH3 0x6CE JUMP JUMPDEST DUP4 SSTORE POP JUMPDEST PUSH1 0x1 PUSH1 0x2 DUP9 MUL ADD DUP9 SSTORE POP POP POP JUMPDEST POP POP POP POP POP POP JUMP JUMPDEST PUSH2 0x14A7 DUP1 PUSH3 0x803 PUSH1 0x0 CODECOPY PUSH1 0x0 RETURN INVALID PUSH1 0x80 PUSH1 0x40 MSTORE PUSH1 0x4 CALLDATASIZE LT PUSH2 0xC2 JUMPI PUSH1 0x0 CALLDATALOAD PUSH1 0xE0 SHR DUP1 PUSH4 0x8FA8B790 GT PUSH2 0x7F JUMPI DUP1 PUSH4 0xC486456C GT PUSH2 0x59 JUMPI DUP1 PUSH4 0xC486456C EQ PUSH2 0x250 JUMPI DUP1 PUSH4 0xCFF29DFD EQ PUSH2 0x27B JUMPI DUP1 PUSH4 0xD57BDE79 EQ PUSH2 0x2B8 JUMPI DUP1 PUSH4 0xDDFCEC08 EQ PUSH2 0x2E3 JUMPI PUSH2 0xC2 JUMP JUMPDEST DUP1 PUSH4 0x8FA8B790 EQ PUSH2 0x1CF JUMPI DUP1 PUSH4 0x91F90157 EQ PUSH2 0x1FA JUMPI DUP1 PUSH4 0xC458B65A EQ PUSH2 0x225 JUMPI PUSH2 0xC2 JUMP JUMPDEST DUP1 PUSH4 0x216F202 EQ PUSH2 0xC7 JUMPI DUP1 PUSH4 0x1998AEEF EQ PUSH2 0xF3 JUMPI DUP1 PUSH4 0x3CCFD60B EQ PUSH2 0x111 JUMPI DUP1 PUSH4 0x62EA82DB EQ PUSH2 0x13C JUMPI DUP1 PUSH4 0x78F45340 EQ PUSH2 0x179 JUMPI DUP1 PUSH4 0x893D20E8 EQ PUSH2 0x1A4 JUMPI JUMPDEST PUSH1 0x0 DUP1 REVERT JUMPDEST CALLVALUE DUP1 ISZERO PUSH2 0xD3 JUMPI PUSH1 0x0 DUP1 REVERT JUMPDEST POP PUSH2 0xDC PUSH2 0x30E JUMP JUMPDEST PUSH1 0x40 MLOAD PUSH2 0xEA SWAP3 SWAP2 SWAP1 PUSH2 0xD54 JUMP JUMPDEST PUSH1 0x40 MLOAD DUP1 SWAP2 SUB SWAP1 RETURN JUMPDEST PUSH2 0xFB PUSH2 0x430 JUMP JUMPDEST PUSH1 0x40 MLOAD PUSH2 0x108 SWAP2 SWAP1 PUSH2 0xDA6 JUMP JUMPDEST PUSH1 0x40 MLOAD DUP1 SWAP2 SUB SWAP1 RETURN JUMPDEST CALLVALUE DUP1 ISZERO PUSH2 0x11D JUMPI PUSH1 0x0 DUP1 REVERT JUMPDEST POP PUSH2 0x126 PUSH2 0x6BF JUMP JUMPDEST PUSH1 0x40 MLOAD PUSH2 0x133 SWAP2 SWAP1 PUSH2 0xDA6 JUMP JUMPDEST PUSH1 0x40 MLOAD DUP1 SWAP2 SUB SWAP1 RETURN JUMPDEST CALLVALUE DUP1 ISZERO PUSH2 0x148 JUMPI PUSH1 0x0 DUP1 REVERT JUMPDEST POP PUSH2 0x163 PUSH1 0x4 DUP1 CALLDATASIZE SUB DUP2 ADD SWAP1 PUSH2 0x15E SWAP2 SWAP1 PUSH2 0xE24 JUMP JUMPDEST PUSH2 0x853 JUMP JUMPDEST PUSH1 0x40 MLOAD PUSH2 0x170 SWAP2 SWAP1 PUSH2 0xE6A JUMP JUMPDEST PUSH1 0x40 MLOAD DUP1 SWAP2 SUB SWAP1 RETURN JUMPDEST CALLVALUE DUP1 ISZERO PUSH2 0x185 JUMPI PUSH1 0x0 DUP1 REVERT JUMPDEST POP PUSH2 0x18E PUSH2 0x86B JUMP JUMPDEST PUSH1 0x40 MLOAD PUSH2 0x19B SWAP2 SWAP1 PUSH2 0xE6A JUMP JUMPDEST PUSH1 0x40 MLOAD DUP1 SWAP2 SUB SWAP1 RETURN JUMPDEST CALLVALUE DUP1 ISZERO PUSH2 0x1B0 JUMPI PUSH1 0x0 DUP1 REVERT JUMPDEST POP PUSH2 0x1B9 PUSH2 0x871 JUMP JUMPDEST PUSH1 0x40 MLOAD PUSH2 0x1C6 SWAP2 SWAP1 PUSH2 0xE94 JUMP JUMPDEST PUSH1 0x40 MLOAD DUP1 SWAP2 SUB SWAP1 RETURN JUMPDEST CALLVALUE DUP1 ISZERO PUSH2 0x1DB JUMPI PUSH1 0x0 DUP1 REVERT JUMPDEST POP PUSH2 0x1E4 PUSH2 0x89A JUMP JUMPDEST PUSH1 0x40 MLOAD PUSH2 0x1F1 SWAP2 SWAP1 PUSH2 0xDA6 JUMP JUMPDEST PUSH1 0x40 MLOAD DUP1 SWAP2 SUB SWAP1 RETURN JUMPDEST CALLVALUE DUP1 ISZERO PUSH2 0x206 JUMPI PUSH1 0x0 DUP1 REVERT JUMPDEST POP PUSH2 0x20F PUSH2 0xA19 JUMP JUMPDEST PUSH1 0x40 MLOAD PUSH2 0x21C SWAP2 SWAP1 PUSH2 0xE94 JUMP JUMPDEST PUSH1 0x40 MLOAD DUP1 SWAP2 SUB SWAP1 RETURN JUMPDEST CALLVALUE DUP1 ISZERO PUSH2 0x231 JUMPI PUSH1 0x0 DUP1 REVERT JUMPDEST POP PUSH2 0x23A PUSH2 0xA3F JUMP JUMPDEST PUSH1 0x40 MLOAD PUSH2 0x247 SWAP2 SWAP1 PUSH2 0xE6A JUMP JUMPDEST PUSH1 0x40 MLOAD DUP1 SWAP2 SUB SWAP1 RETURN JUMPDEST CALLVALUE DUP1 ISZERO PUSH2 0x25C JUMPI PUSH1 0x0 DUP1 REVERT JUMPDEST POP PUSH2 0x265 PUSH2 0xA45 JUMP JUMPDEST PUSH1 0x40 MLOAD PUSH2 0x272 SWAP2 SWAP1 PUSH2 0xF26 JUMP JUMPDEST PUSH1 0x40 MLOAD DUP1 SWAP2 SUB SWAP1 RETURN JUMPDEST CALLVALUE DUP1 ISZERO PUSH2 0x287 JUMPI PUSH1 0x0 DUP1 REVERT JUMPDEST POP PUSH2 0x2A2 PUSH1 0x4 DUP1 CALLDATASIZE SUB DUP2 ADD SWAP1 PUSH2 0x29D SWAP2 SWAP1 PUSH2 0xF6D JUMP JUMPDEST PUSH2 0xA58 JUMP JUMPDEST PUSH1 0x40 MLOAD PUSH2 0x2AF SWAP2 SWAP1 PUSH2 0xE94 JUMP JUMPDEST PUSH1 0x40 MLOAD DUP1 SWAP2 SUB SWAP1 RETURN JUMPDEST CALLVALUE DUP1 ISZERO PUSH2 0x2C4 JUMPI PUSH1 0x0 DUP1 REVERT JUMPDEST POP PUSH2 0x2CD PUSH2 0xA97 JUMP JUMPDEST PUSH1 0x40 MLOAD PUSH2 0x2DA SWAP2 SWAP1 PUSH2 0xE6A JUMP JUMPDEST PUSH1 0x40 MLOAD DUP1 SWAP2 SUB SWAP1 RETURN JUMPDEST CALLVALUE DUP1 ISZERO PUSH2 0x2EF JUMPI PUSH1 0x0 DUP1 REVERT JUMPDEST POP PUSH2 0x2F8 PUSH2 0xA9D JUMP JUMPDEST PUSH1 0x40 MLOAD PUSH2 0x305 SWAP2 SWAP1 PUSH2 0xDA6 JUMP JUMPDEST PUSH1 0x40 MLOAD DUP1 SWAP2 SUB SWAP1 RETURN JUMPDEST PUSH1 0x5 DUP1 PUSH1 0x0 ADD DUP1 SLOAD PUSH2 0x31F SWAP1 PUSH2 0xFC9 JUMP JUMPDEST DUP1 PUSH1 0x1F ADD PUSH1 0x20 DUP1 SWAP2 DIV MUL PUSH1 0x20 ADD PUSH1 0x40 MLOAD SWAP1 DUP2 ADD PUSH1 0x40 MSTORE DUP1 SWAP3 SWAP2 SWAP1 DUP2 DUP2 MSTORE PUSH1 0x20 ADD DUP3 DUP1 SLOAD PUSH2 0x34B SWAP1 PUSH2 0xFC9 JUMP JUMPDEST DUP1 ISZERO PUSH2 0x398 JUMPI DUP1 PUSH1 0x1F LT PUSH2 0x36D JUMPI PUSH2 0x100 DUP1 DUP4 SLOAD DIV MUL DUP4 MSTORE SWAP2 PUSH1 0x20 ADD SWAP2 PUSH2 0x398 JUMP JUMPDEST DUP3 ADD SWAP2 SWAP1 PUSH1 0x0 MSTORE PUSH1 0x20 PUSH1 0x0 KECCAK256 SWAP1 JUMPDEST DUP2 SLOAD DUP2 MSTORE SWAP1 PUSH1 0x1 ADD SWAP1 PUSH1 0x20 ADD DUP1 DUP4 GT PUSH2 0x37B JUMPI DUP3 SWAP1 SUB PUSH1 0x1F AND DUP3 ADD SWAP2 JUMPDEST POP POP POP POP POP SWAP1 DUP1 PUSH1 0x1 ADD DUP1 SLOAD PUSH2 0x3AD SWAP1 PUSH2 0xFC9 JUMP JUMPDEST DUP1 PUSH1 0x1F ADD PUSH1 0x20 DUP1 SWAP2 DIV MUL PUSH1 0x20 ADD PUSH1 0x40 MLOAD SWAP1 DUP2 ADD PUSH1 0x40 MSTORE DUP1 SWAP3 SWAP2 SWAP1 DUP2 DUP2 MSTORE PUSH1 0x20 ADD DUP3 DUP1 SLOAD PUSH2 0x3D9 SWAP1 PUSH2 0xFC9 JUMP JUMPDEST DUP1 ISZERO PUSH2 0x426 JUMPI DUP1 PUSH1 0x1F LT PUSH2 0x3FB JUMPI PUSH2 0x100 DUP1 DUP4 SLOAD DIV MUL DUP4 MSTORE SWAP2 PUSH1 0x20 ADD SWAP2 PUSH2 0x426 JUMP JUMPDEST DUP3 ADD SWAP2 SWAP1 PUSH1 0x0 MSTORE PUSH1 0x20 PUSH1 0x0 KECCAK256 SWAP1 JUMPDEST DUP2 SLOAD DUP2 MSTORE SWAP1 PUSH1 0x1 ADD SWAP1 PUSH1 0x20 ADD DUP1 DUP4 GT PUSH2 0x409 JUMPI DUP3 SWAP1 SUB PUSH1 0x1F AND DUP3 ADD SWAP2 JUMPDEST POP POP POP POP POP SWAP1 POP DUP3 JUMP JUMPDEST PUSH1 0x0 PUSH1 0x2 SLOAD TIMESTAMP GT ISZERO DUP1 ISZERO PUSH2 0x478 JUMPI POP PUSH1 0x0 PUSH1 0x1 DUP2 GT ISZERO PUSH2 0x453 JUMPI PUSH2 0x452 PUSH2 0xEAF JUMP JUMPDEST JUMPDEST PUSH1 0x9 PUSH1 0x0 SWAP1 SLOAD SWAP1 PUSH2 0x100 EXP SWAP1 DIV PUSH1 0xFF AND PUSH1 0x1 DUP2 GT ISZERO PUSH2 0x475 JUMPI PUSH2 0x474 PUSH2 0xEAF JUMP JUMPDEST JUMPDEST EQ ISZERO JUMPDEST PUSH2 0x4B7 JUMPI PUSH1 0x40 MLOAD PUSH32 0x8C379A000000000000000000000000000000000000000000000000000000000 DUP2 MSTORE PUSH1 0x4 ADD PUSH2 0x4AE SWAP1 PUSH2 0x1046 JUMP JUMPDEST PUSH1 0x40 MLOAD DUP1 SWAP2 SUB SWAP1 REVERT JUMPDEST PUSH1 0x3 SLOAD CALLVALUE PUSH1 0x8 PUSH1 0x0 CALLER PUSH20 0xFFFFFFFFFFFFFFFFFFFFFFFFFFFFFFFFFFFFFFFF AND PUSH20 0xFFFFFFFFFFFFFFFFFFFFFFFFFFFFFFFFFFFFFFFF AND DUP2 MSTORE PUSH1 0x20 ADD SWAP1 DUP2 MSTORE PUSH1 0x20 ADD PUSH1 0x0 KECCAK256 SLOAD PUSH2 0x505 SWAP2 SWAP1 PUSH2 0x1095 JUMP JUMPDEST GT PUSH2 0x545 JUMPI PUSH1 0x40 MLOAD PUSH32 0x8C379A000000000000000000000000000000000000000000000000000000000 DUP2 MSTORE PUSH1 0x4 ADD PUSH2 0x53C SWAP1 PUSH2 0x1115 JUMP JUMPDEST PUSH1 0x40 MLOAD DUP1 SWAP2 SUB SWAP1 REVERT JUMPDEST CALLER PUSH1 0x4 PUSH1 0x0 PUSH2 0x100 EXP DUP2 SLOAD DUP2 PUSH20 0xFFFFFFFFFFFFFFFFFFFFFFFFFFFFFFFFFFFFFFFF MUL NOT AND SWAP1 DUP4 PUSH20 0xFFFFFFFFFFFFFFFFFFFFFFFFFFFFFFFFFFFFFFFF AND MUL OR SWAP1 SSTORE POP CALLVALUE PUSH1 0x3 DUP2 SWAP1 SSTORE POP PUSH1 0x7 CALLER SWAP1 DUP1 PUSH1 0x1 DUP2 SLOAD ADD DUP1 DUP3 SSTORE DUP1 SWAP2 POP POP PUSH1 0x1 SWAP1 SUB SWAP1 PUSH1 0x0 MSTORE PUSH1 0x20 PUSH1 0x0 KECCAK256 ADD PUSH1 0x0 SWAP1 SWAP2 SWAP1 SWAP2 SWAP1 SWAP2 PUSH2 0x100 EXP DUP2 SLOAD DUP2 PUSH20 0xFFFFFFFFFFFFFFFFFFFFFFFFFFFFFFFFFFFFFFFF MUL NOT AND SWAP1 DUP4 PUSH20 0xFFFFFFFFFFFFFFFFFFFFFFFFFFFFFFFFFFFFFFFF AND MUL OR SWAP1 SSTORE POP CALLVALUE PUSH1 0x8 PUSH1 0x0 CALLER PUSH20 0xFFFFFFFFFFFFFFFFFFFFFFFFFFFFFFFFFFFFFFFF AND PUSH20 0xFFFFFFFFFFFFFFFFFFFFFFFFFFFFFFFFFFFFFFFF AND DUP2 MSTORE PUSH1 0x20 ADD SWAP1 DUP2 MSTORE PUSH1 0x20 ADD PUSH1 0x0 KECCAK256 PUSH1 0x0 DUP3 DUP3 SLOAD PUSH2 0x63F SWAP2 SWAP1 PUSH2 0x1095 JUMP JUMPDEST SWAP3 POP POP DUP2 SWAP1 SSTORE POP PUSH1 0x4 PUSH1 0x0 SWAP1 SLOAD SWAP1 PUSH2 0x100 EXP SWAP1 DIV PUSH20 0xFFFFFFFFFFFFFFFFFFFFFFFFFFFFFFFFFFFFFFFF AND PUSH20 0xFFFFFFFFFFFFFFFFFFFFFFFFFFFFFFFFFFFFFFFF AND PUSH32 0xD993D4F8A84158F5329713D6D13EF54E77B325040C887C8B3E565CFD0CD3E21 PUSH1 0x3 SLOAD PUSH1 0x40 MLOAD PUSH2 0x6B0 SWAP2 SWAP1 PUSH2 0xE6A JUMP JUMPDEST PUSH1 0x40 MLOAD DUP1 SWAP2 SUB SWAP1 LOG2 PUSH1 0x1 SWAP1 POP SWAP1 JUMP JUMPDEST PUSH1 0x0 DUP1 PUSH1 0x1 DUP2 GT ISZERO PUSH2 0x6D4 JUMPI PUSH2 0x6D3 PUSH2 0xEAF JUMP JUMPDEST JUMPDEST PUSH1 0x9 PUSH1 0x0 SWAP1 SLOAD SWAP1 PUSH2 0x100 EXP SWAP1 DIV PUSH1 0xFF AND PUSH1 0x1 DUP2 GT ISZERO PUSH2 0x6F6 JUMPI PUSH2 0x6F5 PUSH2 0xEAF JUMP JUMPDEST JUMPDEST EQ DUP1 PUSH2 0x703 JUMPI POP PUSH1 0x2 SLOAD TIMESTAMP GT JUMPDEST PUSH2 0x742 JUMPI PUSH1 0x40 MLOAD PUSH32 0x8C379A000000000000000000000000000000000000000000000000000000000 DUP2 MSTORE PUSH1 0x4 ADD PUSH2 0x739 SWAP1 PUSH2 0x1181 JUMP JUMPDEST PUSH1 0x40 MLOAD DUP1 SWAP2 SUB SWAP1 REVERT JUMPDEST PUSH1 0x0 PUSH1 0x8 PUSH1 0x0 CALLER PUSH20 0xFFFFFFFFFFFFFFFFFFFFFFFFFFFFFFFFFFFFFFFF AND PUSH20 0xFFFFFFFFFFFFFFFFFFFFFFFFFFFFFFFFFFFFFFFF AND DUP2 MSTORE PUSH1 0x20 ADD SWAP1 DUP2 MSTORE PUSH1 0x20 ADD PUSH1 0x0 KECCAK256 SLOAD SWAP1 POP PUSH1 0x0 PUSH1 0x8 PUSH1 0x0 CALLER PUSH20 0xFFFFFFFFFFFFFFFFFFFFFFFFFFFFFFFFFFFFFFFF AND PUSH20 0xFFFFFFFFFFFFFFFFFFFFFFFFFFFFFFFFFFFFFFFF AND DUP2 MSTORE PUSH1 0x20 ADD SWAP1 DUP2 MSTORE PUSH1 0x20 ADD PUSH1 0x0 KECCAK256 DUP2 SWAP1 SSTORE POP CALLER PUSH20 0xFFFFFFFFFFFFFFFFFFFFFFFFFFFFFFFFFFFFFFFF AND PUSH2 0x8FC DUP3 SWAP1 DUP2 ISZERO MUL SWAP1 PUSH1 0x40 MLOAD PUSH1 0x0 PUSH1 0x40 MLOAD DUP1 DUP4 SUB DUP2 DUP6 DUP9 DUP9 CALL SWAP4 POP POP POP POP ISZERO DUP1 ISZERO PUSH2 0x811 JUMPI RETURNDATASIZE PUSH1 0x0 DUP1 RETURNDATACOPY RETURNDATASIZE PUSH1 0x0 REVERT JUMPDEST POP PUSH32 0x2F174CA282119315C59EFAF21147AEF438581DABDEB498198AE28964373DD8BC CALLER DUP3 PUSH1 0x40 MLOAD PUSH2 0x843 SWAP3 SWAP2 SWAP1 PUSH2 0x11A1 JUMP JUMPDEST PUSH1 0x40 MLOAD DUP1 SWAP2 SUB SWAP1 LOG1 PUSH1 0x1 SWAP2 POP POP SWAP1 JUMP JUMPDEST PUSH1 0x8 PUSH1 0x20 MSTORE DUP1 PUSH1 0x0 MSTORE PUSH1 0x40 PUSH1 0x0 KECCAK256 PUSH1 0x0 SWAP2 POP SWAP1 POP SLOAD DUP2 JUMP JUMPDEST PUSH1 0x1 SLOAD DUP2 JUMP JUMPDEST PUSH1 0x0 DUP1 PUSH1 0x0 SWAP1 SLOAD SWAP1 PUSH2 0x100 EXP SWAP1 DIV PUSH20 0xFFFFFFFFFFFFFFFFFFFFFFFFFFFFFFFFFFFFFFFF AND SWAP1 POP SWAP1 JUMP JUMPDEST PUSH1 0x0 DUP1 PUSH1 0x0 SWAP1 SLOAD SWAP1 PUSH2 0x100 EXP SWAP1 DIV PUSH20 0xFFFFFFFFFFFFFFFFFFFFFFFFFFFFFFFFFFFFFFFF AND PUSH20 0xFFFFFFFFFFFFFFFFFFFFFFFFFFFFFFFFFFFFFFFF AND CALLER PUSH20 0xFFFFFFFFFFFFFFFFFFFFFFFFFFFFFFFFFFFFFFFF AND EQ PUSH2 0x92B JUMPI PUSH1 0x40 MLOAD PUSH32 0x8C379A000000000000000000000000000000000000000000000000000000000 DUP2 MSTORE PUSH1 0x4 ADD PUSH2 0x922 SWAP1 PUSH2 0x123C JUMP JUMPDEST PUSH1 0x40 MLOAD DUP1 SWAP2 SUB SWAP1 REVERT JUMPDEST PUSH1 0x2 SLOAD TIMESTAMP GT ISZERO DUP1 ISZERO PUSH2 0x971 JUMPI POP PUSH1 0x0 PUSH1 0x1 DUP2 GT ISZERO PUSH2 0x94C JUMPI PUSH2 0x94B PUSH2 0xEAF JUMP JUMPDEST JUMPDEST PUSH1 0x9 PUSH1 0x0 SWAP1 SLOAD SWAP1 PUSH2 0x100 EXP SWAP1 DIV PUSH1 0xFF AND PUSH1 0x1 DUP2 GT ISZERO PUSH2 0x96E JUMPI PUSH2 0x96D PUSH2 0xEAF JUMP JUMPDEST JUMPDEST EQ ISZERO JUMPDEST PUSH2 0x9B0 JUMPI PUSH1 0x40 MLOAD PUSH32 0x8C379A000000000000000000000000000000000000000000000000000000000 DUP2 MSTORE PUSH1 0x4 ADD PUSH2 0x9A7 SWAP1 PUSH2 0x1046 JUMP JUMPDEST PUSH1 0x40 MLOAD DUP1 SWAP2 SUB SWAP1 REVERT JUMPDEST PUSH32 0x6B08932EDFA95ECF10E18F8E389C58332551BBFE5FAF843ED9AFB329FD14118 TIMESTAMP PUSH1 0x40 MLOAD PUSH2 0x9DF SWAP2 SWAP1 PUSH2 0x12A8 JUMP JUMPDEST PUSH1 0x40 MLOAD DUP1 SWAP2 SUB SWAP1 LOG1 PUSH1 0x0 PUSH1 0x9 PUSH1 0x0 PUSH2 0x100 EXP DUP2 SLOAD DUP2 PUSH1 0xFF MUL NOT AND SWAP1 DUP4 PUSH1 0x1 DUP2 GT ISZERO PUSH2 0xA0D JUMPI PUSH2 0xA0C PUSH2 0xEAF JUMP JUMPDEST JUMPDEST MUL OR SWAP1 SSTORE POP PUSH1 0x1 SWAP1 POP SWAP1 JUMP JUMPDEST PUSH1 0x4 PUSH1 0x0 SWAP1 SLOAD SWAP1 PUSH2 0x100 EXP SWAP1 DIV PUSH20 0xFFFFFFFFFFFFFFFFFFFFFFFFFFFFFFFFFFFFFFFF AND DUP2 JUMP JUMPDEST PUSH1 0x2 SLOAD DUP2 JUMP JUMPDEST PUSH1 0x9 PUSH1 0x0 SWAP1 SLOAD SWAP1 PUSH2 0x100 EXP SWAP1 DIV PUSH1 0xFF AND DUP2 JUMP JUMPDEST PUSH1 0x7 DUP2 DUP2 SLOAD DUP2 LT PUSH2 0xA68 JUMPI PUSH1 0x0 DUP1 REVERT JUMPDEST SWAP1 PUSH1 0x0 MSTORE PUSH1 0x20 PUSH1 0x0 KECCAK256 ADD PUSH1 0x0 SWAP2 POP SLOAD SWAP1 PUSH2 0x100 EXP SWAP1 DIV PUSH20 0xFFFFFFFFFFFFFFFFFFFFFFFFFFFFFFFFFFFFFFFF AND DUP2 JUMP JUMPDEST PUSH1 0x3 SLOAD DUP2 JUMP JUMPDEST PUSH1 0x0 DUP1 PUSH1 0x0 SWAP1 SLOAD SWAP1 PUSH2 0x100 EXP SWAP1 DIV PUSH20 0xFFFFFFFFFFFFFFFFFFFFFFFFFFFFFFFFFFFFFFFF AND PUSH20 0xFFFFFFFFFFFFFFFFFFFFFFFFFFFFFFFFFFFFFFFF AND CALLER PUSH20 0xFFFFFFFFFFFFFFFFFFFFFFFFFFFFFFFFFFFFFFFF AND EQ PUSH2 0xB2E JUMPI PUSH1 0x40 MLOAD PUSH32 0x8C379A000000000000000000000000000000000000000000000000000000000 DUP2 MSTORE PUSH1 0x4 ADD PUSH2 0xB25 SWAP1 PUSH2 0x123C JUMP JUMPDEST PUSH1 0x40 MLOAD DUP1 SWAP2 SUB SWAP1 REVERT JUMPDEST PUSH1 0x2 SLOAD TIMESTAMP GT PUSH2 0xB72 JUMPI PUSH1 0x40 MLOAD PUSH32 0x8C379A000000000000000000000000000000000000000000000000000000000 DUP2 MSTORE PUSH1 0x4 ADD PUSH2 0xB69 SWAP1 PUSH2 0x1348 JUMP JUMPDEST PUSH1 0x40 MLOAD DUP1 SWAP2 SUB SWAP1 REVERT JUMPDEST PUSH1 0x0 JUMPDEST PUSH1 0x7 DUP1 SLOAD SWAP1 POP DUP2 LT ISZERO PUSH2 0xC55 JUMPI PUSH1 0x0 PUSH1 0x8 PUSH1 0x0 PUSH1 0x7 DUP5 DUP2 SLOAD DUP2 LT PUSH2 0xB9C JUMPI PUSH2 0xB9B PUSH2 0x1368 JUMP JUMPDEST JUMPDEST SWAP1 PUSH1 0x0 MSTORE PUSH1 0x20 PUSH1 0x0 KECCAK256 ADD PUSH1 0x0 SWAP1 SLOAD SWAP1 PUSH2 0x100 EXP SWAP1 DIV PUSH20 0xFFFFFFFFFFFFFFFFFFFFFFFFFFFFFFFFFFFFFFFF AND PUSH20 0xFFFFFFFFFFFFFFFFFFFFFFFFFFFFFFFFFFFFFFFF AND PUSH20 0xFFFFFFFFFFFFFFFFFFFFFFFFFFFFFFFFFFFFFFFF AND DUP2 MSTORE PUSH1 0x20 ADD SWAP1 DUP2 MSTORE PUSH1 0x20 ADD PUSH1 0x0 KECCAK256 SLOAD EQ PUSH2 0xC42 JUMPI PUSH1 0x40 MLOAD PUSH32 0x8C379A000000000000000000000000000000000000000000000000000000000 DUP2 MSTORE PUSH1 0x4 ADD PUSH2 0xC39 SWAP1 PUSH2 0x1409 JUMP JUMPDEST PUSH1 0x40 MLOAD DUP1 SWAP2 SUB SWAP1 REVERT JUMPDEST DUP1 DUP1 PUSH2 0xC4D SWAP1 PUSH2 0x1429 JUMP JUMPDEST SWAP2 POP POP PUSH2 0xB75 JUMP JUMPDEST POP PUSH1 0x0 DUP1 SLOAD SWAP1 PUSH2 0x100 EXP SWAP1 DIV PUSH20 0xFFFFFFFFFFFFFFFFFFFFFFFFFFFFFFFFFFFFFFFF AND PUSH20 0xFFFFFFFFFFFFFFFFFFFFFFFFFFFFFFFFFFFFFFFF AND PUSH2 0x8FC SELFBALANCE SWAP1 DUP2 ISZERO MUL SWAP1 PUSH1 0x40 MLOAD PUSH1 0x0 PUSH1 0x40 MLOAD DUP1 DUP4 SUB DUP2 DUP6 DUP9 DUP9 CALL SWAP4 POP POP POP POP ISZERO DUP1 ISZERO PUSH2 0xCBC JUMPI RETURNDATASIZE PUSH1 0x0 DUP1 RETURNDATACOPY RETURNDATASIZE PUSH1 0x0 REVERT JUMPDEST POP PUSH1 0x1 SWAP1 POP SWAP1 JUMP JUMPDEST PUSH1 0x0 DUP2 MLOAD SWAP1 POP SWAP2 SWAP1 POP JUMP JUMPDEST PUSH1 0x0 DUP3 DUP3 MSTORE PUSH1 0x20 DUP3 ADD SWAP1 POP SWAP3 SWAP2 POP POP JUMP JUMPDEST PUSH1 0x0 JUMPDEST DUP4 DUP2 LT ISZERO PUSH2 0xCFE JUMPI DUP1 DUP3 ADD MLOAD DUP2 DUP5 ADD MSTORE PUSH1 0x20 DUP2 ADD SWAP1 POP PUSH2 0xCE3 JUMP JUMPDEST PUSH1 0x0 DUP5 DUP5 ADD MSTORE POP POP POP POP JUMP JUMPDEST PUSH1 0x0 PUSH1 0x1F NOT PUSH1 0x1F DUP4 ADD AND SWAP1 POP SWAP2 SWAP1 POP JUMP JUMPDEST PUSH1 0x0 PUSH2 0xD26 DUP3 PUSH2 0xCC4 JUMP JUMPDEST PUSH2 0xD30 DUP2 DUP6 PUSH2 0xCCF JUMP JUMPDEST SWAP4 POP PUSH2 0xD40 DUP2 DUP6 PUSH1 0x20 DUP7 ADD PUSH2 0xCE0 JUMP JUMPDEST PUSH2 0xD49 DUP2 PUSH2 0xD0A JUMP JUMPDEST DUP5 ADD SWAP2 POP POP SWAP3 SWAP2 POP POP JUMP JUMPDEST PUSH1 0x0 PUSH1 0x40 DUP3 ADD SWAP1 POP DUP2 DUP2 SUB PUSH1 0x0 DUP4 ADD MSTORE PUSH2 0xD6E DUP2 DUP6 PUSH2 0xD1B JUMP JUMPDEST SWAP1 POP DUP2 DUP2 SUB PUSH1 0x20 DUP4 ADD MSTORE PUSH2 0xD82 DUP2 DUP5 PUSH2 0xD1B JUMP JUMPDEST SWAP1 POP SWAP4 SWAP3 POP POP POP JUMP JUMPDEST PUSH1 0x0 DUP2 ISZERO ISZERO SWAP1 POP SWAP2 SWAP1 POP JUMP JUMPDEST PUSH2 0xDA0 DUP2 PUSH2 0xD8B JUMP JUMPDEST DUP3 MSTORE POP POP JUMP JUMPDEST PUSH1 0x0 PUSH1 0x20 DUP3 ADD SWAP1 POP PUSH2 0xDBB PUSH1 0x0 DUP4 ADD DUP5 PUSH2 0xD97 JUMP JUMPDEST SWAP3 SWAP2 POP POP JUMP JUMPDEST PUSH1 0x0 DUP1 REVERT JUMPDEST PUSH1 0x0 PUSH20 0xFFFFFFFFFFFFFFFFFFFFFFFFFFFFFFFFFFFFFFFF DUP3 AND SWAP1 POP SWAP2 SWAP1 POP JUMP JUMPDEST PUSH1 0x0 PUSH2 0xDF1 DUP3 PUSH2 0xDC6 JUMP JUMPDEST SWAP1 POP SWAP2 SWAP1 POP JUMP JUMPDEST PUSH2 0xE01 DUP2 PUSH2 0xDE6 JUMP JUMPDEST DUP2 EQ PUSH2 0xE0C JUMPI PUSH1 0x0 DUP1 REVERT JUMPDEST POP JUMP JUMPDEST PUSH1 0x0 DUP2 CALLDATALOAD SWAP1 POP PUSH2 0xE1E DUP2 PUSH2 0xDF8 JUMP JUMPDEST SWAP3 SWAP2 POP POP JUMP JUMPDEST PUSH1 0x0 PUSH1 0x20 DUP3 DUP5 SUB SLT ISZERO PUSH2 0xE3A JUMPI PUSH2 0xE39 PUSH2 0xDC1 JUMP JUMPDEST JUMPDEST PUSH1 0x0 PUSH2 0xE48 DUP5 DUP3 DUP6 ADD PUSH2 0xE0F JUMP JUMPDEST SWAP2 POP POP SWAP3 SWAP2 POP POP JUMP JUMPDEST PUSH1 0x0 DUP2 SWAP1 POP SWAP2 SWAP1 POP JUMP JUMPDEST PUSH2 0xE64 DUP2 PUSH2 0xE51 JUMP JUMPDEST DUP3 MSTORE POP POP JUMP JUMPDEST PUSH1 0x0 PUSH1 0x20 DUP3 ADD SWAP1 POP PUSH2 0xE7F PUSH1 0x0 DUP4 ADD DUP5 PUSH2 0xE5B JUMP JUMPDEST SWAP3 SWAP2 POP POP JUMP JUMPDEST PUSH2 0xE8E DUP2 PUSH2 0xDE6 JUMP JUMPDEST DUP3 MSTORE POP POP JUMP JUMPDEST PUSH1 0x0 PUSH1 0x20 DUP3 ADD SWAP1 POP PUSH2 0xEA9 PUSH1 0x0 DUP4 ADD DUP5 PUSH2 0xE85 JUMP JUMPDEST SWAP3 SWAP2 POP POP JUMP JUMPDEST PUSH32 0x4E487B7100000000000000000000000000000000000000000000000000000000 PUSH1 0x0 MSTORE PUSH1 0x21 PUSH1 0x4 MSTORE PUSH1 0x24 PUSH1 0x0 REVERT JUMPDEST PUSH1 0x2 DUP2 LT PUSH2 0xEEF JUMPI PUSH2 0xEEE PUSH2 0xEAF JUMP JUMPDEST JUMPDEST POP JUMP JUMPDEST PUSH1 0x0 DUP2 SWAP1 POP PUSH2 0xF00 DUP3 PUSH2 0xEDE JUMP JUMPDEST SWAP2 SWAP1 POP JUMP JUMPDEST PUSH1 0x0 PUSH2 0xF10 DUP3 PUSH2 0xEF2 JUMP JUMPDEST SWAP1 POP SWAP2 SWAP1 POP JUMP JUMPDEST PUSH2 0xF20 DUP2 PUSH2 0xF05 JUMP JUMPDEST DUP3 MSTORE POP POP JUMP JUMPDEST PUSH1 0x0 PUSH1 0x20 DUP3 ADD SWAP1 POP PUSH2 0xF3B PUSH1 0x0 DUP4 ADD DUP5 PUSH2 0xF17 JUMP JUMPDEST SWAP3 SWAP2 POP POP JUMP JUMPDEST PUSH2 0xF4A DUP2 PUSH2 0xE51 JUMP JUMPDEST DUP2 EQ PUSH2 0xF55 JUMPI PUSH1 0x0 DUP1 REVERT JUMPDEST POP JUMP JUMPDEST PUSH1 0x0 DUP2 CALLDATALOAD SWAP1 POP PUSH2 0xF67 DUP2 PUSH2 0xF41 JUMP JUMPDEST SWAP3 SWAP2 POP POP JUMP JUMPDEST PUSH1 0x0 PUSH1 0x20 DUP3 DUP5 SUB SLT ISZERO PUSH2 0xF83 JUMPI PUSH2 0xF82 PUSH2 0xDC1 JUMP JUMPDEST JUMPDEST PUSH1 0x0 PUSH2 0xF91 DUP5 DUP3 DUP6 ADD PUSH2 0xF58 JUMP JUMPDEST SWAP2 POP POP SWAP3 SWAP2 POP POP JUMP JUMPDEST PUSH32 0x4E487B7100000000000000000000000000000000000000000000000000000000 PUSH1 0x0 MSTORE PUSH1 0x22 PUSH1 0x4 MSTORE PUSH1 0x24 PUSH1 0x0 REVERT JUMPDEST PUSH1 0x0 PUSH1 0x2 DUP3 DIV SWAP1 POP PUSH1 0x1 DUP3 AND DUP1 PUSH2 0xFE1 JUMPI PUSH1 0x7F DUP3 AND SWAP2 POP JUMPDEST PUSH1 0x20 DUP3 LT DUP2 SUB PUSH2 0xFF4 JUMPI PUSH2 0xFF3 PUSH2 0xF9A JUMP JUMPDEST JUMPDEST POP SWAP2 SWAP1 POP JUMP JUMPDEST PUSH32 0x41756374696F6E2068617320656E646564000000000000000000000000000000 PUSH1 0x0 DUP3 ADD MSTORE POP JUMP JUMPDEST PUSH1 0x0 PUSH2 0x1030 PUSH1 0x11 DUP4 PUSH2 0xCCF JUMP JUMPDEST SWAP2 POP PUSH2 0x103B DUP3 PUSH2 0xFFA JUMP JUMPDEST PUSH1 0x20 DUP3 ADD SWAP1 POP SWAP2 SWAP1 POP JUMP JUMPDEST PUSH1 0x0 PUSH1 0x20 DUP3 ADD SWAP1 POP DUP2 DUP2 SUB PUSH1 0x0 DUP4 ADD MSTORE PUSH2 0x105F DUP2 PUSH2 0x1023 JUMP JUMPDEST SWAP1 POP SWAP2 SWAP1 POP JUMP JUMPDEST PUSH32 0x4E487B7100000000000000000000000000000000000000000000000000000000 PUSH1 0x0 MSTORE PUSH1 0x11 PUSH1 0x4 MSTORE PUSH1 0x24 PUSH1 0x0 REVERT JUMPDEST PUSH1 0x0 PUSH2 0x10A0 DUP3 PUSH2 0xE51 JUMP JUMPDEST SWAP2 POP PUSH2 0x10AB DUP4 PUSH2 0xE51 JUMP JUMPDEST SWAP3 POP DUP3 DUP3 ADD SWAP1 POP DUP1 DUP3 GT ISZERO PUSH2 0x10C3 JUMPI PUSH2 0x10C2 PUSH2 0x1066 JUMP JUMPDEST JUMPDEST SWAP3 SWAP2 POP POP JUMP JUMPDEST PUSH32 0x596F752063616E2774206269642C204D616B6520612068696768657220426964 PUSH1 0x0 DUP3 ADD MSTORE POP JUMP JUMPDEST PUSH1 0x0 PUSH2 0x10FF PUSH1 0x20 DUP4 PUSH2 0xCCF JUMP JUMPDEST SWAP2 POP PUSH2 0x110A DUP3 PUSH2 0x10C9 JUMP JUMPDEST PUSH1 0x20 DUP3 ADD SWAP1 POP SWAP2 SWAP1 POP JUMP JUMPDEST PUSH1 0x0 PUSH1 0x20 DUP3 ADD SWAP1 POP DUP2 DUP2 SUB PUSH1 0x0 DUP4 ADD MSTORE PUSH2 0x112E DUP2 PUSH2 0x10F2 JUMP JUMPDEST SWAP1 POP SWAP2 SWAP1 POP JUMP JUMPDEST PUSH32 0x41756374696F6E206973207374696C6C206F6E676F696E670000000000000000 PUSH1 0x0 DUP3 ADD MSTORE POP JUMP JUMPDEST PUSH1 0x0 PUSH2 0x116B PUSH1 0x18 DUP4 PUSH2 0xCCF JUMP JUMPDEST SWAP2 POP PUSH2 0x1176 DUP3 PUSH2 0x1135 JUMP JUMPDEST PUSH1 0x20 DUP3 ADD SWAP1 POP SWAP2 SWAP1 POP JUMP JUMPDEST PUSH1 0x0 PUSH1 0x20 DUP3 ADD SWAP1 POP DUP2 DUP2 SUB PUSH1 0x0 DUP4 ADD MSTORE PUSH2 0x119A DUP2 PUSH2 0x115E JUMP JUMPDEST SWAP1 POP SWAP2 SWAP1 POP JUMP JUMPDEST PUSH1 0x0 PUSH1 0x40 DUP3 ADD SWAP1 POP PUSH2 0x11B6 PUSH1 0x0 DUP4 ADD DUP6 PUSH2 0xE85 JUMP JUMPDEST PUSH2 0x11C3 PUSH1 0x20 DUP4 ADD DUP5 PUSH2 0xE5B JUMP JUMPDEST SWAP4 SWAP3 POP POP POP JUMP JUMPDEST PUSH32 0x4F6E6C792061756374696F6E206F776E65722063616E2063616C6C2074686973 PUSH1 0x0 DUP3 ADD MSTORE PUSH32 0x2066756E6374696F6E0000000000000000000000000000000000000000000000 PUSH1 0x20 DUP3 ADD MSTORE POP JUMP JUMPDEST PUSH1 0x0 PUSH2 0x1226 PUSH1 0x29 DUP4 PUSH2 0xCCF JUMP JUMPDEST SWAP2 POP PUSH2 0x1231 DUP3 PUSH2 0x11CA JUMP JUMPDEST PUSH1 0x40 DUP3 ADD SWAP1 POP SWAP2 SWAP1 POP JUMP JUMPDEST PUSH1 0x0 PUSH1 0x20 DUP3 ADD SWAP1 POP DUP2 DUP2 SUB PUSH1 0x0 DUP4 ADD MSTORE PUSH2 0x1255 DUP2 PUSH2 0x1219 JUMP JUMPDEST SWAP1 POP SWAP2 SWAP1 POP JUMP JUMPDEST PUSH32 0x41756374696F6E2043616E63656C6C6564000000000000000000000000000000 PUSH1 0x0 DUP3 ADD MSTORE POP JUMP JUMPDEST PUSH1 0x0 PUSH2 0x1292 PUSH1 0x11 DUP4 PUSH2 0xCCF JUMP JUMPDEST SWAP2 POP PUSH2 0x129D DUP3 PUSH2 0x125C JUMP JUMPDEST PUSH1 0x20 DUP3 ADD SWAP1 POP SWAP2 SWAP1 POP JUMP JUMPDEST PUSH1 0x0 PUSH1 0x40 DUP3 ADD SWAP1 POP DUP2 DUP2 SUB PUSH1 0x0 DUP4 ADD MSTORE PUSH2 0x12C1 DUP2 PUSH2 0x1285 JUMP JUMPDEST SWAP1 POP PUSH2 0x12D0 PUSH1 0x20 DUP4 ADD DUP5 PUSH2 0xE5B JUMP JUMPDEST SWAP3 SWAP2 POP POP JUMP JUMPDEST PUSH32 0x596F752063616E27742064657374727563742074686520636F6E74726163742C PUSH1 0x0 DUP3 ADD MSTORE PUSH32 0x205468652061756374696F6E206973207374696C6C206F70656E000000000000 PUSH1 0x20 DUP3 ADD MSTORE POP JUMP JUMPDEST PUSH1 0x0 PUSH2 0x1332 PUSH1 0x3A DUP4 PUSH2 0xCCF JUMP JUMPDEST SWAP2 POP PUSH2 0x133D DUP3 PUSH2 0x12D6 JUMP JUMPDEST PUSH1 0x40 DUP3 ADD SWAP1 POP SWAP2 SWAP1 POP JUMP JUMPDEST PUSH1 0x0 PUSH1 0x20 DUP3 ADD SWAP1 POP DUP2 DUP2 SUB PUSH1 0x0 DUP4 ADD MSTORE PUSH2 0x1361 DUP2 PUSH2 0x1325 JUMP JUMPDEST SWAP1 POP SWAP2 SWAP1 POP JUMP JUMPDEST PUSH32 0x4E487B7100000000000000000000000000000000000000000000000000000000 PUSH1 0x0 MSTORE PUSH1 0x32 PUSH1 0x4 MSTORE PUSH1 0x24 PUSH1 0x0 REVERT JUMPDEST PUSH32 0x42696464657273207374696C6C20686176652072656D61696E696E672066756E PUSH1 0x0 DUP3 ADD MSTORE PUSH32 0x6473000000000000000000000000000000000000000000000000000000000000 PUSH1 0x20 DUP3 ADD MSTORE POP JUMP JUMPDEST PUSH1 0x0 PUSH2 0x13F3 PUSH1 0x22 DUP4 PUSH2 0xCCF JUMP JUMPDEST SWAP2 POP PUSH2 0x13FE DUP3 PUSH2 0x1397 JUMP JUMPDEST PUSH1 0x40 DUP3 ADD SWAP1 POP SWAP2 SWAP1 POP JUMP JUMPDEST PUSH1 0x0 PUSH1 0x20 DUP3 ADD SWAP1 POP DUP2 DUP2 SUB PUSH1 0x0 DUP4 ADD MSTORE PUSH2 0x1422 DUP2 PUSH2 0x13E6 JUMP JUMPDEST SWAP1 POP SWAP2 SWAP1 POP JUMP JUMPDEST PUSH1 0x0 PUSH2 0x1434 DUP3 PUSH2 0xE51 JUMP JUMPDEST SWAP2 POP PUSH32 0xFFFFFFFFFFFFFFFFFFFFFFFFFFFFFFFFFFFFFFFFFFFFFFFFFFFFFFFFFFFFFFFF DUP3 SUB PUSH2 0x1466 JUMPI PUSH2 0x1465 PUSH2 0x1066 JUMP JUMPDEST JUMPDEST PUSH1 0x1 DUP3 ADD SWAP1 POP SWAP2 SWAP1 POP JUMP INVALID LOG2 PUSH5 0x6970667358 0x22 SLT KECCAK256 0xBA 0xB7 SWAP2 PUSH6 0x459D8AA4E2B 0xEF 0xC6 0xC5 0xE0 0xBE PUSH29 0xCE858BE401F8E5F4DD511BB9815CC92664736F6C634300081300330000 "},"gasEstimates":{"creation":{"codeDepositCost":"1057400","executionCost":"infinite","totalCost":"infinite"},"external":{"Mycar()":"infinite","STATE()":"2582","auction_end()":"2496","auction_start()":"2518","bid()":"infinite","bidders(uint256)":"5000","bids(address)":"2881","cancelAuction()":"6976","destructAuction()":"infinite","getOwner()":"2633","highestBid()":"2495","highestBidder()":"2559","withdraw()":"infinite"}},"methodIdentifiers":{"Mycar()":"0216f202","STATE()":"c486456c","auction_end()":"c458b65a","auction_start()":"78f45340","bid()":"1998aeef","bidders(uint256)":"cff29dfd","bids(address)":"62ea82db","cancelAuction()":"8fa8b790","destructAuction()":"ddfcec08","getOwner()":"893d20e8","highestBid()":"d57bde79","highestBidder()":"91f90157","withdraw()":"3ccfd60b"}},"storageLayout":{"storage":[{"astId":3,"contract":"Auction.sol:MyAuction","label":"auction_owner","offset":0,"slot":"0","type":"t_address"},{"astId":5,"contract":"Auction.sol:MyAuction","label":"auction_start","offset":0,"slot":"1","type":"t_uint256"},{"astId":7,"contract":"Auction.sol:MyAuction","label":"auction_end","offset":0,"slot":"2","type":"t_uint256"},{"astId":9,"contract":"Auction.sol:MyAuction","label":"highestBid","offset":0,"slot":"3","type":"t_uint256"},{"astId":11,"contract":"Auction.sol:MyAuction","label":"highestBidder","offset":0,"slot":"4","type":"t_address"},{"astId":22,"contract":"Auction.sol:MyAuction","label":"Mycar","offset":0,"slot":"5","type":"t_struct(Car)19_storage"},{"astId":25,"contract":"Auction.sol:MyAuction","label":"bidders","offset":0,"slot":"7","type":"t_array(t_address)dyn_storage"},{"astId":29,"contract":"Auction.sol:MyAuction","label":"bids","offset":0,"slot":"8","type":"t_mapping(t_address,t_uint256)"},{"astId":32,"contract":"Auction.sol:MyAuction","label":"STATE","offset":0,"slot":"9","type":"t_enum(AuctionState)14"}],"types":{"t_address":{"encoding":"inplace","label":"address","numberOfBytes":"20"},"t_array(t_address)dyn_storage":{"base":"t_address","encoding":"dynamic_array","label":"address[]","numberOfBytes":"32"},"t_enum(AuctionState)14":{"encoding":"inplace","label":"enum Auction.AuctionState","numberOfBytes":"1"},"t_mapping(t_address,t_uint256)":{"encoding":"mapping","key":"t_address","label":"mapping(address => uint256)","numberOfBytes":"32","value":"t_uint256"},"t_string_storage":{"encoding":"bytes","label":"string","numberOfBytes":"32"},"t_struct(Car)19_storage":{"encoding":"inplace","label":"struct Auction.Car","members":[{"astId":16,"contract":"Auction.sol:MyAuction","label":"Brand","offset":0,"slot":"0","type":"t_string_storage"},{"astId":18,"contract":"Auction.sol:MyAuction","label":"Rnumber","offset":0,"slot":"1","type":"t_string_storage"}],"numberOfBytes":"64"},"t_uint256":{"encoding":"inplace","label":"uint256","numberOfBytes":"32"}}},"userdoc":{"kind":"user","methods":{},"version":1}}